:020000040800F2
:10000000000002203508000885080008850800085F
:100010008508000885080008850800080000000021
:10002000000000000000000000000000850800083B
:10003000850800080000000085080008A7200008C7
:10004000850800088508000885080008850800085C
:1000500085080008850800083121000837210008BC
:100060003D210008432100084921000885080008B7
:10007000850800088508000885080008850800082C
:1000800085080008850800088508000800000000B1
:100090000000000000000000000000004F210008E8
:1000A000E105000859050008F50500087D05000870
:1000B00091050008A5050008B9050008452B0008B2
:1000C000512B00085D2B0008692B000885080008EB
:1000D00085080008352400084D24000800000000B1
:1000E000652100085D220008850800080000000066
:1000F000000000000000000000000000850800086B
:100100000000000085080008CD05000885080008EB
:1001100000000000000000000000000000000000DF
:10012000850800088508000885080008850800087B
:10013000850800080000000000000000000000002A
:10014000000000000000000000000000850800081A
:10015000850800088508000885080008652400084F
:10016000752B0008812B0008000000000000000033
:10017000000000000000000000000000000000007F
:1001800000000000850800080000000000000000DA
:0801900085080008850800083D
:1001980053B94AB9002908BF00281CBF4FF0FF31E6
:1001A8004FF0FF3000F00CB8ADF1080C6DE904CE4B
:1001B80002F040FADDF804E0DDE9022304B07047FC
:1001C800704700BF034613F8012B002AFBD1181A09
:1001D8000138704710B5054C237833B9044B13B177
:1001E8000448AFF300800123237010BD780000207D
:1001F80000000000B42E000808B5034B1BB10349EA
:100208000348AFF3008008BD000000007C00002018
:10021800B42E00087FB50F220223CDE90123032164
:1002280000234FF4805201A8CDE90332059301F071
:1002380055FCB0FA80F0400907B05DF804FB0000F7
:1002480010B58EB01C4B002400941A6C42F08052FA
:100258001A641B6C194A03F080530093009B0194A5
:10026800136823F4404343F400431360136803F412
:1002780040430193A042019B4FF0010302930CBF3E
:100288004FF480334FF4A0234FF4800203930223EA
:10029800CDE908320821C0220C9302A80423CDE935
:1002A8000A120D9301F044FA18B9FFF7B3FF0EB024
:1002B80010BD2046FBE700BF003802400070004038
:1002C80010B58EB00024194B00941A6C42F080527D
:1002D8001A641B6C164A03F080530093009B019428
:1002E800136823F4404343F40043136013680394F2
:1002F80003F440430193019B03231022029301233B
:100308000593069202230A92C022CDE90834CDE96A
:100318000B2302A804230D9301F00AFA18B9FFF77A
:1003280079FF0EB010BD2046FBE700BF0038024041
:100338000070004008B50020FFF782FF60B9012077
:10034800FFF77EFF40B9FFF7BBFF28B9BDE80840BB
:100358000248CF2101F084BF08BD00BF5C2F000810
:10036800B0F86230013303F03F03A0F86230B0F810
:100378006230B0F85E009BB298424FF0FF3018BF71
:1003880000207047B0F8F430B0F8F000181A00F008
:100398003F007047B0F8F430B0F8F0209BB29342B9
:1003A8001ABFD0F8E830985C4FF0FF307047000073
:1003B800012370B50374B0F9E230013304460E46E8
:1003C80000F1940508D190F8F8302BB1002380F89B
:1003D800F830284601F0B6FFB4F8F2104B1C03F0D1
:1003E8003F03B4F8F62092B29342FAD0D4F8EC2046
:1003F80028465654A4F8F23001F06EFF18B90349A4
:10040800284601F07BFF012070BD00BF690300088A
:10041800037C33B1B0F8F220B0F8F6309BB29A42C0
:10042800FAD1704700F11103914208BF4FF0FF3134
:10043800A0F8E020C0F8E83000F151020023A0F84D
:10044800F430C0E93B23A0F8E210A0F8F63070477A
:1004580070B54FF47A7316460022C0E90123164B93
:1004680003604FF6FF73A0F8E230144B984204463D
:100478000D4614D1124B9A8AA0F8E2205B8AA0F8A4
:10048800E030012E04BF4FF6FF73A4F8E230204697
:10049800B4F9E020B4F9E210FFF7C4FF70BD0949D0
:1004A800284601F0C5FE0849A4F8E200284601F0F4
:1004B800BFFEA4F8E000E4E7103000089400002034
:1004C800BE2F0008CC2E0008142F0008B0F9E23027
:1004D800013310B504460ED103685B69984794F858
:1004E800F83043B9012384F8F83004F19400BDE8EA
:1004F800104001F037BF10BD10B50446FFF7E6FF06
:10050800B4F8F420B4F8F03092B29A421FBFD4F88D
:10051800E820D05C013303F03F0314BFA4F8F030A7
:100528004FF0FF3010BD0000024903480022FFF7DA
:100538008FBF00BF0010014094000020836810B5F1
:10054800044613B1032201469847204610BD000017
:1005580010B5074C206810B1043001F088FBA06981
:1005680020B1BDE81040043001F081BB10BD00BFD0
:1005780094010020034B186810B1043001F077BBD8
:10058800704700BF94010020034B586810B1043035
:1005980001F06DBB704700BF94010020034B9868C1
:1005A80010B1043001F063BB704700BF9401002014
:1005B800034BD86810B1043001F059BB704700BF35
:1005C80094010020034B186910B1043001F04FBBAF
:1005D800704700BF94010020034B586910B10430E4
:1005E80001F045BB704700BF94010020034BD86958
:1005F80010B1043001F03BBB704700BF94010020EC
:10060800826810B50AB902F077F9BDE81040C368EE
:100618001847000010B5044620B9074840F22641A3
:1006280001F01EFE204601F043FE0068036E13B180
:100638005830FFF7E5FF10BD30300008FFF7EABF7C
:1006480038B5054620B9114840F2394101F008FE95
:100658002B7F013B072B11D8DFE803F0150410119D
:10066800101010130224284601F022FE240100680D
:100678005834204483680BB1FFF7C2FF38BD032408
:10068800F1E70424EFE70124EDE700BF303000086C
:10069800FFF7D6BFFFF7D4BFF8B505460E46174695
:1006A8000024BC4207D02B68315D1B682846984758
:1006B80008B10134F5E72046F8BD10B5044600F04E
:1006C800DEF8E06023682046DB689847002808DAEF
:1006D80000F0D5F8E368C01AA3689842F2D34FF047
:1006E800FF3010BDF8B506460D4617460024BC423B
:1006F80007D03046FFF7E1FF031E02DB2B5501341C
:10070800F5E72046F8BD2DE9F0410746884616462C
:100718001D4673B100243846FFF7CFFF031E05DBE3
:10072800434503D033550134A542F4D12046BDE8F2
:10073800F0811C46FAE7000008B5044B2BB10448C9
:10074800FFF720FE08B1AFF3008008BD00000000ED
:100758009400002010B50446006802F03FFA2046D5
:1007680010BD10B50446006808B102F037FA00233E
:10077800C4E90133236010BD38B504460D4600684E
:10078800013102F0F3FA10B1C4E90005012038BDC7
:10079800036810B5044623B143688B4201D3012096
:1007A80010BD2046FFF7E8FF0028F9D0A368002B0A
:1007B800F5D122681370F2E770B50E46114604466B
:1007C8001546FFF7E5FF20B92046FFF7CAFF204688
:1007D80070BD2068A560314602F024FBF7E70023CE
:1007E80013B5C0E900330446836041B1084601915E
:1007F800FFF7E8FC019902462046FFF7DDFF204697
:1008080002B010BD01F070BC08B5032000F08AF8F2
:10081800BDE80840FFF7F6BF08B5AFF3008001F068
:1008280053FE01F052FEFFF787FFFAE7DFF834D0F6
:10083800002103E00C4B5B58435004310B480C4B30
:1008480042189A42F6D30B4A02E0002342F8043BCE
:10085800094B9A42F9D301F005FD02F09BF9FFF725
:10086800DBFF7047000002209831000800000020DC
:100878007400002078000020201B0020FEE701F013
:100888000BBC704738B50E4A0E4B054618784FF426
:100898007A73B3FBF0F31068B0FBF3F000F0A8F83C
:1008A800044658B90F2D09D8024629464FF0FF30A3
:1008B80000F04AF8044B20461D6038BD0120FCE7D3
:1008C80008000020000000200400002008B50B4BA1
:1008D8001A6842F400721A601A6842F480621A6058
:1008E8001A6842F480721A60032000F01BF8002096
:1008F800FFF7C8FFFFF7C5FF002008BD003C024016
:10090800034A044B11681B780B441360704700BFFF
:100918000C1B002000000020014B1868704700BF26
:100928000C1B00200749CA6822F4E0620302120483
:1009380003F4E063120C134343F0BF6343F4003342
:10094800CB60704700ED00E0164B30B5DC68C4F3AF
:100958000224C4F10705231D042D28BF0425062BF6
:100968004FF0FF338CBF033C002403FA05F521EA5E
:100978000501A34022EA0302A140002841EA02033C
:10098800ACBF00F16040084A4FEA0313B8BF00F05B
:100998000F00DBB2AABF00F56140135480F80033A2
:1009A80030BD00BF00ED00E014ED00E0002808DBDA
:1009B8004209012300F01F0003FA00F0014B43F83D
:1009C8002200704700E100E000280DDB4309012206
:1009D80000F01F0002FA00F02033044A42F8230016
:1009E800BFF34F8FBFF36F8F704700BF00E100E088
:1009F8000138B0F1807F0AD2064B074A5860F021CF
:100A080082F823100020072298601A60704701209E
:100A1800704700BF10E000E000ED00E0002809DBAF
:100A28004309012200F01F0002FA00F06033024A75
:100A380042F82300704700BF00E100E0704708B5A6
:100A4800FFF7FCFF08BD90F83530022B03D0802358
:100A58004365012070470268052380F83530136824
:100A680023F0010313600020704790F835007047A9
:100A7800044A5169014208B502D0506101F03EFBB9
:100A880008BD00BF003C0140036D83B9C36C026818
:100A9800012B836C05D1DBB21361036D023303654F
:100AA8007047C3F307231361036D0133F7E7036D41
:100AB800012B03D1836C0268DBB2F4E7036D022BD0
:100AC80017D190F83D30222B05D10268136843F402
:100AD80080731360704790F83D30212B09D1436A29
:100AE800026813F8011B11614362438D013B9BB2FD
:100AF8004385704737B590F83D4004F02804282C0A
:100B080031D100292DD0002A2BD090F83C40012C5F
:100B180029D005682C68E4075EBF2C6844F00104FE
:100B28002C602C6824F400642C60292480F83D4053
:100B3800202480F83E40002404644285428DC3622C
:100B480001946B690193AB69019380F83C40019B68
:100B58006B68416243F4E06302856B60204603B032
:100B680030BD0120FBE70220F9E737B590F83D409A
:100B780004F02804282C31D100292DD0002A2BD0AC
:100B880090F83C40012C29D005682C68E4075EBF2A
:100B98002C6844F001042C602C6824F400642C6058
:100BA8002A2480F83D40202480F83E400024046434
:100BB8004285428DC36201946B690193AB690193CD
:100BC80080F83C40019B6B68416243F4E063028516
:100BD8006B60204603B030BD0120FBE70220F9E737
:100BE80090F83D30202B14D1282380F83D3003683D
:100BF8001A68D2075EBF1A6842F001021A601A68C2
:100C080042F480621A605A6842F440725A600020C6
:100C180070470220704770477047704770477047A9
:100C280038B5806B90F83D20456BD2B20DB10023EA
:100C3800EB63846B0CB10023E3630368196821F448
:100C4800806119600021418505B1296504B12165DC
:100C5800196821F00101196090F83D10602909D147
:100C6800202380F83D30002380F83E300364FFF7EE
:100C7800D6FF38BD02F02802282A0ED1196841F0A3
:100C880001011960196841F4806119600023036348
:100C980080F83D2001F04BFFEBE7202380F83D3042
:100CA800002380F83E30F5E710B590F83D2090F825
:100CB8003E10036810290446D2B212D1222A10D15C
:100CC800196821F4006119605968080504D4602A7C
:100CD8001CBF202284F83D200022226384F83E2095
:100CE80007E002F028012829EED10022226384F8C7
:100CF8003D105A6812F400624FD05A68606B22F4B3
:100D080000625A6090F83530012B374B2BD00365C1
:100D1800FFF799FE50B12268606B136823F0010356
:100D28001360202384F83D30036D9847236C19071E
:100D38001FBF2268536823F4E063536094F83D3082
:100D4800226C5207DBB20DD5282B0BD1274BE3625F
:100D5800202200232363204684F83D2084F83E3077
:100D680001F0BAFE10BDA06B0365FFF76CFE00280A
:100D7800DCD023685A69510605D51A69636A1A7066
:100D8800636A013363622268A06B136823F001036E
:100D98001360202384F83D30C6E794F83D1060299D
:100DA80015D1202184F83D1022645A69520605D5D0
:100DB8001A69636A1A70636A013363622268136886
:100DC80023F0010313602046FFF729FFAEE75A69B5
:100DD800500605D51A69636A1A70636A013363623B
:100DE800204601F0A4FEA1E7290C00080000FFFF3F
:100DF80070B503685A68C16A90F83E50044690F886
:100E08003D00102D8CB0EEB2C0B202D0402E40F0A2
:100E180099829D695869C60707D4B1F52A0F02D08F
:100E2800B1F12A4F50D10CB070BD91054CD5E26A92
:100E3800B2F52A0F0CD10122E26294F83E20402A32
:100E480011D1226D52B9626C02F0FE021A61EAE712
:100E5800E26AB2F12A4FF0D10822EDE7626C42F063
:100E68000102D2B2F2E72269B2F5804F19D194F8A3
:100E78003D20212A626C16BF42F0010202F0FE02F8
:100E8800D2B21A61626B0AB1D26B2AB9A26B002A7C
:100E9800C9D0D26B002AC6D05A6842F400625A60A0
:100EA800C1E7226D32B9626CD21102F0060242F03B
:100EB800F002CBE7226D012AB5D1626CD21102F0A3
:100EC800060242F0F102C1E706070ED591050CD5DE
:100ED800626CD2B21A61626B12B9A16B0029A2D0FE
:100EE800D26B002AD8D1A26BD3E7860740F1DD8008
:100EF800910540F1DA8094F83E10E26A256B94F887
:100F08003D002228C9B240F0C880206D40B9402970
:100F180006D101905A6901929B690193019B82E76E
:100F2800216D89B92069B0F5404F0DD102915A69F8
:100F380002929A690292029A1A6842F480721A60BE
:100F4800236D013323656EE7618D89B251B9039131
:100F58005A6903929A690392039A1A6842F40072D2
:100F68001A6019E0618D89B2012949D112F5803FD3
:100F78001BD11A6822F480621A605A6812F400625F
:100F88000CD01A6822F480621A60002204925A690E
:100F980004929B690493049B0023D3E705925A6942
:100FA80005929A690592059AD7E7082A1CD0202A43
:100FB8001AD0122D0DD1012A16D11A6822F4806296
:100FC8001A60002206925A6906929B690693069B4C
:100FD800E2E7102AF1D8A44921FA02F2D207ECD5A7
:100FE8001A6842F48062EBE71A6822F480621A6099
:100FF800002207925A6907929A690792079AACE702
:10100800618D89B202292AD1102A03D89649D14084
:10101800CE0720D4196821F480611960196841F459
:101028000061196059680D050DD512F5803F06D08D
:10103800511E1F2907D88D4ACA40D00703D55A68C0
:1010480042F480525A60002208925A6908929B69B9
:101058000893089BA0E7196841F48061E1E71968E3
:1010680041F480611960596809050ED512F5803F71
:1010780007D0013A1F2A08D87C4921FA02F2D6077C
:1010880003D55A6842F480525A60002209925A697C
:1010980009929B690993099B7EE700220A925A6983
:1010A8000A929B690A930A9BBDE66D07596840F14D
:1010B8008B800E053FF5B7AE0506C0F380013ED51F
:1010C80050053CD500293DD194F83D20258D94F854
:1010D8003E10E06AD2B2C9B2C5B9212A18D108288F
:1010E80055D0202853D010F5803F50D05A6822F4AC
:1010F800E0625A6011232363002384F83E302023E2
:1011080084F83D302046FFF786FD8CE6212A05D07D
:1011180040297FF488AE222A7FF485AE628D92B290
:101128001AB95A6822F48062B9E694F83E20402A37
:1011380013D120460CB0BDE87040FFF7A5BC0029CC
:101148003FF471AE92057FF56EAEE16A94F83D20EA
:10115800212A33D1628D92B24AB1626A12F8011B18
:1011680019616262638D013B9BB263855BE6082966
:101178000DD020290BD011F5803F08D0596821F4F3
:10118800E06159601123236384F83E20B7E75A6869
:1011980022F4E0625A601A6842F400721A6000236E
:1011A8002022236384F83D2094F83E2084F83E30C2
:1011B800402A2046A7D1FFF730FD34E694F83E30A8
:1011C800402B7FF430AEB4E70E053FF52CAE450654
:1011D800C0F380014CD550054AD500294BD194F86D
:1011E8003D20222A7FF41FAE628D92B2032A14D9C1
:1011F8001A69636A1A70636A01336362638D013B1B
:101208009BB26385638D9BB2032B7FF40CAE22687F
:10121800536823F48063536005E6E06A02283FF4CC
:1012280002AE012A3FF6FFAD1A6822F480621A6006
:101238005A6822F4E0625A601A69636A1A70636A2B
:1012480001336362638D013B9BB26385202384F87D
:101258003D3094F83E3084F83E10402B6CD1216329
:101268002046FFF7DBFCDEE51400010081800080EA
:1012780000293FF4D8AD92057FF5D5ADE26A608DBF
:10128800616A80B2042809D15A6822F480625A60DF
:101298001B690B70636A0133636263E7608D80B218
:1012A80003280CD15868042A20F480605860EFD0D5
:1012B800022AEDD01A6822F480621A60E8E7608D8D
:1012C80080B20228E4D1012A01D0102A28D11A6854
:1012D80022F480621A601B690B70626A531C636295
:1012E800638D013B9BB2638523681B695370636AF6
:1012F800226801336362638D013B9BB26385536847
:1013080023F440735360202384F83D3094F83E3032
:10131800402B4FF0000384F83E300DD123639FE744
:10132800042A01D0022A03D11A6842F48062D1E764
:101338001A6842F40072CDE7122323632046FFF7B0
:101348006BFC70E5216C11B3596900258E0728D50F
:10135800960526D5226C02B19D6994F83D2002F0CD
:101368002802282A16D15A6822F480625A606FEA45
:1013780095012B064FF0000354BFA289228B84F8F5
:101388003C3001F00101204601F082FB4BE59D69EC
:101398005969DBE76FF002025A61002384F83C3098
:1013A80041E5CE0640F1B180950540F1AE8094F854
:1013B8003D505A6822F4E0625A6000220B925A6942
:1013C8000B921A6842F001021A600B9A1A6822F40A
:1013D80080621A605A681205EDB220D505F0F7024E
:1013E800222A4AD1A06B0268526892B26285628D45
:1013F80092B21AB1226C42F0040222645A6822F4B2
:1014080000625A60FFF731FB012808D0A06B794BC6
:101418000365FFF718FB10B1A06B036D9847638D48
:101428009BB213B323685A69560709D51A69636AC8
:101438001A70636A01336362638D013B9BB26385F3
:1014480023685A69500609D51A69636A1A70636A6B
:1014580001336362638D013B9BB26385638D9BB2ED
:101468001BB1236C43F004032364236C13B320469D
:101478000CB0BDE87040FFF717BC606B026852689B
:1014880092B26285628D92B21AB1226C42F0040265
:1014980022645A6822F400625A60FFF7E6FA0128CB
:1014A800BDD0606B534B0365FFF7CDFA0028B6D06B
:1014B800606BB2E72A2D06D12363282384F83D30D8
:1014C800204601F01EFB94F83D30282B0CD14A4BE6
:1014D800E362202200232363204684F83D2084F819
:1014E8003E3001F0F9FA9EE4236B222B02D0222D24
:1014F8007FF499AC00232022236384F83D2084F8EC
:101508003E30204601F0FDFA8DE400F0F700212876
:10151800C1F3800535D1090627D5560525D53DBB2C
:1015280094F83D10628D92B2C9B2002A3FF47BACA8
:10153800626A12F8015B1D616262628D013A92B2C1
:101548006285628D92B2002A7FF46DAC29297FF4FE
:101558006AAC5A6822F480625A602823206384F8AF
:101568003D30204601F0DFFA5DE4002D3FF45BAC2E
:1015780095057FF558AC628D92B2002A3FF453ACC2
:10158800EBE5480627D5510525D53DBB94F83D2008
:10159800618D89B2D2B200293FF445AC1969636AFA
:1015A8001970636A01336362638D013B9BB2638583
:1015B800638D9BB2002B7FF436AC2A2A7FF433ACC0
:1015C8002268536823F4806353602223236328230B
:1015D80084F83D3095E7002D3FF425AC92057FF562
:1015E80022AC628D92B2002A3FF41DAC1A69636A7C
:1015F8001A704FE6290C00080000FFFFF8B50368D1
:101608005F695E6890F83E200446F805D2B2C7F3D9
:10161800002508D5F10548BF6FF48071C6F3002591
:1016280044BF59610125B80506D5F10542BF6FF4DD
:10163800007145F002055961780536D5F10534D5B4
:10164800608D94F83D10D4F830C0202A80B2C9B219
:101658005BD1002859D101F0F700212804D02829AE
:1016680053D1BCF1210F50D194F83D20E16A0829EB
:10167800D2B201D020292AD1282A28D12B4AE262C5
:101688005A6822F4E0625A606FF480625A611A68FC
:1016980022F480621A60002320222363204684F803
:1016A8003D2084F83E3001F017FA3A053BD5F305A2
:1016B80039D523686FF4006245F008055A61236C38
:1016C8001D4325642046BDE8F840FFF7EDBA212AFE
:1016D80017D11649E1622263202284F83D200022B6
:1016E80084F83E205A6822F4E0625A606FF48062FF
:1016F8005A611A6822F480621A60204601F013FACF
:10170800D3E76FF480625A61CFE76FF48061102AE3
:10171800596145F0040501D0402AC6D11A6842F43F
:1017280000721A60C1E7002DC9D1F8BD0000FFFFA3
:101738002DE9F341044640B30368DD0710D423685C
:1017480098075ED423681A0700F1A08023685B0716
:1017580000F1BE80A069002840F01F8100202BE026
:10176800A64B9A6802F00C02042A07D09A6802F085
:101778000C02082A0BD15A68510208D59F4B1B68E6
:101788009A03DCD56368002BD9D1012014E0626884
:10179800B2F5803F13D11A6842F480321A60FFF71D
:1017A800BBF8964E054633689B03C8D4FFF7B4F8D8
:1017B800401B6428F7D9032002B0BDE8F0818F4DA3
:1017C800B2F5A02F2B6807D143F480232B602B6838
:1017D80043F480332B60E2E723F480332B602B68DB
:1017E80023F480232B60002AD9D1FFF795F8064609
:1017F8002B689F03A3D5FFF78FF8801B6428F7D9C0
:10180800D9E77E4B9A6812F00C0F07D09A6802F05D
:101818000C02082A11D15B685E020ED4774B1A6855
:10182800950702D5E268012AAFD11A68216922F02A
:10183800F80242EAC1021A6084E7E268704BB2B16A
:1018480001221A60FFF768F86C4D06462B68980766
:1018580007D52B68226923F0F80343EAC2032B60FB
:1018680070E7FFF759F8801B0228EFD9A3E71A6041
:10187800FFF752F8614E0546336899077FF562AF66
:10188800FFF74AF8401B0228F6D994E762695D4BD6
:101898007AB101221A60FFF73FF8584E0546736F78
:1018A8009F073FF553AFFFF737F8401B0228F6D9DB
:1018B80081E71A60FFF730F8504E0546736F9807B6
:1018C8007FF544AFFFF728F8401B0228F6D972E7E6
:1018D8004A4B1A6C12F0805228D101921A6C42F0CD
:1018E80080521A641B6C03F080530193019B0127FB
:1018F800454D2B68D9051BD5A368404D012B27D131
:101908002B6F43F001032B67FFF706F83B4E0546A4
:1019180041F28838336F9B0739D5002F3FF41AAF4F
:10192800364A136C23F08053136413E70027DFE76C
:101938002B6843F480732B60FEF7EEFF06462B6896
:10194800DA05D9D4FEF7E8FF801B0228F7D932E779
:10195800052B04D12B6F43F004032B67D0E72A6FC4
:1019680022F001022A672A6F22F004022A67002B5C
:10197800CAD1FEF7D1FF41F2883806462B6F980787
:10198800CBD5FEF7C9FF801B4045F7D913E7FEF713
:10199800C3FF401B4045BDD90DE7184DAB6803F0A8
:1019A8000C03082B47D0194E00230228336035D189
:1019B800FEF7B2FF07462B68990129D4D4E907320C
:1019C8001343626A43EA8213E26A43EA0263A26A41
:1019D8005208013A43EA02436B6001233360FEF781
:1019E8009BFF064D04462B689A013FF5B7AEFEF7FC
:1019F80093FF001B0228F6D9DDE600BF003802403D
:101A080000004742800E4742007000406000474295
:101A1800FEF782FFC01B0228CDD9CCE6FEF77CFF7B
:101A280004462B689B017FF599AEFEF775FF001BF6
:101A38000228F6D9BFE601283FF4BEAEAB68E269DA
:101A480003F4800191427FF4A0AE216A03F03F02C3
:101A58008A427FF49AAE616A47F6C0721A408A4297
:101A68007FF493AEA16A03F440328A427FF48DAECC
:101A7800E26A03F0706393423FF470AE85E600BFFC
:101A8800134908B58B6803F00C03042B1CD0082BF2
:101A98001CD14A684B68496813F4800314BF0D4889
:101AA8000D48C1F3881118BF002302F03F02A1FBC3
:101AB8000001FEF76DFB064B5B68C3F3014301337E
:101AC8005B00B0FBF3F008BD0248FCE70248FAE708
:101AD8000038024000127A000024F4002DE9F04199
:101AE8000D46044610B90120BDE8F081444B1A6840
:101AF80002F00F028A4228D3226897072DD4D00714
:101B080041D43F4B1A6802F00F02AA4266D82268F5
:101B180051076CD4130707D53A4A2169936823F40F
:101B2800604343EAC1039360FFF7AAFF354B364A87
:101B38009B68C3F30313D35CD840344B1860344B11
:101B48001868FEF79FFE0020CEE7CAB21A701B681D
:101B580003F00F038B42C6D1CEE72A4B12F0040FD5
:101B68001EBF996841F4E0519960160742BF996811
:101B780041F4604199602349A0688B6823F0F00321
:101B880003438B60BBE762681E4B012A1CD11B68AC
:101B980013F4003FA7D01B4EB36823F0030313438D
:101BA800B360FEF7B9FE41F288380746B368626849
:101BB80003F00C03B3EB820FA3D0FEF7ADFEC01BFE
:101BC8004045F3D903208FE7911E01291B6802D8ED
:101BD80013F0007FDEE713F0020FDBE7EAB21A70BA
:101BE8001B6803F00F03AB427FF47DAF8FE7054915
:101BF800E0688B6823F4E05303438B608AE700BFF7
:101C0800003C0240003802408D30000808000020E7
:101C18000400002003689A68D20410B504460AD567
:101C2800DB68D90507D500F009FB2268D368DBB269
:101C380063F4C073D36023689A6892040BD5DB6899
:101C48009B0508D5204600F00FF82268D368DBB260
:101C580063F42073D360034B4FF400325A610123BD
:101C6800637710BD003C01407047704770470368B8
:101C78001A69910710B504460ED5DA6892070BD594
:101C88006FF002021A61012202779B699B0777D0E5
:101C9800FEF700FD0023237723681A69500710D543
:101CA800DA6851070DD56FF004021A610222227713
:101CB8009B6913F4407F204668D0FEF7EBFC0023B5
:101CC800237723681A6912070FD5DA6810070CD52D
:101CD8006FF008021A6104222277DB69990720460F
:101CE8005AD0FEF7D7FC0023237723681A69D20657
:101CF80010D5DA68D0060DD56FF010021A610822E7
:101D08002277DB6913F4407F20464BD0FEF7C2FCF4
:101D18000023237723681A69D10708D5DA68D20720
:101D280005D56FF001021A612046FEF787FC23688B
:101D38001A69100608D5DA68110605D56FF0800211
:101D48001A61204600F036F823681A69520608D549
:101D5800DA68500605D56FF040021A612046FFF791
:101D680085FF23681A69910622D5DA6892061FD57D
:101D78006FF0200220461A61BDE8104000F019B843
:101D8800FEF786FC2046FFF770FF83E7FEF780FC2E
:101D98002046FFF76AFF92E7FEF77AFC2046FFF736
:101DA80064FFA0E7FEF774FC2046FFF75EFFAFE78D
:101DB80010BD704770470368DA6822F49072DA60E1
:101DC8005A6922F001025A61202380F83A3070479C
:101DD80090F83930202B18D1A9B1A2B190F8383039
:101DE800012B12D0C284016282840168002321225F
:101DF800C36380F8383080F83920CA6842F080021E
:101E0800CA6018467047012070470220704790F852
:101E18003A30202B20D1E9B1E2B190F83830012BCB
:101E28001AD0C285828500232222C36380F83A2013
:101E3800026880F838308162D16841F48071D160DD
:101E4800516941F001015161D16841F02001D1602F
:101E580018467047012070470220704710B590F867
:101E68003A30222B33D181680469836A0268B1F55C
:101E7800805F23D15268ECB9C2F3080223F8022B21
:101E88008362C48D013CA4B2C4858CB90368DA6846
:101E980022F02002DA60DA6822F48072DA605A6985
:101EA80022F001025A61202380F83A3000F06AFAE1
:101EB80000200DE0D2B223F8012BE1E7591C52684B
:101EC80081620CB91A70DCE702F07F02FAE702209F
:101ED80010BD000003681A68D96870B516075D69F7
:101EE800044607D196065CD58D065AD5BDE87040E4
:101EF800FFF7B4BF05F0010001F49075054350D019
:101F0800D60705D5CD0542BFE36B43F00103E36374
:101F1800530704D518B1E36B43F00203E363960754
:101F280004D518B1E36B43F00403E363150707D541
:101F380001F0200303431EBFE36B43F00803E36390
:101F4800E36B4BB3900604D5890602D52046FFF70C
:101F580085FF23685B69E56B03F0400305F008051E
:101F68001D43204619D0FFF726FF23685A695206F9
:101F78000FD55A69606B22F040025A6148B1264B6E
:101F88000365FEF760FD38B1606BBDE87040036D16
:101F98001847204600F00CFA70BD00F009FAE56316
:101FA800FAE7160628D50D0626D594F83920212AF1
:101FB800F2D1A168226AB1F5805F18D11188C1F306
:101FC80008015960216981B902322262E28C013A22
:101FD80092B2E284002ADFD1DA6822F08002DA6065
:101FE800DA6842F04002DA60D6E70132EDE7511CC8
:101FF800216212785A60E9E75006CDD54A06CBD55A
:10200800DA6822F04002DA60202384F8393020466A
:1020180000F0BBF9C0E700BF2520000808B5806BB9
:102028000023C385C38400F0C3F908BD90F8383095
:10203800012B11D00268242380F83930D36823F0AB
:102048000C0343F00803D360202380F839300023C1
:1020580080F83830184670470220704790F83830BA
:10206800012B11D00268242380F83930D36823F07B
:102078000C0343F00403D360202380F83930002395
:1020880080F83830184670470220704790F8392099
:1020980090F83A0010437047FEF73EBC704708B509
:1020A800FEF72EFCFEF7CBFCFFF7F8FF08BD00009B
:1020B8000B4BDA68D2015EBFDA6842F08072DA60F0
:1020C800084B00225A601A6842F001021A6000BFE9
:1020D80000BF00BF5868B0FA80F04009704700BFE1
:1020E800F0ED00E0001000E008B5FFF7E1FFFEF7B3
:1020F800EDFBBDE80840FEF71DB9000000230128EC
:1021080003F1010202D040081346F8E71421DBB2BC
:102118004B43044A181D1044816811B11A441369CD
:1021280018477047B40100200120FEF7A1BC022027
:10213800FEF79EBC0420FEF79BBC0820FEF798BC67
:102148001020FEF795BC38B505242025A8B2FEF767
:102158008FFC013C4FEA4505F8D138BD38B5062457
:102168004FF48065A8B2FEF783FC013C4FEA4505B1
:10217800F8D138BD204B07211975082183F828109C
:10218800092183F83C100A21062283F850101721F0
:102198001A7083F86410002283F8781083F88C1082
:1021A80083F8A01083F8B4102821DA601A625A6301
:1021B8009A64DA651A67C3F88420C3F89820C3F8CC
:1021C800AC20C3F8C02083F8C810C3F8D42083F823
:1021D800DC10C3F8E82083F8F010C3F8FC2083F87B
:1021E8000411C3F8102183F81811C3F8242183F8C7
:1021F8002C11C3F838217047B401002038B5054CBC
:10220800A4F5A075143C201DFEF798F9AC42F9D14D
:1022180038BD00BFF40200204B6813B94FF0FF30FF
:102228007047834202D1B1F9000070470C31F3E7DF
:1022380008B1FFF7F1BF4FF0FF307047034B1B6841
:1022480013B1034A10681847704700BFF402002012
:10225800180300200148FFF7DDBC00BFF80200208A
:10226800FEE700000F49D1F8883043F47003C1F845
:1022780088300D4B1A68002042F001021A609860FD
:102288001A6822F0847222F480321A60074A5A606F
:102298001A6822F480221A60D8604FF000638B60BD
:1022A800704700BF00ED00E0003802401030002405
:1022B8000438704708B5074B90F8512053F82200AE
:1022C800FFF7E4FE00F02200A0F122035842584133
:1022D80008BD00BF1C03002008B5074B90F851202B
:1022E80053F82200FFF7D2FE00F02100A0F12103ED
:1022F8005842584108BD00BF1C03002010B50446D1
:10230800E8B1816490F95000FEF75EFBA36DB4F864
:10231800621094F8510013FA81F1094B012253F825
:102328002000FFF755FD94F9500000220121FEF727
:102338000BFB94F95000BDE81040FEF737BB10BD09
:102348001C03002050B1B0F94E30013306D190F88B
:102358005120034B53F82200FFF768BE704700BFB7
:102368001C03002050B1B0F94E30013306D190F86B
:102378005120034B53F82200FFF770BE704700BF8F
:102388001C030020036C0438184710B5436C04463E
:102398000438984701300AD0B4F85E10636D2046BF
:1023A8000122BDE8104013FA81F1FFF711BD10BDFD
:1023B8001FB503680446186810F0010013D0002206
:1023C80000921A6800925B680093009B201FFFF739
:1023D80071FF40BB012204F14E01204604B0BDE864
:1023E8001040FFF714BD196811F0020106D00190E2
:1023F8001A6801925B680193019BE7E71A6812F07B
:10240800040206D002911A6802925B680293029B4A
:10241800DCE719680907D9D503921A6803925B6843
:102428000393039BD2E704B010BD000008B5252034
:10243800FEF7F4FA024B1868BDE80840FFF74ABDFA
:102448001C03002008B52620FEF7E8FA024B58685E
:10245800BDE80840FFF73EBD1C03002008B5472033
:10246800FEF7DCFA024B9868BDE80840FFF732BD7A
:102478001C03002010B50A4C22681318EFF30881DA
:102488008B4206D9074B0C221A604FF0FF321046D8
:1024980010BD05490548091A8B42F3D22360F6E7B7
:1024A8000C000020101B0020000002200004000087
:1024B800FEE70000024B16221A604FF0FF3070470B
:1024C800101B002001207047704770470000000073
:1024D80038B545494548464CFEF781F945494648CF
:1024E800FEF77DF941F28831444800F0A1F84FF435
:1024F8007A71434800F09CF86421424800F098F84B
:102508006821204600F092F800220023C4E90C2339
:10251800C4E90E23C4E91023C4E91223C4E914232F
:10252800C4E916232CA3D3E90023C4E92423364B9A
:102538000022C4E926232AA3D3E900230025C4E9FD
:10254800282300230822C4E92A232946402204F12B
:10255800B000C4E91E55C4E92055C4E92255656197
:1025680000F052FB4022294604F1F00000F04CFB39
:102578004022294604F5987000F046FB502229466F
:1025880004F5C47000F040FB5022294604F5EC70B5
:1025980000F03AFB5022294604F50A7000F034FB9B
:1025A8005022294604F51E7000F02EFB50222946C1
:1025B80004F5327000F028FB5022294604F54670D5
:1025C80000F022FB114B0022C4E9DA23C4E9E62318
:1025D800C4E9F22338BD00BF4AD8124DFB21094097
:1025E80000000000006060409D300008081A0020CC
:1025F80028030020BA300008141A0020301A0020DE
:10260800281A0020201A00200000D0400000F03FC7
:1026180008B50448FEF79EF8BDE808400248FEF7F2
:1026280099B800BF141A0020081A002001707047DA
:10263800416070472DE9F047089D04468C46002B01
:1026480040F083808A42174647D9B2FA82F242B1F3
:10265800C2F1200024FA00F09140974040EA010CB2
:1026680094404FEA1748230CBCFBF8F61FFA87FE84
:1026780008FB16C143EA014306FB0EF1994209D94A
:10268800FB1806F1FF3080F01981994240F216815B
:10269800023E3B445B1AA4B2B3FBF8F008FB1033CC
:1026A80044EA034400FB0EFEA64509D93C1900F193
:1026B800FF3380F00581A64540F2028102383C4490
:1026C80040EA0640A4EB0E0400261DB1D4400023C6
:1026D800C5E900433146BDE8F08702B9FFDEB2FA2A
:1026E80082F2002A50D1CB1B4FEA174E1FFA87F807
:1026F8000126B3FBFEFC210C0EFB1C3341EA03410F
:1027080008FB0CF38B4207D979180CF1FF3002D281
:102718008B4200F2E9808446C91AA3B2B1FBFEF0ED
:102728000EFB101143EA014408FB00F8A04507D945
:102738003C1900F1FF3302D2A04500F2D9801846B7
:10274800A4EB080440EA0C40BFE78B4209D9002DEE
:1027580000F0B1800026C5E9000130463146BDE8E9
:10276800F087B3FA83F6002E4AD18B4202D3824215
:1027780000F2B880841A61EB030101208C46002D19
:10278800A8D0C5E9004CA5E7C2F1200320FA03F65A
:10279800974001FA02F04FEA174ED9403043030C34
:1027A800B1FBFEF61FFA87F80EFB161143EA014348
:1027B80006FB08F1994204FA02F409D9FB1806F15C
:1027C800FF3C80F08D80994240F28A80023E3B4473
:1027D8005B1A81B2B3FBFEF00EFB103341EA0341F2
:1027E80000FB08F38B4207D9791800F1FF3C73D23C
:1027F8008B4271D902383944CB1A40EA064678E749
:10280800C6F1200C03FA06F422FA0CF31C4320FA52
:102818000CF701FA06F34FEA144E21FA0CF11F43A4
:102828003B0CB1FBFEF91FFA84F80EFB191143EAC1
:10283800014109FB08FA8A4502FA06F200FA06F392
:1028480008D9611809F1FF3048D28A4546D9A9F15B
:1028580002092144A1EB0A01BFB2B1FBFEF00EFB55
:10286800101147EA014700FB08F8B84507D9E719EE
:1028780000F1FF312ED2B8452CD90238274440EA5E
:102888000940A7EB0807A0FB02894F45C646494601
:102898001AD317D05DB1B3EB0E0267EB010707FA45
:1028A8000CFCF2404CEA0202F740C5E9002700267A
:1028B8003146BDE8F0872E4628460BE70646E9E68E
:1028C8001846FDE64345E5D2B8EB020E69EB040174
:1028D8000138DFE70846D2E760468DE78146B9E769
:1028E800664675E730464AE7ACF1020C394413E70F
:1028F80002383C4424E700BF08B500F043F9827D64
:10290800407D101A7047437D827D9A4285BF0269D7
:10291800D25C4FF0FF32013388BF437510467047D1
:10292800827D437D9A4286BF0269D05C4FF0FF30BA
:1029380070470000202938B538BF20210546806936
:102948000C4600F013FA10B1A8612C7738BD214667
:102958000248BDE83840FFF783BC00BFC930000813
:1029680013B5C37F8DF807100446BBB1817F037F81
:102978000131994201D9FFF7DDFFA06918B9012398
:10298800636002B010BD637F9DF80720C254637F67
:102998000133DBB26377A3770120F2E701220DF15F
:1029A8000701243000F060F8B0FA80F04009E8E749
:1029B80070B5C37F04460E461546CBB1837F991880
:1029C800037F994201D9FFF7B5FFA36923B9012213
:1029D80062601D46284670BD607F2A46184431460D
:1029E80000F004F9637F2B44DBB26377A377F1E748
:1029F80092B2243000F038F8002818BF0025E9E723
:102A080000214FF47A72C0E90112054A0260054AB2
:102A1800D18DA0F88010928DA0F88220704700BF59
:102A2800EC300008BE2F0008836923B1027F002123
:102A3800184600F0E9B87047002110B50446417502
:102A48008175006910B1227D00F0DEF800236377FC
:102A5800A3772046FFF7E8FF10BD00000148FFF705
:102A6800CFBF00BF381A0020202A30B50ED8002367
:102A78009CB2A24204D8D2B280F89020002030BD87
:102A8800C418CD5C84F870500133F1E70120F6E7F3
:102A9800C3689A4210B504461DD179B9836E80F88F
:102AA8008D100BB10438984794F88C2004F16C0110
:102AB80020462023BDE81040FEF71CB80023012261
:102AC800036680F88D20016E0144BDE810400423A0
:102AD8006C31FEF74AB810BD10B590F88D30012B57
:102AE800044604D1036E13B1436E04389847022399
:102AF80084F88D30002323662046BDE81040FEF799
:102B08006FB8036E1F2BDEBF036E0133036690F8A8
:102B18008D30012BDAB205D1016E014404236C31EA
:102B2800FEF723B87047002380F88C30704790F880
:102B38008E300BB9FEF754B870470000014B186887
:102B4800FEF756B9F81A0020014B1868FEF756BD73
:102B5800F81A0020014B5868FEF74AB9F81A002005
:102B6800014B5868FEF74ABDF81A0020014B9868D7
:102B7800FEF73EB9F81A0020014B9868FEF73EBDF3
:102B8800F81A002008B5062000F030F90120FFF7F8
:102B98008FFC000070B50D4D0D4C641BA410002671
:102BA800A64209D10B4D0C4C00F080F9641BA4100F
:102BB8000026A64205D170BD55F8043B984701365A
:102BC800EEE755F8043B98470136F2E77431000800
:102BD80074310008743100088C310008024B01463A
:102BE800186800F019B800BF100000200A4491428C
:102BF80000F1FF3300D1704710B511F8014B03F80D
:102C0800014F9142F9D110BD02440346934200D1CD
:102C1800704703F8011BF9E737B5002948D051F888
:102C2800043C0190002BA1F10404B8BFE41800F0A3
:102C380003F9204A01981368154633B96360146094
:102C480003B0BDE8304000F0FDB8A3420BD92168BD
:102C58006218934204BF1A685B68636004BF521825
:102C680022602C60ECE71A465B680BB1A342FAD9E4
:102C780011685518A5420BD1246821445418A34261
:102C88001160DDD11C685B68536021441160D7E78F
:102C980002D90C230360D3E7256861198B4204BF6E
:102CA80019685B68636004BF491921605460C7E70D
:102CB80003B030BD041B0020F8B5CD1C25F003057A
:102CC80008350C2D38BF0C25002D064601DBA9421E
:102CD80003D90C2333600020F8BD00F0ADF821497A
:102CE8000A6814469CB9204F3B6823B921463046F0
:102CF80000F044F838602946304600F03FF8431C9D
:102D080023D10C233360304600F09CF8E3E72368B6
:102D18005B1B17D40B2B03D923601C44256004E0EC
:102D28006368A2420CBF0B605360304600F08AF81B
:102D380004F10B00231D20F00700C21ACCD01B1A87
:102D4800A350C9E722466468CCE7C41C24F00304F6
:102D5800A042E3D0211A304600F010F80130DDD14E
:102D6800CFE700BF041B0020081B0020024B0A46C7
:102D78000146186800F06CB81000002038B5064D00
:102D88000023044608462B60FFF774FB431C02D15E
:102D98002B6803B1236038BD101B00201F2938B5EC
:102DA80004460D4604D9162303604FF0FF3038BDA2
:102DB800426C12B152F821304BB9204600F030F87D
:102DC8002A4601462046BDE8384000F017B8012BD6
:102DD8000AD0591C03D1162303600120E7E7002419
:102DE80042F82540284698470020E0E7024B014674
:102DF8001868FFF7D3BF00BF1000002038B5074D93
:102E080000230446084611462B60FFF753FB431C7A
:102E180002D12B6803B1236038BD00BF101B00200E
:102E2800FFF750BB034611F8012B03F8012B002ACA
:102E3800F9D17047704770470148FFF7FBBF00BFE3
:102E4800181B00200148FFF7F6BF00BF181B002021
:102E5800F8B5074614460E4621B9BDE8F8401146B4
:102E6800FFF72ABF22B9FFF7D7FE25462846F8BD47
:102E780000F014F8A0420FD221463846FFF71CFF95
:102E880005460028F2D031462246FFF7AFFE31460C
:102E98003846FFF7C1FEE9E73546E7E751F8043C55
:102EA800181F002BBCBF0B58C0187047F8B500BFDF
:102EB800F8BC08BC9E467047F8B500BFF8BC08BC13
:042EC8009E4670476B
:102ECC000300000000440040120700000A0000004C
:102EDC0000100140120700000C000000001401401B
:102EEC00120800001300000000100140120700003F
:102EFC00170000000010014012070000FFFF000047
:102F0C00000000000000000002000000004400402F
:102F1C001207000009000000001001401207000019
:102F2C000B00000000140140120800000F0000000C
:102F3C0000100140120700001600000000100140B4
:102F4C0012070000FFFF000000000000000000005E
:102F5C00433A5C55736572735C457465726E5C2E96
:102F6C00706C6174666F726D696F5C7061636B61BC
:102F7C006765735C6672616D65776F726B2D6172DC
:102F8C006475696E6F737473746D33325C766172D1
:102F9C0069616E74735C47656E657269635F463414
:102FAC00313143785C76617269616E742E63707036
:102FBC0000000000010002000300040005000600F0
:102FCC000700080009000A000B000C000D000E00A1
:102FDC000F00100011001200130014001500160051
:102FEC001700180019001A001C001D001E001F00FD
:102FFC002D002E002F00500051000000000000009A
:10300C0000000000B9030008A10600088D030008A9
:10301C00010500089D03000819040008ED060008CE
:10302C000F070008433A5C55736572735C45746511
:10303C00726E5C2E706C6174666F726D696F5C7011
:10304C0061636B616765735C6672616D65776F72E6
:10305C006B2D61726475696E6F737473746D33323A
:10306C005C636F7265735C61726475696E6F5C48EA
:10307C006172647761726554696D65722E637070EC
:10308C000000000000000000000102030406070815
:10309C000966684153353465355838484C35776383
:1030AC006142365A5737346F4133766F3D002B38B7
:1030BC00363133333834303039323938004E6F20B2
:1030CC00656E6F756768206D656D6F72792120284C
:1030DC002569290A00000000000000000000000023
:1030EC0069290008B9290008072900080F290008D8
:1030FC0029290008412A0008ED0600080F070008DE
:10310C0000000000000000000000000000000000B3
:10311C0000000000000000000000000000000000A3
:10312C000000000000000000000000000000000093
:10313C000000000000000000000000000000000083
:10314C000000000000000000000000000000000073
:10315C000000000000000000000000000000000063
:08316C00D0F4FF7F0100000018
:103174001108000801020008310500087D2100083B
:08318400D9240008652A0008A7
:0C318C00DD0100080522000819260008DB
:1031980001000000100000000024F400201B0020A3
:1031A80014000020000000002C3100084C310008F9
:1031B8000C310008000000000000000000000000C2
:1031C80000000000000000000000000000000000F7
:1031D80000000000000000000000000000000000E7
:1031E80000000000000000000000000000000000D7
:1031F80000000000000000000000000000000000C7
:0432080000000000C2
:0400000508000835B2
:00000001FF
