:020000040800F2
:1000000000000220191D0008151B00081B1B00081A
:10001000211B0008271B00082D1B00080000000002
:10002000000000000000000000000000331B00087A
:10003000411B0008000000004F1B00085D1B00086A
:10004000691D0008691D0008691D0008691D000878
:10005000691D0008691D0008691D0008691D000868
:10006000691D0008691D0008691D0008691D000858
:10007000691D0008691D0008691D0008691D000848
:10008000691D0008691D0008691D000800000000C6
:10009000000000000000000000000000691D0008D2
:1000A000691D0008691D0008691D0008691D000818
:1000B000691D0008691D0008691D0008691D000808
:1000C000691D0008691D0008691D0008691D0008F8
:1000D000691D0008691B00087D1B00080000000066
:1000E000691D0008691D0008691D00080000000066
:1000F000000000000000000000000000691D000872
:1001000000000000691D0008691D0008691D000845
:1001100000000000000000000000000000000000DF
:10012000691D0008691D0008691D0008691D000897
:10013000691D000800000000000000000000000031
:10014000000000000000000000000000691D000821
:10015000691D0008691D0008691D0008911B000841
:10016000691D0008691D0008000000000000000073
:10017000000000000000000000000000000000007F
:1001800000000000691D00080000000000000000E1
:08019000691D0008691D00084B
:1001A00010B5054C237833B9044B13B10448AFF3B1
:1001B00000800123237010BDDC010020000000003E
:1001C0008465000808B5034B1BB103490348AFF32E
:1001D000008008BD00000000E001002084650008E8
:1001E000034613F8012B002AFBD1181A0138704777
:1001F00001F0FF01102A2BDB10F0070F08D010F8D8
:10020000013B013A8B422DD010F0070F42B3F6D1DB
:10021000F0B441EA012141EA014122F007047FF0F4
:1002200000070023F0E80256083C85EA010586EA4B
:10023000010685FA47F5A3FA87F586FA47F6A5FA87
:1002400087F68EB9EED1F0BC01F0FF0102F0070293
:1002500032B110F8013B013A83EA010313B1F8D13E
:100260000020704701387047002D06BF354603381F
:10027000073815F0010F07D1013015F4807F02BF58
:10028000013015F4C03F0130F0BC0138704700BFA9
:1002900081F0004102E000BF83F0004330B54FEA37
:1002A00041044FEA430594EA050F08BF90EA020FA4
:1002B0001FBF54EA000C55EA020C7FEA645C7FEA37
:1002C000655C00F0E2804FEA5454D4EB5555B8BF5A
:1002D0006D420CDD2C4480EA020281EA030382EACB
:1002E000000083EA010180EA020281EA0303362D5D
:1002F00088BF30BD11F0004F4FEA01314FF4801C30
:100300004CEA113102D0404261EB410113F0004F41
:100310004FEA03334CEA133302D0524263EB4303F8
:1003200094EA050F00F0A780A4F10104D5F1200E96
:100330000DDB02FA0EFC22FA05F2801841F10001F1
:1003400003FA0EF2801843FA05F359410EE0A5F1C5
:1003500020050EF1200E012A03FA0EFC28BF4CF0F6
:10036000020C43FA05F3C01851EBE37101F00045AC
:1003700007D54FF0000EDCF1000C7EEB00006EEBB9
:100380000101B1F5801F1BD3B1F5001F0CD3490843
:100390005FEA30004FEA3C0C04F101044FEA44529A
:1003A00012F5800F80F09A80BCF1004F08BF5FEA21
:1003B000500C50F1000041EB045141EA050130BD01
:1003C0005FEA4C0C404141EB010111F4801FA4F1A4
:1003D0000104E9D191F0000F04BF01460020B1FAF9
:1003E00081F308BF2033A3F10B03B3F120020CDA31
:1003F0000C3208DD02F1140CC2F10C0201FA0CF00F
:1004000021FA02F10CE002F11402D8BFC2F1200C73
:1004100001FA02F120FA0CFCDCBF41EA0C01904029
:10042000E41AA2BF01EB0451294330BD6FEA040472
:100430001F3C1CDA0C340EDC04F11404C4F120025D
:1004400020FA04F001FA02F340EA030021FA04F36F
:1004500045EA030130BDC4F10C04C4F1200220FAC6
:1004600002F001FA04F340EA0300294630BD21FA04
:1004700004F0294630BD94F0000F83F4801306BFCA
:1004800081F480110134013D4EE77FEA645C18BFBE
:100490007FEA655C29D094EA050F08BF90EA020F55
:1004A00005D054EA000C04BF1946104630BD91EA4D
:1004B000030F1EBF0021002030BD5FEA545C05D150
:1004C0004000494128BF41F0004130BD14F580048F
:1004D0003CBF01F5801130BD01F0004545F0FE4103
:1004E00041F470014FF0000030BD7FEA645C1ABF38
:1004F000194610467FEA655C1CBF0B46024650EA6F
:10050000013406BF52EA033591EA030F41F400219A
:1005100030BD00BF90F0000F04BF0021704730B520
:100520004FF4806404F132044FF000054FF00001F5
:1005300050E700BF90F0000F04BF0021704730B5B6
:100540004FF4806404F1320410F0004548BF40428B
:100550004FF000013EE700BF42004FEAE2014FEAE0
:1005600031014FEA02701FBF12F07F4393F07F4FBB
:1005700081F06051704732F07F4208BF704793F0BE
:100580007F4F04BF41F40021704730B54FF46074D1
:1005900001F0004521F000411CE700BF50EA0102D4
:1005A00008BF704730B54FF000050AE050EA01027D
:1005B00008BF704730B511F0004502D5404261EBED
:1005C00041014FF4806404F132045FEA915C3FF42E
:1005D000D8AE4FF003025FEADC0C18BF03325FEACB
:1005E000DC0C18BF033202EBDC02C2F1200300FA7C
:1005F00003FC20FA02F001FA03FE40EA0E0021FAA1
:1006000002F11444BDE600BF70B54FF0FF0C4CF48E
:10061000E06C1CEA11541DBF1CEA135594EA0C0F40
:1006200095EA0C0F00F0DEF82C4481EA030621EA7B
:100630004C5123EA4C5350EA013518BF52EA0335B6
:1006400041F4801143F4801338D0A0FB02CE4FF068
:100650000005E1FB02E506F00042E0FB03E54FF098
:100660000006E1FB03569CF0000F18BF4EF0010E90
:10067000A4F1FF04B6F5007F64F5407404D25FEA8C
:100680004E0E6D4146EB060642EAC62141EA55513F
:100690004FEAC52040EA5E504FEACE2EB4F1FD0C81
:1006A00088BFBCF5E06F1ED8BEF1004F08BF5FEAFF
:1006B000500E50F1000041EB045170BD06F00046B1
:1006C00046EA010140EA020081EA0301B4EB5C045E
:1006D000C2BFD4EB0C0541EA045170BD41F4801156
:1006E0004FF0000E013C00F3AB8014F1360FDEBF7B
:1006F000002001F0004170BDC4F10004203C35DA57
:100700000C341BDC04F11404C4F1200500FA05F3D9
:1007100020FA04F001FA05F240EA020001F000427A
:1007200021F0004110EBD37021FA04F642EB0601F0
:100730005EEA430E08BF20EAD37070BDC4F10C041A
:10074000C4F1200500FA04F320FA05F001FA04F2DE
:1007500040EA020001F0004110EBD37041F10001CA
:100760005EEA430E08BF20EAD37070BDC4F12005D5
:1007700000FA05F24EEA020E20FA04F301FA05F23D
:1007800043EA020321FA04F001F0004121FA04F2E5
:1007900020EA020000EBD3705EEA430E08BF20EAB5
:1007A000D37070BD94F0000F0FD101F000464000EF
:1007B00041EB010111F4801F08BF013CF7D041EA71
:1007C000060195F0000F18BF704703F00046520075
:1007D00043EB030313F4801F08BF013DF7D043EA46
:1007E0000603704794EA0C0F0CEA135518BF95EAFC
:1007F0000C0F0CD050EA410618BF52EA4306D1D183
:1008000081EA030101F000414FF0000070BD50EAA1
:10081000410606BF1046194652EA430619D094EA2B
:100820000C0F02D150EA013613D195EA0C0F05D115
:1008300052EA03361CBF104619460AD181EA030169
:1008400001F0004141F0FE4141F470014FF0000021
:1008500070BD41F0FE4141F4780170BD70B54FF0BC
:10086000FF0C4CF4E06C1CEA11541DBF1CEA13553C
:1008700094EA0C0F95EA0C0F00F0A7F8A4EB05041E
:1008800081EA030E52EA03354FEA013100F0888015
:100890004FEA03334FF0805545EA131343EA1263DE
:1008A0004FEA022245EA111545EA10654FEA002693
:1008B0000EF000419D4208BF964244F1FD0404F54C
:1008C000407402D25B084FEA3202B61A65EB0305A8
:1008D0005B084FEA32024FF480104FF4002CB6EB65
:1008E000020E75EB030E22BFB61A754640EA0C00E5
:1008F0005B084FEA3202B6EB020E75EB030E22BF25
:10090000B61A754640EA5C005B084FEA3202B6EB65
:10091000020E75EB030E22BFB61A754640EA9C0024
:100920005B084FEA3202B6EB020E75EB030E22BFF4
:10093000B61A754640EADC0055EA060E18D04FEAB2
:10094000051545EA16754FEA06164FEAC30343EA52
:1009500052734FEAC2025FEA1C1CC0D111F4801F1F
:100960000BD141EA00014FF000004FF0004CB6E718
:1009700011F4801F04BF01430020B4F1FD0C88BFB7
:10098000BCF5E06F3FF6AFAEB5EB030C04BFB6EBC2
:10099000020C5FEA500C50F1000041EB045170BDB5
:1009A0000EF0004E4EEA113114EB5C04C2BFD4EBE2
:1009B0000C0541EA045170BD41F480114FF0000E66
:1009C000013C90E645EA060E8DE60CEA135594EAE2
:1009D0000C0F08BF95EA0C0F3FF43BAF94EA0C0FE5
:1009E0000AD150EA01347FF434AF95EA0C0F7FF45A
:1009F00025AF104619462CE795EA0C0F06D152EAAE
:100A000003353FF4FDAE1046194622E750EA410691
:100A100018BF52EA43067FF4C5AE50EA41047FF4A2
:100A20000DAF52EA43057FF4EBAE12E74FF0FF3C07
:100A300006E000BF4FF0010C02E000BF4FF0010CD8
:100A40004DF804CD4FEA410C7FEA6C5C4FEA430C51
:100A500018BF7FEA6C5C1BD001B050EA410C0CBFA0
:100A600052EA430C91EA030F02BF90EA020F002002
:100A7000704710F1000F91EA030F58BF994208BF69
:100A800090422CBFD8176FEAE37040F00100704726
:100A90004FEA410C7FEA6C5C02D150EA013C07D17D
:100AA0004FEA430C7FEA6C5CD6D152EA033CD3D0C8
:100AB0005DF8040B704700BF8446104662468C46C2
:100AC0001946634600E000BF01B5FFF7B7FF0028F5
:100AD00048BF10F1000F01BD4DF808EDFFF7F4FF1E
:100AE0000CBF012000205DF808FB00BF4DF808EDA9
:100AF000FFF7EAFF34BF012000205DF808FB00BFCC
:100B00004DF808EDFFF7E0FF94BF012000205DF8ED
:100B100008FB00BF4DF808EDFFF7CEFF94BF0120A2
:100B200000205DF808FB00BF4DF808EDFFF7C4FF9B
:100B300034BF012000205DF808FB00BF4FEA410CE4
:100B40007FEA6C5C02D150EA013C0AD14FEA430CC7
:100B50007FEA6C5C02D152EA033C02D14FF0000004
:100B600070474FF0010070474FEA410212F5001242
:100B700015D211D56FF47873B3EB625212D94FEAE4
:100B8000C12343F0004343EA505311F0004F23FACE
:100B900002F018BF404270474FF00000704750EA23
:100BA000013005D111F0004008BF6FF000407047E0
:100BB0004FF00000704700BF53B94AB9002908BF81
:100BC00000281CBF4FF0FF314FF0FF3000F072B92A
:100BD000ADF1080C6DE904CE00F006F8DDF804E094
:100BE000DDE9022304B070472DE9F047089E044672
:100BF0008846002B4BD18A42154667D9B2FA82F259
:100C00004AB1C2F1200701FA02F320FA07F7954032
:100C100047EA030894404FEA154E230CB8FBFEF751
:100C20001FFA85FC0EFB178843EA084307FB0CF10B
:100C3000994209D9EB1807F1FF3080F01B819942E6
:100C400040F21881023F2B445B1AA4B2B3FBFEF0C2
:100C50000EFB103344EA034400FB0CFCA44509D905
:100C60002C1900F1FF3380F00781A44540F2048184
:100C700002382C4440EA0740A4EB0C0400271EB1C4
:100C8000D4400023C6E900433946BDE8F0878B42D3
:100C900009D9002E00F0EB800027C6E90001384694
:100CA0003946BDE8F087B3FA83F7002F47D18B426E
:100CB00002D3824200F2FA80841A61EB030301201E
:100CC0009846002EE0D0C6E90048DDE702B9FFDE15
:100CD000B2FA82F2002A40F08F80491B4FEA154E8B
:100CE0001FFA85F80127B1FBFEFC230C0EFB1C113B
:100CF00043EA014308FB0CF1994207D9EB180CF1C8
:100D0000FF3002D2994200F2CD808446591AA3B234
:100D1000B1FBFEF00EFB101443EA044408FB00F89C
:100D2000A04507D92C1900F1FF3302D2A04500F2EB
:100D3000B6801846A4EB080440EA0C409FE7C7F1D0
:100D4000200CBB4022FA0CFE4EEA030E01FA07F417
:100D500020FA0CF521FA0CF34FEA1E482543B3FBA9
:100D6000F8F92C0C08FB19331FFA8EFA44EA0343F6
:100D700009FB0AF49C4202FA07F200FA07F10BD9C8
:100D80001EEB030309F1FF3080F087809C4240F2A4
:100D90008480A9F1020973441B1BADB2B3FBF8F0C8
:100DA00008FB103345EA034400FB0AFAA24508D9C0
:100DB0001EEB040400F1FF336BD2A24569D902385F
:100DC000744440EA0940A0FB0289A4EB0A044C45A4
:100DD000C2464B4654D351D0002E69D0B1EB0A0520
:100DE00064EB030404FA0CFCFD40FC404CEA0505EE
:100DF000C6E90054002747E7C2F1200320FA03F7B1
:100E0000954001FA02F021FA03F34FEA154E3843F8
:100E1000010CB3FBFEF71FFA85F80EFB173341EA0E
:100E2000034107FB08F38B4204FA02F407D969185F
:100E300007F1FF3C2FD28B422DD9023F2944CB1A18
:100E400081B2B3FBFEF00EFB103341EA034100FB1D
:100E500008F38B4207D9691800F1FF3C17D28B4287
:100E600015D902382944C91A40EA07473BE73746F3
:100E7000304609E70746E7E61846FBE64145ABD2B0
:100E8000B8EB020A69EB0E0201381346A4E760468C
:100E9000E9E7184695E76746D1E781467CE70238DF
:100EA0002C4447E7ACF1020C2B442FE7384608E707
:100EB0003746E9E6704700BF80B485B000AF786080
:100EC0000B46FB707B68FB6017E07B681B782A2B66
:100ED00007D07B681B781F2B03D97B681B787A2B84
:100EE00001D9FF2310E07B681B782C2B02D1FB7803
:100EF000013BFB707B6801337B60FB78002BE4D106
:100F00007A68FB68D31ADBB218461437BD465DF821
:100F1000047B704780B485B000AF03460A46FB717E
:100F20001346BB710123FB6011E0BB7903F00103A1
:100F3000002B04D0FA79FB6802FB03F3FB60FA791B
:100F4000FB7912FB03F3FB71BB795B08BB71BB79C7
:100F5000002BEAD1FB6818461437BD465DF8047BC8
:100F6000704780B588B000AF786039607B68FB61FE
:100F70000023BB6100237B610023FB740023BB744F
:100F800000233B74FB691B782D2B06D13B7C43F07F
:100F900002033B74FB690133FB61FB691B782C2B5B
:100FA0002CD0FB691B782A2B28D0FB691B782E2BB1
:100FB00007D13B7C43F001033B74FB690133FB61C8
:100FC0000CE0FB691B78392B03D8FB691B782F2BAE
:100FD00004D80023BB74BB7CFB740FE03B7C03F0A4
:100FE0000103002B03D0BB7C0133BB7402E0FB7C0C
:100FF0000133FB74FB690133FB61C3E73B7C03F006
:101000000203002B02D07B6801337B6000237B74DA
:1010100019E0FA7C7B7CD31ADBB2013BDBB21946C8
:101020000A20FFF777FF01467B7C7A6813441B7820
:1010300083F03003DBB203FB01F3BA691344BB61F5
:101040007B7C01337B747A7CFB7C9A42E1D3BB7C52
:10105000052B01D90523BB743B68BA7C1A700023A9
:101060007B741CE0BA7C7B7CD31ADBB2013BDBB225
:1010700019460A20FFF74EFF0146FA7C7B7C134499
:1010800001337A6813441B7883F03003DBB203FB2F
:1010900001F37A6913447B617B7C01337B747A7C36
:1010A000BB7C9A42DED3BB7C19460A20FFF732FF95
:1010B0000246BB6903FB02F27B691344FB603B7C85
:1010C00003F00203002B02D0FB685B4200E0FB68E8
:1010D00018462037BD4680BD90B52DED028B89B0F6
:1010E00000AF786039607249386803F07DFBF861C1
:1010F0000321F869FFF7E0FE0346FB76FB7EFF2B3A
:1011000054D0FB7EFA69134407F10F0211461846CA
:10111000FFF727FF03467B61FB7B0233DBB21946F7
:101120000A20FFF7F7FE02467B69B3FBF2F27B6809
:101130001A60FB7B0233DBB219460A20FFF7EAFE96
:1011400002467B69B3FBF2F102FB01F29B1A07EE48
:10115000903AF8EE677AC7ED047A7B681C6805213F
:101160000A20FFF7D7FE034603FB04F307EE903A8D
:10117000B8EE678AFB7BC3F10503DBB219460A2090
:10118000FFF7C8FE07EE900AB8EE677AD7ED047A4B
:1011900027EE277ADFED476AC7EE267A78EE277AC0
:1011A000FCEEE77A17EE902A7B681A600421F86952
:1011B000FFF782FE0346FB76FB7EFF2B05D0FB7E0E
:1011C000FA6913441A787B681A710521F869FFF7E8
:1011D00073FE0346FB76FB7EFF2B54D0FB7EFA6941
:1011E000134407F10F0211461846FFF7BAFE0346F3
:1011F0007B61FB7B0233DBB219460A20FFF78AFED4
:1012000002467B69B3FBF2F27B689A60FB7B023398
:10121000DBB219460A20FFF77DFE02467B69B3FB6D
:10122000F2F102FB01F29B1A07EE903AF8EE677AB0
:10123000C7ED047A7B689C6805210A20FFF76AFEE7
:10124000034603FB04F307EE903AB8EE678AFB7B94
:10125000C3F10503DBB219460A20FFF75BFE07EE78
:10126000900AB8EE677AD7ED047A27EE277ADFED99
:10127000116AC7EE267A78EE277AFCEEE77A17EE47
:10128000902A7B689A600621F869FFF715FE0346ED
:10129000FB76FB7EFF2B05D0FB7EFA6913441A78A0
:1012A0007B681A7300BF2437BD46BDEC028B90BD2E
:1012B000A06500080000704280B586B000AF3B1DFD
:1012C00000221A605A609A60DA601A6100233B605B
:1012D000114B1B6B104A43F0040313630E4B1B6B43
:1012E00003F004033B603B6801224FF400510B48BC
:1012F00001F086F84FF400537B600123BB600023AC
:10130000FB6002233B613B1D1946044800F0F6FEDA
:1013100000BF1837BD4680BD0038024000080240BB
:1013200098B500AF04464FF40051094801F081F828
:101330002346184600F08CFD4FF40051044801F09C
:1013400078F82346184600F083FD00BF98BD00BF23
:101350000008024080B586B000AF3B1D00221A6035
:101360005A609A60DA601A6100233B602A4B1B6B5B
:10137000294A43F001031363274B1B6B03F001035E
:101380003B603B6801228021244801F039F80122AA
:101390004021224801F034F8012220211F4801F0A9
:1013A0002FF880237B600123BB600023FB600223B6
:1013B0003B613B1D1946194800F0A0FE0022802128
:1013C000164801F01DF840237B600123BB60002319
:1013D000FB6002233B613B1D1946104800F08EFE66
:1013E000002240210D4801F00BF820237B600123EF
:1013F000BB600023FB6002233B613B1D194607488D
:1014000000F07CFE00222021044800F0F9FF00BF1C
:101410001837BD4680BD00BF0038024000000240C2
:1014200080B500AF4FF47A7000F012FD01228021E8
:10143000124800F0E5FF01224021104800F0E0FFD3
:10144000012220210D4800F0DBFF4FF47A7000F0FC
:10145000FFFC00228021094800F0D2FF0022402139
:10146000064800F0CDFF00222021044800F0C8FF0C
:101470004FF47A7000F0ECFC00BF80BD0000024029
:1014800080B582B000AF7860391D4FF6FF7301223E
:10149000034801F0AAFD7B6818460837BD4680BDA9
:1014A0005006002080B500AF4FF47A721A491B48ED
:1014B00001F034FE1A4B1B681946194B9B681A46FB
:1014C000184803F015F914491548FFF705FE144BA9
:1014D0001B681946124B9B681A46134803F008F91B
:1014E0000F4B9B6807EE903AB8EE677ADFED0F6A14
:1014F000C7EE267A0E4BC3ED007A094B1B6807EE48
:10150000903AB8EE677ADFED096AC7EE267A084BA3
:10151000C3ED017A00BF80BDF8010020D80600208D
:1015200040060020A8650008C86500080050C347B1
:1015300090060020F0B583B002AF00F017FC00F079
:101540005DF800F065F900F0B7F800F00DF900F073
:1015500035F900F0DFF801221F49204801F0DEFDD7
:10156000FFF7F8FEFFF7A8FEFFF75AFF1C4803F04D
:1015700033F91C4C2046FEF7EFFF03460C461A4693
:101580002346194803F0B4F8184C2046FEF7E4FF50
:1015900003460C461A462346154803F0A9F8FFF700
:1015A00081FF144B1B681846FEF7D6FF05460E4612
:1015B000104B5B681846FEF7CFFF03460C46CDE99B
:1015C00000342A4633460C4803F092F84FF4FA6090
:1015D00000F03EFCE3E700BFF8010020D806002041
:1015E000E86500082B07E54204660008ECF9EF44C3
:1015F00018660008900600202066000880B594B0A8
:1016000000AF07F1200330220021184602F00CFC45
:1016100007F10C0300221A605A609A60DA601A61BE
:101620000023BB60224B1B6C214A43F080531364A0
:101630001F4B1B6C03F08053BB60BB6800237B60B7
:101640001C4B1B681B4A43F440431360194B1B6837
:1016500003F440437B607B6802233B620123FB620F
:1016600010233B630023BB6307F12003184601F0FE
:1016700033F80346002B01D000F00AF90F23FB607A
:1016800000233B6100237B610023BB610023FB61DE
:1016900007F10C030021184601F08EFA0346002BD7
:1016A00001D000F0F5F800BF5037BD4680BD00BF47
:1016B000003802400070004080B500AF124B134A62
:1016C0001A60114B124A5A600F4B00229A600E4B5F
:1016D0000022DA600C4B4FF480421A610A4B002260
:1016E0005A61094B00229A61074B0022DA61064BCE
:1016F00000221A62044800F0B7FE0346002B01D016
:1017000000F0C6F800BF80BDEC050020005400408A
:10171000A086010080B500AF114B124A1A60104B31
:101720004FF4E1325A600E4B00229A600C4B0022BB
:10173000DA600B4B00221A61094B0C225A61084BEC
:1017400000229A61064B0022DA61054801F000FC94
:101750000346002B01D000F09BF800BF80BD00BF06
:10176000500600200010014080B500AF114B124A16
:101770001A60104B4FF416525A600E4B00229A60BA
:101780000C4B0022DA600B4B00221A61094B0C2231
:101790005A61084B00229A61064B0022DA61054823
:1017A00001F0D6FB0346002B01D000F071F800BF1A
:1017B00080BD00BFD80600200044004080B500AFC7
:1017C000114B124A1A60104B4FF4E1325A600E4B23
:1017D00000229A600C4B0022DA600B4B00221A6147
:1017E000094B0C225A61084B00229A61064B0022D9
:1017F000DA61054801F0ACFB0346002B01D000F094
:1018000047F800BF80BD00BF9806002000140140CB
:1018100080B588B000AF07F10C0300221A605A604F
:101820009A60DA601A610023BB60174B1B6B164A83
:1018300043F001031363144B1B6B03F00103BB6004
:10184000BB6800237B60104B1B6B0F4A43F0020305
:1018500013630D4B1B6B03F002037B607B684FF43B
:101860000043FB6002233B6100237B610023BB61DB
:101870000123FB6107F10C031946044800F03EFC0C
:1018800000BF2037BD4680BD003802400000024046
:1018900080B500AF72B64FF47A70FFF741FDFAE7FA
:1018A00080B483B000AF00237B60104B5B6C0F4AA9
:1018B00043F4804353640D4B5B6C03F480437B60C3
:1018C0007B6800233B60094B1B6C084A43F0805344
:1018D0001364064B1B6C03F080533B603B6800BFF6
:1018E0000C37BD465DF8047B704700BF00380240EE
:1018F00080B58AB000AF786007F1140300221A6047
:101900005A609A60DA601A617B681B68194A9342D0
:101910002BD100233B61184B1B6B174A43F002038A
:101920001363154B1B6B03F002033B613B69C02340
:101930007B611223BB610123FB6103233B62042310
:101940007B6207F1140319460C4800F0D7FB002313
:10195000FB60094B1B6C084A43F400131364064BED
:101960001B6C03F40013FB60FB6800BF2837BD4607
:1019700080BD00BF00540040003802400004024017
:1019800080B58EB000AF786007F1240300221A60A2
:101990005A609A60DA601A617B681B68584A934201
:1019A00035D100233B62574B5B6C564A43F0100322
:1019B0005364544B5B6C03F010033B623B6A00239F
:1019C000FB61504B1B6B4F4A43F0010313634D4BBC
:1019D0001B6B03F00103FB61FB694FF4C0637B6287
:1019E0000223BB620023FB6203233B6307237B6369
:1019F00007F124031946444800F080FB002200212F
:101A0000252000F022FB252000F03BFB73E07B68E3
:101A10001B683E4A934234D10023BB61394B1B6C97
:101A2000384A43F400331364364B1B6C03F4003321
:101A3000BB61BB6900237B61324B1B6B314A43F0B6
:101A4000010313632F4B1B6B03F001037B617B6965
:101A50000C237B620223BB620023FB6203233B63F4
:101A600007237B6307F124031946274800F046FB50
:101A700000220021262000F0E8FA262000F001FBD9
:101A800039E07B681B68224A934234D100233B61D2
:101A90001C4B5B6C1B4A43F020035364194B5B6C7B
:101AA00003F020033B613B690023FB60154B1B6B7C
:101AB000144A43F001031363124B1B6B03F0010341
:101AC000FB60FB684FF4C0537B620223BB620023C0
:101AD000FB6203233B6308237B6307F1240319465E
:101AE000094800F00BFB00220021472000F0ADFA6E
:101AF000472000F0C6FA00BF3837BD4680BD00BFA2
:101B00000010014000380240000002400044004044
:101B10000014014080B400AFFEE780B400AFFEE7E0
:101B200080B400AFFEE780B400AFFEE780B400AF42
:101B3000FEE780B400AF00BFBD465DF8047B704790
:101B400080B400AF00BFBD465DF8047B704780B431
:101B500000AF00BFBD465DF8047B704780B500AFA5
:101B600000F056F900BF80BD80B500AF024801F01B
:101B70002BFB00BF80BD00BF5006002080B500AF2A
:101B8000024801F021FB00BF80BD00BFD806002045
:101B900080B500AF024801F017FB00BF80BD00BF59
:101BA0009806002080B586B000AFF860B9607A6012
:101BB00000237B610AE0AFF300800146BB685A1C3A
:101BC000BA60CAB21A707B6901337B617A697B683B
:101BD0009A42F0DB7B6818461837BD4680BD80B559
:101BE00086B000AFF860B9607A6000237B6109E0DD
:101BF000BB685A1CBA601B781846FFF741FC7B692A
:101C000001337B617A697B689A42F1DB7B68184615
:101C10001837BD4680BD80B483B000AF78604FF008
:101C2000FF3318460C37BD465DF8047B704780B41F
:101C300083B000AF786039603B684FF400525A605F
:101C4000002318460C37BD465DF8047B704780B40E
:101C500083B000AF7860012318460C37BD465DF8AD
:101C6000047B704780B485B000AFF860B9607A60DB
:101C7000002318461437BD465DF8047B704700000A
:101C800080B586B000AF7860144A154BD31A7B61DB
:101C90007B693B61134B1B68002B02D1114B124A2D
:101CA0001A60104B1A687B6813443A699A4207D24B
:101CB00002F090F802460C2313604FF0FF3309E066
:101CC000084B1B68FB60074B1A687B681344054A86
:101CD0001360FB6818461837BD4680BD000002201F
:101CE00000040000E00500202007002080B400AFC1
:101CF000084BD3F88830074A43F47003C2F88830A1
:101D0000044B4FF000629A6000BFBD465DF8047B53
:101D1000704700BF00ED00E0DFF834D0002103E0A1
:101D20000C4B5B58435004310B480C4B42189A4201
:101D3000F6D30B4A02E0002342F8043B094B9A42D7
:101D4000F9D3FFF7D3FF02F04BF8FFF7F3FB70472F
:101D5000000002202869000800000020DC010020AB
:101D6000DC01002020070020FEE7000080B500AF66
:101D70000E4B1B680D4A43F4007313600B4B1B683A
:101D80000A4A43F480631360084B1B68074A43F414
:101D900080731360032000F04DF9002000F008F874
:101DA000FFF77EFD0023184680BD00BF003C0240C7
:101DB00080B582B000AF7860124B1A68124B1B7866
:101DC00019464FF47A73B3FBF1F3B2FBF3F3184601
:101DD00000F065F90346002B01D001230EE07B687B
:101DE0000F2B0AD8002279684FF0FF3000F02DF950
:101DF000064A7B681360002300E001231846083779
:101E0000BD4680BD00000020080000200400002026
:101E100080B400AF064B1B781A46064B1B68134470
:101E2000044A136000BFBD465DF8047B704700BFE5
:101E3000080000201807002080B400AF034B1B6887
:101E40001846BD465DF8047B704700BF18070020A8
:101E500080B584B000AF7860FFF7EEFFB8607B68B4
:101E6000FB60FB68B3F1FF3F05D0094B1B781A46B6
:101E7000FB681344FB6000BFFFF7DEFF0246BB6850
:101E8000D31AFA689A42F7D800BF1037BD4680BD12
:101E90000800002080B485B000AF78607B6803F054
:101EA0000703FB600C4BDB68BB60BA684FF6FF03AF
:101EB0001340BB60FB681A02BB68134343F0BF6367
:101EC00043F40033BB60044ABB68D36000BF1437DF
:101ED000BD465DF8047B704700ED00E080B400AFC4
:101EE000044BDB681B0A03F007031846BD465DF888
:101EF000047B704700ED00E080B483B000AF034680
:101F0000FB7197F90730002B0BDBFB7903F01F0205
:101F1000074997F907305B09012000FA02F241F8FE
:101F2000232000BF0C37BD465DF8047B704700BF1F
:101F300000E100E080B483B000AF03463960FB717C
:101F400097F90730002B0ADB3B68DAB20C4997F9A6
:101F500007301201D2B20B4483F800230AE03B6839
:101F6000DAB20849FB7903F00F03043B1201D2B245
:101F70000B441A7600BF0C37BD465DF8047B7047F2
:101F800000E100E000ED00E080B489B000AFF8604F
:101F9000B9607A60FB6803F00703FB61FB69C3F17A
:101FA0000703042B28BF0423BB61FB690433062B02
:101FB00002D9FB69033B00E000237B614FF0FF3255
:101FC000BB6902FA03F3DA43BB681A407B699A40A3
:101FD0004FF0FF317B6901FA03F3D9437B680B4073
:101FE000134318462437BD465DF8047B7047000054
:101FF00080B582B000AF78607B68013BB3F1807F31
:1020000001D301230FE00A4A7B68013B53600F2193
:102010004FF0FF30FFF78EFF054B00229A60044B14
:1020200007221A60002318460837BD4680BD00BF4E
:1020300010E000E080B582B000AF78607868FFF70C
:1020400029FF00BF0837BD4680BD80B586B000AF10
:102050000346B9607A60FB7300237B61FFF73EFFA4
:1020600078617A68B9687869FFF78EFF024697F958
:102070000F3011461846FFF75DFF00BF1837BD4609
:1020800080BD80B582B000AF0346FB7197F9073081
:102090001846FFF731FF00BF0837BD4680BD80B549
:1020A00082B000AF78607868FFF7A2FF0346184659
:1020B0000837BD4680BD80B483B000AF78607B68D0
:1020C00093F83530DBB2022B04D07B6880225A654E
:1020D00001230CE07B68052283F835207B681B68B0
:1020E0001A687B681B6822F001021A6000231846F8
:1020F0000C37BD465DF8047B7047000080B489B0A2
:1021000000AF7860396000237B6100233B610023CE
:10211000BB610023FB6159E10122FB6902FA03F371
:102120007B613B681B687A6913403B613A697B6954
:102130009A4240F048813B685B68012B0BD03B68BA
:102140005B68022B07D03B685B68112B03D03B68B0
:102150005B68122B30D17B689B68BB61FB695B00BD
:10216000032202FA03F3DB43BA691340BB613B6805
:10217000DA68FB695B0002FA03F3BA691343BB61D7
:102180007B68BA699A607B685B68BB610122FB6906
:1021900002FA03F3DB43BA691340BB613B685B6837
:1021A0001B0903F00102FB6902FA03F3BA69134346
:1021B000BB617B68BA695A607B68DB68BB61FB699D
:1021C0005B00032202FA03F3DB43BA691340BB61ED
:1021D0003B689A68FB695B0002FA03F3BA69134330
:1021E000BB617B68BA69DA603B685B68022B03D02D
:1021F0003B685B68122B23D1FB69DA087B680832E5
:1022000053F82230BB61FB6903F007039B000F22E8
:1022100002FA03F3DB43BA691340BB613B681A69F6
:10222000FB6903F007039B0002FA03F3BA69134347
:10223000BB61FB69DA087B680832B96943F8221090
:102240007B681B68BB61FB695B00032202FA03F336
:10225000DB43BA691340BB613B685B6803F0030270
:10226000FB695B0002FA03F3BA691343BB617B6845
:10227000BA691A603B685B6803F08053002B00F07A
:10228000A2800023FB60564B5B6C554A43F48043AD
:102290005364534B5B6C03F48043FB60FB68514A0F
:1022A000FB699B08023352F82330BB61FB6903F0E2
:1022B00003039B000F2202FA03F3DB43BA691340C6
:1022C000BB617B68484A934219D07B68474A934276
:1022D00013D07B68464A93420DD07B68454A9342AF
:1022E00007D07B68444A934201D1042308E00723C6
:1022F00006E0032304E0022302E0012300E00023C0
:10230000FA6902F0030292009340BA691343BB6179
:102310003449FB699B080233BA6941F82320374BE3
:102320001B68BB613B69DB43BA691340BB613B6817
:102330005B6803F48033002B03D0BA693B69134315
:10234000BB612E4ABB6913602C4B5B68BB613B6968
:10235000DB43BA691340BB613B685B6803F400333D
:10236000002B03D0BA693B691343BB61234ABB69A5
:102370005360224B9B68BB613B69DB43BA691340E6
:10238000BB613B685B6803F48013002B03D0BA6920
:102390003B691343BB61194ABB699360174BDB6808
:1023A000BB613B69DB43BA691340BB613B685B6857
:1023B00003F40013002B03D0BA693B691343BB61DC
:1023C0000E4ABB69D360FB690133FB61FB690F2BCC
:1023D0007FF6A2AE00BF2437BD465DF8047B704790
:1023E0000038024000380140000002400004024072
:1023F00000080240000C024000100240003C014076
:1024000080B483B000AF78600B467B8013467B704E
:102410007B78002B03D07A887B689A6103E07B8805
:102420001A047B689A6100BF0C37BD465DF8047BD7
:10243000704780B483B000AF78600B467B807B68C8
:102440005A697B881A407B889A4204D17B881A0497
:102450007B689A6102E07A887B689A6100BF0C37DA
:10246000BD465DF8047B704780B584B000AF7860EE
:102470007B68002B01D101231FE17B6893F83D307D
:10248000DBB2002B06D17B68002283F83C20786801
:10249000FFF72EFA7B68242283F83D207B681B68B7
:1024A0001A687B681B6822F001021A607B681B684F
:1024B0001A687B681B6842F400421A607B681B68DC
:1024C0001A687B681B6822F400421A6000F018FD4D
:1024D000F8607B685B687B4A934207D8FB687A4A5E
:1024E000934294BF01230023DBB206E0FB68774AE6
:1024F000934294BF01230023DBB2002B01D00123C0
:10250000DBE0FB68724AA2FB03239B0CBB607B6889
:102510001B685B6823F03F017B681B68BA680A434D
:102520005A607B681B681B6A23F03F017B685B680D
:10253000644A934202D8BB68013309E0BB684FF498
:10254000967202FB03F3634AA2FB03239B09013348
:102550007A6812680B4313627B681B68DB6923F49B
:102560004F4222F0FF027B685B6856498B420DD8D0
:10257000FB68591E7B685B685B00B1FBF3F30133BA
:10258000C3F30B03042B38BF04234FE07B689B6825
:10259000002B11D1FB68581E7B6859680B465B0005
:1025A0000B44B0FBF3F30133C3F30B03002B0CBF5D
:1025B00001230023DBB212E0FB68581E7B685968D8
:1025C0000B469B000B4499000B44B0FBF3F3013323
:1025D000C3F30B03002B0CBF01230023DBB2002B42
:1025E00001D0012322E07B689B68002B0ED1FB68A1
:1025F000581E7B6859680B465B000B44B0FBF3F335
:102600000133C3F30B0343F400430FE0FB68581E90
:102610007B6859680B469B000B4499000B44B0FB48
:10262000F3F30133C3F30B0343F4404379680968C0
:102630001343CB617B681B681B6823F0C0017B6878
:10264000DA697B681B6A1A437B681B680A431A6055
:102650007B681B689B6823F4034323F0FF037A68BD
:1026600011697A68D26811437A6812680B439360E3
:102670007B681B68DB6823F0FF017B685A697B6815
:102680009B691A437B681B680A43DA607B681B6896
:102690001A687B681B6842F001021A607B6800229E
:1026A0001A647B68202283F83D207B6800221A632D
:1026B0007B68002283F83E20002318461037BD4671
:1026C00080BD00BFA08601007F841E00FF083D0082
:1026D00083DE1B43D34D621080B586B000AF7860B7
:1026E0007B68002B01D101235BE27B681B6803F050
:1026F0000103002B75D0A34B9B6803F00C03042B44
:102700000CD0A04B9B6803F00C03082B12D19D4BFF
:102710005B6803F48003B3F5800F0BD1994B1B6802
:1027200003F40033002B5BD07B685B68002B57D130
:10273000012336E27B685B68B3F5803F06D1914B9D
:102740001B68904A43F4803313601DE07B685B682C
:10275000B3F5A02F0CD18B4B1B688A4A43F480231E
:102760001360884B1B68874A43F4803313600BE087
:10277000844B1B68834A23F480331360814B1B68AE
:10278000804A23F4802313607B685B68002B13D09E
:10279000FFF752FB386108E0FFF74EFB02463B694A
:1027A000D31A642B01D90323FBE1764B1B6803F496
:1027B0000033002BF0D014E0FFF73EFB386108E057
:1027C000FFF73AFB02463B69D31A642B01D9032376
:1027D000E7E16C4B1B6803F40033002BF0D100E001
:1027E00000BF7B681B6803F00203002B63D0654BBE
:1027F0009B6803F00C03002B0BD0624B9B6803F02B
:102800000C03082B1CD15F4B5B6803F48003002B87
:1028100016D15C4B1B6803F00203002B05D07B68CC
:10282000DB68012B01D00123BBE1564B1B6823F071
:10283000F8027B681B69DB00524913430B603AE0E6
:102840007B68DB68002B20D04F4B01221A60FFF71A
:10285000F3FA386108E0FFF7EFFA02463B69D31A52
:10286000022B01D903239CE1464B1B6803F00203B2
:10287000002BF0D0434B1B6823F0F8027B681B69E8
:10288000DB00404913430B6015E03F4B00221A6008
:10289000FFF7D2FA386108E0FFF7CEFA02463B694B
:1028A000D31A022B01D903237BE1364B1B6803F0BB
:1028B0000203002BF0D17B681B6803F00803002B98
:1028C00030D07B685B69002B16D0304B01221A6038
:1028D000FFF7B2FA386108E0FFF7AEFA02463B694B
:1028E000D31A022B01D903235BE1264B5B6F03F064
:1028F0000203002BF0D015E0244B00221A60FFF7F2
:102900009BFA386108E0FFF797FA02463B69D31A51
:10291000022B01D9032344E11A4B5B6F03F002033E
:10292000002BF0D17B681B6803F00403002B00F040
:10293000A0800023FB75134B1B6C03F08053002B0E
:102940000FD10023BB600F4B1B6C0E4A43F080532A
:1029500013640C4B1B6C03F08053BB60BB680123FA
:10296000FB750B4B1B6803F48073002B21D1084BC4
:102970001B68074A43F480731360FFF75DFA386100
:1029800011E000BF0038024000004742800E47427D
:1029900000700040FFF750FA02463B69D31A022B41
:1029A00001D90323FDE0814B1B6803F48073002BE6
:1029B000F0D07B689B68012B06D17D4B1B6F7C4A56
:1029C00043F0010313671CE07B689B68052B0CD167
:1029D000774B1B6F764A43F004031367744B1B6FEE
:1029E000734A43F0010313670BE0714B1B6F704A8E
:1029F00023F0010313676E4B1B6F6D4A23F0040332
:102A000013677B689B68002B15D0FFF715FA3861B8
:102A10000AE0FFF711FA02463B69D31A41F2883205
:102A2000934201D90323BCE0614B1B6F03F0020307
:102A3000002BEED014E0FFF7FFF938610AE0FFF752
:102A4000FBF902463B69D31A41F28832934201D91D
:102A50000323A6E0564B1B6F03F00203002BEED1BD
:102A6000FB7D012B05D1524B1B6C514A23F0805347
:102A700013647B689B69002B00F092804C4B9B6831
:102A800003F00C03082B5CD07B689B69022B41D1BF
:102A9000484B00221A60FFF7CFF9386108E0FFF7D2
:102AA000CBF902463B69D31A022B01D9032378E004
:102AB0003F4B1B6803F00073002BF0D17B68DA6991
:102AC0007B681B6A1A437B685B6A9B011A437B68BD
:102AD0009B6A5B08013B1B041A437B68DB6A1B068D
:102AE000334913434B60334B01221A60FFF7A4F9BB
:102AF000386108E0FFF7A0F902463B69D31A022BC0
:102B000001D903234DE02A4B1B6803F00073002B0F
:102B1000F0D045E0274B00221A60FFF78DF93861AD
:102B200008E0FFF789F902463B69D31A022B01D965
:102B3000032336E01E4B1B6803F00073002BF0D11B
:102B40002EE07B689B69012B01D1012329E0184B02
:102B50005B68FB60FB6803F480027B68DB699A4278
:102B60001CD1FB6803F03F027B681B6A9A4215D1B7
:102B7000FA6847F6C07313407A68526A93420DD1DF
:102B8000FB6803F440327B689B6A9A4206D1FB687B
:102B900003F070627B68DB6A9A4201D0012300E097
:102BA000002318461837BD4680BD00BF00700040A6
:102BB000003802406000474280B584B000AF7860C2
:102BC00039607B68002B01D10123CCE0684B1B6886
:102BD00003F00F033A689A420CD9654B3A68D2B2B7
:102BE0001A70634B1B6803F00F033A689A4201D0D6
:102BF0000123B8E07B681B6803F00203002B20D0A0
:102C00007B681B6803F00403002B05D0594B9B68BD
:102C1000584A43F4E05393607B681B6803F0080351
:102C2000002B05D0534B9B68524A43F4604393609A
:102C3000504B9B6823F0F0027B689B684D4913431F
:102C40008B607B681B6803F00103002B44D07B681A
:102C50005B68012B07D1474B1B6803F40033002B43
:102C600019D101237FE07B685B68022B03D07B686E
:102C70005B68032B07D13F4B1B6803F00073002BED
:102C800009D101236FE03B4B1B6803F00203002BCB
:102C900001D1012367E0374B9B6823F003027B6877
:102CA0005B68344913438B60FFF7C6F8F8600AE0AD
:102CB000FFF7C2F80246FB68D31A41F2883293420A
:102CC00001D903234FE02B4B9B6803F00C027B6878
:102CD0005B689B009A42EBD1254B1B6803F00F0306
:102CE0003A689A420CD2224B3A68D2B21A70204B00
:102CF0001B6803F00F033A689A4201D0012332E0C7
:102D00007B681B6803F00403002B08D0194B9B68F9
:102D100023F4E0527B68DB68164913438B607B68C1
:102D20001B6803F00803002B09D0124B9B6823F4A7
:102D300060427B681B69DB000E4913438B6000F027
:102D400021F801460B4B9B681B0903F00F030A4A4D
:102D5000D35C21FA03F3094A1360094B1B68184638
:102D6000FFF726F8002318461037BD4680BD00BF88
:102D7000003C02400038024040660008000000208D
:102D800004000020F0B585B000AF00237B60002375
:102D9000FB6000233B600023BB60504B9B6803F04B
:102DA0000C03042B07D0082B08D0002B40F08D809B
:102DB0004B4BBB608CE04B4BBB6089E0474B5B6887
:102DC00003F03F037B60454B5B6803F48003002BFB
:102DD00023D0424B5B689B094FF0000440F2FF1187
:102DE0004FF0000203EA010504EA02063D4A02FB35
:102DF00006F1002202FB05F20A443A49A5FB010153
:102E0000531819467B684FF000041A462346FDF715
:102E1000D3FE03460C46FB6049E0304B5B689B09E0
:102E20004FF0000440F2FF114FF0000203EA0105E9
:102E300004EA0206294632464FF000034FF0000430
:102E4000540144EAD1644B0119462246491B62EB06
:102E500006024FF000034FF00004940144EA91642D
:102E60008B015B1A64EB02044FF000014FF000028B
:102E7000E20042EA5372D9000B4614465B1944EB58
:102E800006044FF000014FF00002A20242EA935202
:102E900099020B461446184621467B684FF0000401
:102EA0001A462346FDF788FE03460C46FB600B4B93
:102EB0005B681B0C03F0030301335B003B60FA68A3
:102EC0003B68B2FBF3F3BB6002E0054BBB6000BFA5
:102ED000BB6818461437BD46F0BD00BF003802403D
:102EE0000024F40040787D0180B400AF034B1B68E0
:102EF0001846BD465DF8047B704700BF0000002007
:102F000080B500AFFFF7F0FF0146054B9B689B0AB9
:102F100003F00703034AD35C21FA03F3184680BD8C
:102F2000003802405066000880B500AFFFF7DCFFB4
:102F30000146054B9B685B0B03F00703034AD35C18
:102F400021FA03F3184680BD00380240506600089D
:102F500080B582B000AF78607B68002B01D101237F
:102F60003FE07B6893F83930DBB2002B06D17B68F9
:102F7000002283F838207868FEF702FD7B6824225F
:102F800083F839207B681B68DA687B681B6822F449
:102F90000052DA60786800F0A1FB7B681B681A6950
:102FA0007B681B6822F490421A617B681B685A692F
:102FB0007B681B6822F02A025A617B681B68DA680A
:102FC0007B681B6842F40052DA607B680022DA6397
:102FD0007B68202283F839207B68202283F83A20FE
:102FE000002318460837BD4680BD80B588B002AFC3
:102FF000F860B9603B601346FB8000237B61FB688F
:1030000093F83930DBB2202B40F08380BB68002B73
:1030100002D0FB88002B01D101237BE0FB6893F8F1
:103020003830012B01D1022374E0FB68012283F8C0
:103030003820FB680022DA63FB68212283F83920FC
:10304000FEF7FAFE7861FB68FA889A84FB68FA88D2
:10305000DA84FB68002283F8382042E0FB68DB8CCE
:103060009BB2013B9AB2FB68DA84FB689B68B3F5BC
:10307000805F22D13B6800937B6900228021F86841
:1030800000F0C0F90346002B01D0032342E0BB68E7
:103090003B613B691B881A46FB681B68C2F3080248
:1030A0005A60FB681B69002B03D1BB680233BB600D
:1030B00017E0BB680133BB6013E03B6800937B699A
:1030C00000228021F86800F09DF90346002B01D012
:1030D00003231FE0BB685A1CBA601A78FB681B68A0
:1030E0005A60FB68DB8C9BB2002BB7D13B68009326
:1030F0007B6900224021F86800F084F90346002B28
:1031000001D0032306E0FB68202283F83920002346
:1031100000E0022318461837BD4680BD80B485B054
:1031200000AFF860B9601346FB80FB6893F83A3053
:10313000DBB2202B40D1BB68002B02D0FB88002BD8
:1031400001D1012339E0FB6893F83830012B01D11C
:10315000022332E0FB68012283F83820FB68BA685A
:103160009A62FB68FA889A85FB68FA88DA85FB68B8
:103170000022DA63FB68222283F83A20FB680022EF
:1031800083F83820FB681B68DA68FB681B6842F428
:103190008072DA60FB681B685A69FB681B6842F042
:1031A00001025A61FB681B68DA68FB681B6842F021
:1031B0002002DA60002300E0022318461437BD46DF
:1031C0005DF8047B7047000080B588B000AF786080
:1031D0007B681B681B68FB617B681B68DB68BB61E5
:1031E0007B681B685B697B6100233B610023FB609C
:1031F000FB6903F00F033B613B69002B0DD1FB69B9
:1032000003F02003002B08D0BB6903F02003002B40
:1032100003D0786800F0E0F9D1E03B69002B00F0C2
:10322000B0807B6903F00103002B05D1BB6903F477
:103230009073002B00F0A580FB6903F00103002BC5
:103240000AD0BB6903F48073002B05D07B68DB6B6D
:1032500043F001027B68DA63FB6903F00403002B8F
:103260000AD07B6903F00103002B05D07B68DB6B80
:1032700043F002027B68DA63FB6903F00203002B70
:103280000AD07B6903F00103002B05D07B68DB6B60
:1032900043F004027B68DA63FB6903F00803002B48
:1032A0000FD0BB6903F02003002B04D17B6903F02E
:1032B0000103002B05D07B68DB6B43F008027B68C1
:1032C000DA637B68DB6B002B78D0FB6903F02003AB
:1032D000002B07D0BB6903F02003002B02D07868D5
:1032E00000F07AF97B681B685B6903F04003402BB0
:1032F0000CBF01230023DBB2FB607B68DB6B03F0B8
:103300000803002B02D1FB68002B31D0786800F055
:10331000C3F87B681B685B6903F04003402B23D133
:103320007B681B685A697B681B6822F040025A61FF
:103330007B685B6B002B13D07B685B6B214A1A6543
:103340007B685B6B1846FEF7B6FE0346002B16D073
:103350007B685B6B1B6D7A68526B104698470EE07A
:10336000786800F045F80AE0786800F041F806E077
:10337000786800F03DF87B680022DA631EE000BF49
:103380001CE0FB6903F08003002B08D0BB6903F04D
:103390008003002B03D0786800F0B0F80FE0FB69E1
:1033A00003F04003002B0AD0BB6903F04003002B5D
:1033B00005D0786800F0F8F800BF00E000BF2037C3
:1033C000BD4680BDD534000880B483B000AF7860BE
:1033D00000BF0C37BD465DF8047B704780B483B0F6
:1033E00000AF786000BF0C37BD465DF8047B7047C6
:1033F00080B483B000AF786000BF0C37BD465DF885
:10340000047B704780B584B000AFF860B9603B6062
:103410001346FB712CE0BB69B3F1FF3F28D0BB69B9
:10342000002B07D0FEF708FD02463B68D31ABA69A5
:103430009A421DD2FB681B68DA68FB681B6822F49D
:10344000D072DA60FB681B685A69FB681B6822F05F
:1034500001025A61FB68202283F83920FB68202290
:1034600083F83A20FB68002283F8382003230FE01A
:10347000FB681B681A68BB681340BA689A420CBFA5
:1034800001230023DBB21A46FB799A42C3D0002302
:1034900018461037BD4680BD80B483B000AF786059
:1034A0007B681B68DA687B681B6822F49072DA60BC
:1034B0007B681B685A697B681B6822F001025A61AD
:1034C0007B68202283F83A2000BF0C37BD465DF8A8
:1034D000047B704780B584B000AF78607B689B6BDD
:1034E000FB60FB680022DA85FB680022DA84F8685A
:1034F000FFF77EFF00BF1037BD4680BD80B485B0AA
:1035000000AF78607B6893F83930DBB2212B44D16F
:103510007B689B68B3F5805F1AD17B681B6AFB6090
:10352000FB681B881A467B681B68C2F308025A6056
:103530007B681B69002B05D17B681B6A9A1C7B6822
:103540001A620EE07B681B6A5A1C7B681A6208E0EC
:103550007B681B6A591C7A6811621A787B681B6841
:103560005A607B68DB8C9BB2013B9BB27A68194640
:10357000D184002B0FD17B681B68DA687B681B68DD
:1035800022F08002DA607B681B68DA687B681B685F
:1035900042F04002DA60002300E0022318461437AC
:1035A000BD465DF8047B704780B582B000AF78609F
:1035B0007B681B68DA687B681B6822F04002DA606F
:1035C0007B68202283F839207868FFF7FDFE00230E
:1035D00018460837BD4680BD80B584B000AF78601E
:1035E0007B6893F83A30DBB2222B71D17B689B6801
:1035F000B3F5805F23D17B689B6AFB607B681B69A6
:10360000002B0ED17B681B685B689BB2C3F3080379
:103610009AB2FB681A807B689B6A9A1C7B689A62E4
:1036200029E07B681B685B689BB2DBB29AB2FB68DF
:103630001A807B689B6A5A1C7B689A621BE07B68D5
:103640001B69002B0AD17B681B6858687B689B6AE2
:10365000591C7A689162C2B21A700CE07B681B68D0
:103660005B68DAB27B689B6A581C7968886202F0F2
:103670007F02D2B21A707B68DB8D9BB2013B9BB29A
:103680007A681946D185002B20D17B681B68DA68DF
:103690007B681B6822F02002DA607B681B68DA68AE
:1036A0007B681B6822F48072DA607B681B685A6949
:1036B0007B681B6822F001025A617B68202283F834
:1036C0003A207868FFF78AFE002302E0002300E03A
:1036D000022318461037BD4680BD00002DE9F04F8B
:1036E00085B000AF78607B681B681B6923F440518C
:1036F0007B68DA687B681B680A431A617B689A6892
:103700007B681B691A437B685B691A437B68DB69CA
:103710001343FB607B681B68DB6823F4164323F0CC
:103720000C037A681268F9680B43D3607B681B68E6
:103730005B6923F440717B689A697B681B680A4364
:103740005A617B68DB69B3F5004F40F08B817B6881
:103750001B68C14A934205D07B681B68BF4A9342ED
:1037600040F0BD80FFF7E0FBB860BB681D464FF03E
:103770000006A846B14618EB080349EB0904984631
:10378000A14618EB050849EB06094FF000014FF080
:1037900000024FEAC90242EA58724FEAC80188465D
:1037A000914618EB050049EB06017B685B681D46F6
:1037B0004FF000066B1946EB06041A462346FDF748
:1037C000FBF903460C461A46A54BA3FB02235B09F3
:1037D0004FEA0318BB681D464FF00006A946B246E3
:1037E00019EB09034AEB0A049946A24619EB0509AD
:1037F0004AEB060A4FF000014FF000024FEACA02FE
:1038000042EA59724FEAC9018946924619EB05000E
:103810004AEB06017B685B681D464FF000066B199A
:1038200046EB06041A462346FDF7C6F903460C4646
:103830001A468B4BA3FB02135B09642101FB03F3C4
:10384000D31ADB003233864AA2FB03235B095B00F9
:1038500003F4F8739844BB681D464FF00006A94670
:10386000B24619EB09034AEB0A049946A24619EB42
:1038700005094AEB060A4FF000014FF000024FEA3B
:10388000CA0242EA59724FEAC9018946924619EBC7
:1038900005004AEB06017B685B681D464FF0000699
:1038A0006B1946EB06041A462346FDF785F90346D5
:1038B0000C461A466A4BA3FB02135B09642101FB09
:1038C00003F3D31ADB003233654AA2FB03235B09FF
:1038D00003F007027B681B6842449A606FE2FFF7BF
:1038E0000FFBB860BB681D464FF00006A846B14606
:1038F00018EB080349EB09049846A14618EB0508A4
:1039000049EB06094FF000014FF000024FEAC902EF
:1039100042EA58724FEAC8018846914618EB050002
:1039200049EB06017B685B681D464FF000066B198A
:1039300046EB06041A462346FDF73EF903460C46BD
:103940001A46474BA3FB02235B094FEA0318BB68E7
:103950001D464FF00006A946B24619EB09034AEB93
:103960000A049946A24619EB05094AEB060A4FF0EC
:1039700000014FF000024FEACA0242EA59724FEAD0
:10398000C9018946924619EB05004AEB06017B689E
:103990005B681D464FF000066B1946EB06041A469D
:1039A0002346FDF709F903460C461A462C4BA3FBA8
:1039B00002135B09642101FB03F3D31ADB003233EA
:1039C000274AA2FB03235B095B0003F4F8739844C6
:1039D000BB681D464FF00006A946B24619EB090325
:1039E0004AEB0A049946A24619EB05094AEB060A76
:1039F0004FF000014FF000024FEACA0242EA59724A
:103A00004FEAC9018946924619EB05004AEB0601C7
:103A10007B685B681D464FF000066B1946EB060499
:103A20001A462346FDF7C8F803460C461A460C4BC7
:103A3000A3FB02135B09642101FB03F3D31ADB0030
:103A40003233074AA2FB03235B0903F007027B68BA
:103A50001B6842449A60B2E100100140001401402A
:103A60001F85EB517B681B68D74A934205D07B6862
:103A70001B68D64A934240F0D180FFF755FAB860F0
:103A8000BB689A464FF0000BD046D94618EB0803A6
:103A900049EB09049846A14618EB0A0849EB0B09C3
:103AA0004FF000014FF000024FEAC90242EA58729B
:103AB0004FEAC801884691461AEB08054BEB090608
:103AC0007B685B6819464FF000024FF000034FF02F
:103AD0000004940044EA91748B001A462346284659
:103AE0003146FDF769F803460C461A46B84BA3FB6E
:103AF00002235B094FEA0318BB689B464FF0000C9A
:103B0000D946E24619EB09034AEB0A049946A24654
:103B100019EB0B094AEB0C0A4FF000014FF00002C1
:103B20004FEACA0242EA59724FEAC90189469246EF
:103B30001BEB09054CEB0A067B685B6819464FF0E6
:103B400000024FF000034FF00004940044EA917427
:103B50008B001A46234628463146FDF72DF80346CA
:103B60000C461A469A4BA3FB02135B09642101FB26
:103B700003F3D31A1B013233954AA2FB03235B09DB
:103B800003F0F0039844BB689B464FF0000CD94605
:103B9000E24619EB09034AEB0A049946A24619EBDF
:103BA0000B094AEB0C0A4FF000014FF000024FEAFC
:103BB000CA0242EA59724FEAC901894692461BEB92
:103BC00009054CEB0A067B685B6819464FF000025A
:103BD0004FF000034FF00004940044EA91748B000E
:103BE0001A46234628463146FCF7E6FF03460C46B4
:103BF0001A46774BA3FB02135B09642101FB03F315
:103C0000D31A1B013233724AA2FB03235B0903F070
:103C10000F027B681B6842449A60D0E0FFF770F99E
:103C2000B860BB689A464FF0000BD046D94618EBF7
:103C3000080349EB09049846A14618EB0A0849EB2A
:103C40000B094FF000014FF000024FEAC90242EAAF
:103C500058724FEAC801884691461AEB08054BEBAB
:103C600009067B685B6819464FF000024FF00003BD
:103C70004FF00004940044EA91748B001A462346E6
:103C800028463146FCF798FF03460C461A46504B2F
:103C9000A3FB02235B094FEA0318BB689B464FF066
:103CA000000CD946E24619EB09034AEB0A0499468F
:103CB000A24619EB0B094AEB0C0A4FF000014FF03A
:103CC00000024FEACA0242EA59724FEAC901894624
:103CD00092461BEB09054CEB0A067B685B681946AC
:103CE0004FF000024FF000034FF00004940044EA4C
:103CF00091748B001A46234628463146FCF75CFF38
:103D000003460C461A46324BA3FB02135B0964219F
:103D100001FB03F3D31A1B0132332D4AA2FB032309
:103D20005B0903F0F0039844BB689B464FF0000C1E
:103D3000D946E24619EB09034AEB0A049946A24622
:103D400019EB0B094AEB0C0A4FF000014FF000028F
:103D50004FEACA0242EA59724FEAC90189469246BD
:103D60001BEB09054CEB0A067B685B6819464FF0B4
:103D700000024FF000034FF00004940044EA9174F5
:103D80008B001A46234628463146FCF715FF0346AA
:103D90000C461A460E4BA3FB02135B09642101FB80
:103DA00003F3D31A1B013233094AA2FB03235B0935
:103DB00003F00F027B681B6842449A60FFE700BF74
:103DC0001437BD46BDE8F08F0010014000140140DB
:103DD0001F85EB51014B1868704700BF0C00002095
:103DE00070B50D4E0D4CA41BA4100025A54209D1A1
:103DF0000B4E0C4C02F0C6FBA41BA4100025A542E0
:103E000005D170BD56F8253098470135EEE756F8D4
:103E1000253098470135F2E720690008206900083D
:103E2000206900082469000802440346934200D137
:103E3000704703F8011BF9E72DE9FF4755EC104BDC
:103E40000D9FDDF830A0002D0E4691461946B8BFF3
:103E500022462B4627F02007BBBF05F100431D4635
:103E600000232D23B8BF1446462F0B7004D0452FD6
:103E700000D10136022100E0032103AB019302AB24
:103E800000933246534645EC104B00F015FE472F89
:103E9000804602D119F0010F26D0462F08EB060903
:103EA00011D198F80030302B0AD10022002320468F
:103EB0002946FCF711FE18B9C6F10106CAF80060E0
:103EC000DAF8003099440022002320462946FCF706
:103ED00003FE38B93022039B4B4505D2591C039190
:103EE0001A70F8E7CDF80C90039B0E9AA3EB080329
:103EF0004046136004B0BDE8F087F7B500290446DA
:103F0000BABF49422D232B23092904F8022B437001
:103F100020DD0DF107031F460A2691FBF6F506FB8F
:103F200015113031092D03F8011C03F1FF32294628
:103F300009DC3031023B02F8011CBB42224604D3AB
:103F4000101A03B0F0BD1346E7E713F8012B04F88D
:103F5000012BF2E7302319448370021DC170EFE793
:103F60002DE9F04F8DB00C46DDF8588016461F46FF
:103F7000054601F0D3FC036804931846FCF730F9BA
:103F800000230A93D8F800300590073323F0070385
:103F900003F1080294F818A0D4F800B0C8F8002083
:103FA000D3E90023C4E91223D4E9128929F000439C
:103FB0000793CDF818804FF0FF32A74BDDE90601DB
:103FC000FCF7BCFD70BB4FF0FF32A34BDDE90601EF
:103FD000FCF796FD30BB0022002340464946FCF723
:103FE00085FD10B12D2384F843309C4A9C4BBAF1D7
:103FF000470F8CBF9046984603232BF004022361A1
:1040000022604FF00009009733460BAA214628464C
:1040100000F0E6F9013040F08D804FF0FF300DB038
:10402000BDE8F08F42464B4640464946FCF786FDC8
:1040300010B18C4A8C4BDAE761684B1C4BF4806200
:104040000AA83ED1062363600023CDE9020309AB31
:10405000009349EC108B0DF123032260CDF804A0EE
:1040600061682846FFF7E8FE0AF0DF03472B804629
:1040700009D1099BD81C02DB6268934247DDAAF193
:10408000020A5FFA8AFABAF1650F099924D8013950
:10409000524604F150000991FFF72FFF0A9A1318B6
:1040A000012A8146236102DC2268D10701D5013350
:1040B00023619DF82330002BA5D02D2384F84330B5
:1040C000A1E7BAF1670F00F07781BAF1470FBBD1D2
:1040D0000029B9D10123B6E7BAF1660F19D1002939
:1040E00063680CDD216113B92268D20702D5013360
:1040F0000B442361099BA3654FF00009D9E713B96D
:104100002268D00701D50233F3E70123F1E74FF02E
:10411000670ADDE90932934205DB22682361D10792
:10412000E8D50133E5E7002BD4BFC3F10203012337
:104130001344DEE723685A0507D423694246314613
:104140002846B84701302BD167E7BAF1650F40F236
:10415000DC8000220023D4E91201FCF7BDFC00281A
:1041600033D00123414A31462846B84701303FF455
:1041700054AFDDE909239A4202DB2368D8070FD543
:10418000DDE9042331462846B84701303FF445AF06
:104190004FF0000804F11A090A9B013B434509DC72
:1041A00023689B0700F10381E0680B9B9842B8BF2E
:1041B000184634E701234A4631462846B8470130BD
:1041C0003FF42BAF08F10108E6E7099B002B2BDC3D
:1041D0000123264A31462846B84701303FF41DAF37
:1041E000099B23B90A9B13B92368D907D8D5DDE900
:1041F000042331462846B84701303FF40EAF4FF054
:10420000000904F11A0A099B5B424B4501DC0A9B39
:1042100094E70123524631462846B84701303FF41F
:10422000FCAE09F10109EEE70A9AA36D9A42A8BF14
:104230001A46002A914607DD134631464246284673
:10424000B84701303FF4E9AE04F11A034FF0000B18
:1042500029EAE979069315E0FFFFEF7F6066000821
:104260005C66000868660008646600086C66000802
:104270000123069A31462846B84701303FF4CDAEB7
:104280000BF1010BD4F858A0AAEB09035B45EFDC56
:10429000DDE909239A42D04415DB2368DA0712D4FA
:1042A0000A9B0999A3EB0A02A3EB010A9245A8BF56
:1042B0009246BAF1000F0EDC4FF000082AEAEA7AC3
:1042C00004F11A0919E0DDE9042331462846B8470C
:1042D0000130E5D1A1E65346424631462846B8476B
:1042E0000130E9D199E601234A4631462846B847CC
:1042F00001303FF492AE08F10108DDE909239B1A71
:10430000A3EB0A034345EEDC4AE70A9A012A01DCE3
:10431000DB073AD50123424631462846B8470130EB
:104320003FF47BAEDDE9042331462846B84701302F
:1043300008F101083FF471AE0A9B002203F1FF3A35
:10434000D4E912010023FCF7C7FBC8B95346424623
:1043500031462846B84701300ED15EE60123524669
:1043600031462846B84701303FF457AE08F10108FE
:104370000A9B013B4345F1DC4B4604F15002DEE66B
:104380004FF0000804F11A0AF2E70123DFE70123E6
:104390004A4631462846B84701303FF43EAE08F160
:1043A0000108E3680B9A9B1A4345F0DCFCE64FF0EA
:1043B000000804F11909F4E700293FF48BAE00234B
:1043C000CDE9020309AB009349EC108B2260CDF8D4
:1043D00004A00DF123032846FFF72EFD804648E692
:1043E0002DE9F04791461F468A680B69DDF8208069
:1043F0009342B8BF1346C9F8003091F843200646EF
:104400000C4612B10133C9F800302368990642BF47
:10441000D9F800300233C9F80030256815F00605D8
:1044200007D104F1190AE368D9F800209B1AAB42BE
:1044300028DC94F843302268003318BF0123920629
:104440002DD404F1430239463046C047013020D014
:104450002368E568D9F8002003F00603042B08BFA1
:10446000AD1AA36822690CBF25EAE57500259342C1
:10447000C4BF9B1AED184FF000091A344D451AD1EC
:10448000002008E00123524639463046C04701303B
:1044900003D14FF0FF30BDE8F0870135C3E7E118E5
:1044A0005A1C302081F84300224494F8451082F8C9
:1044B00043100233C5E70123224639463046C04740
:1044C0000130E6D009F10109D8E700002DE9F043F9
:1044D00001F1430C0C46097E85B06E29174606464D
:1044E00098460C9A00F0B38022D8632936D00AD8B7
:1044F000002900F0B980582900F0838004F14205BA
:1045000084F8421032E0642901D06929F6D120688C
:104510001368050603F104012AD51B681160002BFE
:1045200003DA2D225B4284F843206F480A2239E0E7
:10453000732900F09D8008D86F2920D07029DDD123
:10454000236843F02003236003E0752917D07829FE
:10455000D4D1782384F84530644855E01368191D98
:104560001B68116004F1420584F8423001238CE09D
:104570001B68116010F0400F18BF1BB2CFE7136823
:104580002568181D1060280601D51B6802E0680622
:10459000FBD51B8854486F2914BF0A22082200212A
:1045A00084F843106568A560002DC0F295802168ED
:1045B00021F004012160002B3DD1002D40F08E80C0
:1045C0006546082A0BD12368DB0708D52369626892
:1045D0009A42DEBF302305F8013C05F1FF35ACEB14
:1045E00005032361CDF800803B4603AA21463046EF
:1045F000FFF7F6FE01304DD14FF0FF3005B0BDE8BA
:10460000F083394884F84510136821681D1D1B6824
:1046100015600A060BD5CA0744BF41F0200121608E
:104620001BB9226822F0200222601022B7E74D0653
:1046300048BF9BB2EFE76546B3FBF2F102FB1133D3
:10464000C35C05F8013D0B460029F5D1B9E71368B5
:1046500025686169181D106028061B6801D519605E
:1046600002E06A06FBD51980002323616546B9E79D
:104670001368191D11601D68626800212846FBF748
:10468000B7FD08B1401B606063682361002384F8B4
:104690004330A7E723692A4639463046C0470130F0
:1046A000AAD023689B0713D4E068039B9842B8BF45
:1046B0001846A3E701234A4639463046C047013031
:1046C0009AD00135E368039A9B1AAB42F2DCEBE720
:1046D000002504F11909F5E7002BACD1037884F823
:1046E000423004F142056CE76E6600087F66000800
:1046F0000FB40A4B13B51C6824B1A36913B9204643
:1047000001F082F805AB049AA1680193204601F0FC
:1047100045FD02B0BDE8104004B070470C00002019
:1047200070B50E46054618B183690BB901F06CF8F7
:10473000AB69AC6813B9284601F066F8234B9C427C
:1047400017D16C68A3891B071DD52369DBB1013E16
:10475000A36816F8011F013BA360E9B9002B2EDA0C
:1047600022460A21284600F059F8013011D00A20CB
:1047700011E0174B9C4201D1AC68E3E7154B9C421A
:1047800008BFEC68DEE72146284600F099F80028CB
:10479000DDD04FF0FF3070BD002B04DAA2699A42E1
:1047A00006DC0A2904D023685A1C22601970CFE75E
:1047B0002246284600F032F80130C9D1E9E72368E3
:1047C0000A205A1C22601870E5E700BFC066000886
:1047D000E0660008A0660008024B01461868FFF773
:1047E0009FBF00BF0C000020F0B503787BB10446EA
:1047F00023782046661C7BB14A1E631E12F8015FB7
:104800004DB113F8017FAF423446F7D0F0E70B7893
:10481000002B18BF0020F0BD1846FCE7F8B50E4687
:104820001446054618B183690BB900F0EDFF214B22
:104830009C422AD16C68A369A360A3891A072ED56C
:10484000236963B323692068C01A6369F6B283429F
:10485000374604DC2146284600F06CFF28BBA368DD
:10486000013BA36023685A1C22601E7063690130FB
:10487000834204D0A389DB0719D50A2E17D121461C
:10488000284600F057FF90B10FE00B4B9C4201D13E
:10489000AC68D0E7094B9C4208BFEC68CBE72146E7
:1048A000284600F00DF80028CCD04FF0FF373846EE
:1048B000F8BD00BFC0660008E0660008A0660008FA
:1048C000324B70B51D6806460C4625B1AB6913B96D
:1048D000284600F099FF2E4B9C420FD16C68B4F92A
:1048E0000C309AB215072CD4D00611D409223260AC
:1048F00043F04003A3814FF0FF303EE0254B9C4244
:1049000001D1AC68EBE7244B9C4208BFEC68E6E7BA
:10491000510712D5616B41B104F14403994202D0B1
:10492000304601F069FB00236363A38923F024036D
:10493000A3810023636023692360A38943F00803F4
:10494000A38123694BB9A38903F42073B3F5007FD6
:1049500003D02146304601F013F8A28912F001037A
:104960000CD00023A36063695B42A361236953B940
:10497000B4F90C3013F08000BAD170BD920758BF63
:104980006369A360F2E70020F7E700BF0C00002096
:10499000C0660008E0660008A06600082DE9F74F31
:1049A00003690C69A3428046C0F28280013C01F198
:1049B00014074FEA840C00F1140657F8245056F8F7
:1049C000240006EB0C03013507EB0C090193B0FB47
:1049D000F5F595B34FF0000A3846B646D34650F881
:1049E000042B93B205FB03A34FEA134A9BB2ABEB34
:1049F0000303120CDEF800B005FB02A213FA8BF3DE
:104A00004FEA124A1FFA82FBDEF80020CBEB12427B
:104A100002EB23429BB243EA024381454FEA224B19
:104A20004EF8043BDBD256F80C3033B9019B043B03
:104A30009E421A4630D3C8F81040404601F008FAAA
:104A4000002825DB013530464FF0000C57F8042BC9
:104A5000D0F800E093B2ACEB0303120C13FA8EF320
:104A6000C2EB1E4202EB23429BB243EA0243B9452A
:104A70004FEA224C40F8043BE8D256F8242006EBDB
:104A800084032AB9043B9E421A460BD3C8F810404F
:104A9000284603B0BDE8F08F1268043B002ACAD153
:104AA000013CC5E71268043B002AEFD1013CEAE76C
:104AB0000020EEE7000000002DE9F04F57EC106BEE
:104AC00097B0456A069104460B921293DDF88080F8
:104AD000CDE900673DB9102000F092FF6062C0E9A7
:104AE00001550560C560636A196851B15A684A602A
:104AF000012393408B60204600F0C9FF636A0022C7
:104B00001A603B1EBBBF23F0004301930023012228
:104B1000ACBFC8F80030C8F80020AF4BDDF8048007
:104B200033EA080314D1129A42F20F731360009B08
:104B300023B9C8F31300002800F04285219BDFF859
:104B4000ACB2002B00F044850BF1030300F03EBD36
:104B5000DDE900670022002330463946FBF7BCFF41
:104B6000814668B1129A01231360219B002B00F04B
:104B700024859A4B219A03F1FF3B136000F028BD76
:104B800014AA15A947EC106B204601F0D8F9C8F318
:104B90000A550490002D7CD0C7F3130343F07F5BCC
:104BA000B2464BF4401BA5F2FF35CDF84C900022E5
:104BB0008B4B50465946FBF76FFB81A3D3E900238B
:104BC000FBF722FD80A3D3E90023FBF767FB064632
:104BD00028460F46FBF7AEFC7DA3D3E90023FBF785
:104BE00013FD02460B4630463946FBF757FB064697
:104BF0000F46FBF7B9FF00228246002330463946B4
:104C0000FBF774FF48B15046FBF794FC32463B4635
:104C1000FBF762FF08B90AF1FF3ABAF1160F59D84B
:104C2000704901EBCA01DDE90023D1E90001FBF77E
:104C30007BFF002850D00AF1FF3A00230F93149B0A
:104C40005D1BB5F1010849BFC5F1010300230593C0
:104C50004FF0000858BF0593BAF1000F3EDB002368
:104C6000D044CDF838A00793069B092B00F2908022
:104C7000052BC4BF043B0693069BA3F10203CCBFE4
:104C800000250125032B00F28F80DFE803F07D7FF4
:104C90003171DDE914531D4405F23240202813DD43
:104CA000C0F14000009B08FA00F805F2124023FA18
:104CB00000F048EA0000FBF72DFC01238246A1F139
:104CC000F87B013D139372E7009BC0F1200003FACB
:104CD00000F0F0E70123B1E70F90B0E7059BA3EBED
:104CE0000A030593CAF10003079300230E93BBE761
:104CF00001230A930B9B002B59DD02939946666AA8
:104D000000227260042202F114009842716853D9A3
:104D1000204600F088FE636A3060B9F10E0FD3F8C8
:104D200000B000F2E680002D00F0E3809DED007BF6
:104D3000BAF1000F8DED107B74DD2A4A0AF00F03E3
:104D400002EBC30393ED007B4FEA2A16F0068DEDCC
:104D5000087B65D5244BDDE91001D3E90823FBF777
:104D60007DFDCDE9000106F00F0603251E4F4CE046
:104D700001230A930B9B534403F1010902934B4611
:104D8000012BB8BF0123BAE70023B2E70023F0E705
:104D90000125002306930A954FF0FF3302939946AD
:104DA000002212230B92AAE701230A93F4E70123BE
:104DB000029399461A46F5E7013171605200A2E765
:104DC00061436F63A787D23FB3C8608B288AC63F11
:104DD000FB799F501344D33F0000F07F6D660008BD
:104DE0000000F83F2867000800670008996600087F
:104DF000F10708D5DDE90801D7E90023FBF704FC3A
:104E0000CDE90801013576100837002EF0D1DDE933
:104E10000823DDE90001FBF721FDCDE900011AE0DF
:104E20000225A3E700F0A080CAF100069F4BA04F27
:104E300006F00F0203EBC203D3E90023DDE9100102
:104E4000FBF7E2FBCDE90001361100230225002E1D
:104E50007FD1002BE1D10F9B002B00F08780DDE993
:104E600000670022934B30463946FBF73FFE00288F
:104E70007CD0B9F1000F79D0029B002B35DD0AF10F
:104E8000FF330893394600228B4B3046FBF7BCFBBF
:104E9000CDE90001029F01352846FBF74BFBDDE918
:104EA0000023FBF7B1FB0022844BFBF7F7F9054623
:104EB000A1F15076002F5DD10022814BDDE9000188
:104EC000FBF7EAF92A463346CDE90001FBF72CFE51
:104ED000002840F088822A4606F10043DDE90001FF
:104EE000FBF704FE002840F07C82DDE91023CDE9C9
:104EF0000023159B002BC0F25081BAF10E0F00F376
:104F00004C816A4B03EBCA0393ED007B0B9B002B98
:104F10008DED027B80F2D880B9F1000F00F3D480D0
:104F200040F05E820022664B51EC170BFBF76CFBE6
:104F3000DDE90023FBF7EEFD4F464E46002840F02A
:104F4000348231230BF101058BF800300AF1010A9C
:104F50002FE2F20705D5D7E90023FBF755FB013512
:104F600001237610083772E7022574E7CDF820A0F8
:104F70004F4691E74D4B03EBC70353E902010A9BF0
:104F8000002B47D002460B4600204E49FBF766FC3B
:104F90002A463346FBF780F9CDE90C015D46DDE991
:104FA0000001FBF7E1FD0646FBF7C4FA02460B469B
:104FB000DDE90001FBF770F9303605F8016BDDE93A
:104FC0000C23CDE90001FBF791FD002863D1DDE959
:104FD000002300203749FBF75FF9DDE90C23FBF7DD
:104FE00085FD002840F0B780A5EB0B039F427FF7BB
:104FF0007CAF0022304BDDE90C01FBF705FB002202
:10500000CDE90C012C4BDDE90001FBF7FDFACDE900
:105010000001C4E72A463346FBF7F6FACDE90C0156
:105020000BEB07055E46DDE90001FBF79DFD07463A
:10503000FBF780FA303702460B46DDE90001FBF74B
:105040002BF906F8017BAE42CDE900014FF00002DA
:1050500026D11C4BDDE90C01FBF720F902460B467B
:10506000DDE90001FBF760FD002874D1DDE90C23C8
:1050700000201449FBF710F902460B46DDE9000158
:10508000FBF734FD00283FF430AF15F8013C302B1E
:1050900005F1FF3202D0DDF820A04AE01546F4E722
:1050A000054BFBF7B1FACDE90001BCE72867000822
:1050B000006700080000F03F0000244000001C4092
:1050C000000014400000E03FDDE900675D46DDE9D7
:1050D000022330463946FBF7C1FBFBF745FD80460E
:1050E000FBF728FADDE90223FBF78EFA02460B46AE
:1050F0003046394608F13006FBF7CEF805F8016B6B
:10510000A5EB0B06B14502460B4639D1FBF7C6F8B5
:10511000DDE9022306460F46FBF706FDC8B9DDE9C7
:10512000022330463946FBF7D7FC10B118F0010FC7
:105130000FD10499204600F0AAFC0023129A2B708C
:105140000AF101031360219B002B00F041821D60D6
:105150003EE2CDF820A015F8012C392A05F1FF33E5
:1051600008D19B450AD1089B0133089330238BF863
:1051700000305B461A7801321A708CE71D46EAE768
:1051800000229B4BFBF740FA0022002306460F4605
:10519000FBF7A2FC00289AD0CBE70A9A002A00F07D
:1051A0008B80069A012A6EDC139A002A67D003F2DC
:1051B0003343079F059D059A01211A442046059215
:1051C000984400F004FD0646002D0CDDB8F1000FF8
:1051D00009DD4545059A2B46A8BF4346D21A0592DC
:1051E000ED1AA8EB0308079BEBB10A9B002B67D0D5
:1051F0008FB131463A46204600F088FD049A0146B8
:105200000646204600F0ECFC04990890204600F089
:105210003EFC089B0493079BDA1B04D004992046AC
:1052200000F074FD04900121204600F0D0FC0E9B9C
:105230000746002B00F0D0811A460146204600F0B8
:1052400065FD069B012B074640DC009B002B39D1F6
:10525000019BC3F31303002B36D1019B23F00043C2
:105260001B0D1B052BB1059B0133059308F10108AC
:10527000012307930E9B002B2AD1012030E0149BC1
:10528000C3F1360395E7079B09F1FF37BB42BFBF68
:10529000079B0797FA1A0E9BBBBF9B180E93DF1B49
:1052A0000027B9F1000FB5BF059B059DA3EB0905CC
:1052B0004B46B8BF00237EE7079F059D0A9E83E704
:1052C000079AABE70023D4E7009BD2E700230793BC
:1052D0003B6907EB8303186900F02BFCC0F1200049
:1052E000404410F01F0047D0C0F12003042B3BDDE9
:1052F000059BC0F11C000344059305448044059BB5
:10530000002B05DD1A460499204600F04DFD04905F
:10531000B8F1000F05DD39464246204600F044FD55
:1053200007460F9B53B33946049800F091FD0028BF
:1053300024DA00230A220499204600F0BFFB0A9BCE
:1053400004900AF1FF3A002B00F04D810023314612
:105350000A22204600F0B2FB029B002B06464FDCDF
:10536000069B022B4CDD11E0C9D0059A1C331A4470
:1053700005921D449844C2E70346F6E7B9F1000FD1
:1053800038DC069B022B35DDCDF80890029B63B913
:1053900039460522204600F091FB01460746049855
:1053A00000F056FD00283FF7CCAD0B9B5D466FEA41
:1053B000030A4FF000093946204600F068FB002E32
:1053C0003FF4B7AEB9F1000F05D0B14503D049465F
:1053D000204600F05CFB3146204600F058FBA8E672
:1053E00000273E46E1E7DDF820A03E46A9E500BFE4
:1053F000000024400A9BCDF80890002B00F0FA80B2
:10540000002D05DD31462A46204600F0CDFC06463B
:10541000079B002B4CD07168204600F004FB3269DA
:1054200002320546920006F10C010C3000F0F0FA51
:1054300001222946204600F0B7FC009BCDF814B0AD
:1054400003F00103B1460793064639460498FFF777
:10545000A5FA4946054600F13008049800F0F8FC2A
:10546000324600903946204600F00CFDC3680246E3
:1054700003BB01460890049800F0EAFC089A034632
:1054800011462046089300F002FB089BA3B9069A38
:1054900092B9079A82B9B8F1390F29D0009B002B35
:1054A00001DD05F13108059B5D1C83F8008082E772
:1054B0003046C2E70123E3E7009A002A04DB25D146
:1054C000069A1ABB079A0ABB002BECDD012204994D
:1054D000204600F069FC3946049000F0B9FC002831
:1054E00003DCE0D118F0010FDDD0B8F1390FD8D1CD
:1054F000059B059A5D1C3923137015F8013C392B67
:1055000005F1FF324FD00133137054E7059A002B99
:1055100002F1010506DDB8F1390FE9D008F1010803
:10552000059BC2E7029A05F8018CA5EB0B03934299
:1055300021D000230A220499204600F0BFFAB14589
:1055400004904FF000034FF00A024946204605D16F
:1055500000F0B4FA81460646059576E700F0AEFA0B
:105560003146814600230A22204600F0A7FA06466B
:10557000F2E74FF0000901220499204600F014FCE4
:105580003946049000F064FC0028B6DC02D118F023
:10559000010FB2D115F8013C302B05F1FF327FF439
:1055A0000AAF1546F6E7934505D131230AF1010A02
:1055B0008BF80030FFE615469FE7DFF864B007E0A0
:1055C000219BDFF860B01BB10BF10803219A136037
:1055D000584617B0BDE8F08F069B012B7FF735AE1C
:1055E0000E9B079349E6029B002B03DC069B022BD4
:1055F0003FF7CCAE5D4639460498FFF7CFF900F18E
:10560000300805F8018B029AA5EB0B039A42B0DD36
:1056100000230A220499204600F050FA0490EAE799
:105620006C660008906600088A892DE9F0410546FD
:1056300010070C4658D44B68002B05DC0B6C002B74
:1056400002DC0020BDE8F081E66A002EF9D00023DC
:1056500012F480522F68216A2B6032D0606DA389CA
:105660005A0705D56368C01A636B0BB1236CC01A67
:1056700000230246E66A216A2846B047431CA389F4
:1056800006D129681D2948D8294ACA40D60744D5D9
:1056900000226260D9042269226004D5421C01D133
:1056A0002B6803B96065616B2F600029C9D004F1D4
:1056B0004403994202D0284600F09EFC002060631B
:1056C000C0E701232846B047411CC8D12B68002BF6
:1056D000C5D01D2B01D0162B01D12F60B1E7A389B6
:1056E00043F04003A381ADE70F69002FA9D09307D2
:1056F0000E6808BF4B690F6018BF0023A6EB0708B0
:105700008B60B8F1000F9CDD43463A46216AA66AD9
:105710002846B047002806DCA38943F04003A38154
:105720004FF0FF308EE70744A8EB0008E9E700BF21
:105730000100402038B50B6905460C46DBB118B1B5
:1057400083690BB900F060F80C4B9C4209D16C687E
:10575000B4F90C307BB121462846BDE83840FFF74C
:1057600063BF074B9C4201D1AC68F1E7054B9C42FB
:1057700008BFEC68ECE7002038BD00BFC066000839
:10578000E0660008A0660008002310B50446C0E9E2
:105790000033836081814366C281C0E90433836141
:1057A000194608225C30FEF73FFB054B6362054B50
:1057B000A362054BE362054B2462236310BD00BF67
:1057C000E96300080B64000843640008676400088C
:1057D000014900F085B800BF3557000870B54A1E72
:1057E000682555430E4605F1740100F053FC04464C
:1057F00040B10021C0E900160C30A06005F168023C
:10580000FEF712FB204670BD836910B5044633BB1A
:10581000C0E912330365124B124A1B688262984238
:1058200004BF0123836100F01FF86060204600F090
:105830001BF8A060204600F017F80022E060042169
:105840006068FFF7A1FF01220921A068FFF79CFF14
:1058500002221221E068FFF797FF0123A36110BD28
:1058600058660008D1570008F8B51B4B1E68B3698D
:10587000074613B93046FFF7C7FF4836D6E901346B
:10588000013B03D5336833B13668F7E7B4F90C5000
:105890006DB16834F4E704213846FFF79FFF3060AC
:1058A0000028F1D10C233B6004462046F8BD0B4B89
:1058B0006566C4E90055A560C4E90335C4E905552A
:1058C0000822294604F15C00FEF7AEFAC4E90D5542
:1058D000C4E91255E9E700BF586600080100FFFF60
:1058E0002DE9F8438046894600F14804002614B9A2
:1058F0003046BDE8F883D4E90175013F01D524683D
:10590000F5E7AB89012B07D9B5F90E30013303D088
:1059100029464046C84706436835EEE7044B1B68F6
:10592000186A044B002808BF1846F030704700BFC3
:105930000C0000207000002070B50E46B1F90E106A
:10594000002996B014461D4607DA00232B60B38960
:105950001A0610D44FF480630EE06A4600F0AAFDE8
:105960000028F2DB019A02F47042A2F500535A4279
:105970005A412A60EEE740230020236016B070BD34
:105980008B8973B59D0706460C4607D504F147037E
:10599000236023610123636102B070BD01AB6A46DD
:1059A000FFF7CAFF00990546304600F073FB48B97F
:1059B000B4F90C309A05EFD423F0030343F002034B
:1059C000A381E3E70D4BB362A389206043F080031A
:1059D000A381009B6361019B20615BB1B4F90E1050
:1059E000304600F079FD28B1A38923F0030343F08A
:1059F0000103A381A3891D43A581CDE7D1570008E9
:105A0000024B0146186800F045BB00BF0C000020A7
:105A100010B5431E0A44914200D110BD11F8014B4C
:105A200003F8014FF7E770B5456A04460E463DB9E5
:105A30001020FFF7E5FF6062C0E901550560C56011
:105A4000656AEB6883B1636ADB6853F82600B8B90E
:105A5000012101FA06F56A1D9200204600F0BEFA07
:105A600060B1C0E901650EE021220421204600F06A
:105A7000B5FA636AE860DB68002BE4D1002070BDF2
:105A8000026843F826200023C0E90333F7E770B526
:105A9000446A06460D463CB91020FFF7B1FF70621C
:105AA000C0E901440460C4603DB1736A6A68DB68A0
:105AB00053F82210296043F8225070BD2DE9F041BF
:105AC0000D691F4606460C4601F1140C0023DCF854
:105AD000000081B202FB01710F0C000C02FB007090
