:020000040800F2
:1000000000000220450C0008410A0008470A0008C9
:100010004D0A0008530A0008590A000800000000B1
:100020000000000000000000000000005F0A00085F
:100030006D0A0008000000007B0A0008890A000819
:10004000950C0008950C0008950C0008950C00080C
:10005000950C0008950C0008950C0008950C0008FC
:10006000950C0008950C0008950C0008950C0008EC
:10007000950C0008950C0008950C0008950C0008DC
:10008000950C0008950C0008950C00080000000075
:10009000000000000000000000000000950C0008B7
:1000A000950C0008950C0008950C0008950C0008AC
:1000B000950C0008950C0008950C0008950C00089C
:1000C000950C0008950C0008950C0008950C00088C
:1000D000950C0008950A0008A90A00080000000015
:1000E000950C0008950C0008950C00080000000015
:1000F000000000000000000000000000950C000857
:1001000000000000950C0008950C0008950C0008F4
:1001100000000000000000000000000000000000DF
:10012000950C0008950C0008950C0008950C00082B
:10013000950C000800000000000000000000000016
:10014000000000000000000000000000950C000806
:10015000950C0008950C0008950C0008BD0A0008D5
:10016000950C0008950C000800000000000000003D
:10017000000000000000000000000000000000007F
:1001800000000000950C00080000000000000000C6
:08019000950C0008950C000815
:1001980010B5054C237833B9044B13B10448AFF3B9
:1001A80000800123237010BD7000002000000000B3
:1001B8002035000808B5034B1BB103490348AFF3CA
:1001C800008008BD000000007400002020350008F1
:1001D80053B94AB9002908BF00281CBF4FF0FF31A6
:1001E8004FF0FF3000F072B9ADF1080C6DE904CEA4
:1001F80000F006F8DDF804E0DDE9022304B07047FA
:100208002DE9F047089E04468846002B4BD18A42C8
:10021800154667D9B2FA82F24AB1C2F1200701FA4B
:1002280002F320FA07F7954047EA030894404FEA9B
:10023800154E230CB8FBFEF71FFA85FC0EFB17883A
:1002480043EA084307FB0CF1994209D9EB1807F177
:10025800FF3080F01B81994240F21881023F2B4405
:100268005B1AA4B2B3FBFEF00EFB103344EA03445E
:1002780000FB0CFCA44509D92C1900F1FF3380F0D0
:100288000781A44540F2048102382C4440EA074023
:10029800A4EB0C0400271EB1D4400023C6E9004398
:1002A8003946BDE8F0878B4209D9002E00F0EB8073
:1002B8000027C6E9000138463946BDE8F087B3FA99
:1002C80083F7002F47D18B4202D3824200F2FA8093
:1002D800841A61EB030301209846002EE0D0C6E99A
:1002E8000048DDE702B9FFDEB2FA82F2002A40F0E8
:1002F8008F80491B4FEA154E1FFA85F80127B1FB7D
:10030800FEFC230C0EFB1C1143EA014308FB0CF115
:10031800994207D9EB180CF1FF3002D2994200F24A
:10032800CD808446591AA3B2B1FBFEF00EFB10141F
:1003380043EA044408FB00F8A04507D92C1900F14A
:10034800FF3302D2A04500F2B6801846A4EB080499
:1003580040EA0C409FE7C7F1200CBB4022FA0CFE94
:100368004EEA030E01FA07F420FA0CF521FA0CF311
:100378004FEA1E482543B3FBF8F92C0C08FB193348
:100388001FFA8EFA44EA034309FB0AF49C4202FA74
:1003980007F200FA07F10BD91EEB030309F1FF304E
:1003A80080F087809C4240F28480A9F1020973445E
:1003B8001B1BADB2B3FBF8F008FB103345EA03444E
:1003C80000FB0AFAA24508D91EEB040400F1FF332A
:1003D8006BD2A24569D90238744440EA0940A0FBAF
:1003E8000289A4EB0A044C45C2464B4654D351D06B
:1003F800002E69D0B1EB0A0564EB030404FA0CFC87
:10040800FD40FC404CEA0505C6E90054002747E7D3
:10041800C2F1200320FA03F7954001FA02F021FA0D
:1004280003F34FEA154E3843010CB3FBFEF71FFAEE
:1004380085F80EFB173341EA034107FB08F38B42AB
:1004480004FA02F407D9691807F1FF3C2FD28B424E
:100458002DD9023F2944CB1A81B2B3FBFEF00EFB23
:10046800103341EA034100FB08F38B4207D96918AE
:1004780000F1FF3C17D28B4215D902382944C91A1A
:1004880040EA07473BE73746304609E70746E7E6CD
:100498001846FBE64145ABD2B8EB020A69EB0E02FF
:1004A80001381346A4E76046E9E7184695E767462A
:1004B800D1E781467CE702382C4447E7ACF1020CCF
:1004C8002B442FE7384608E73746E9E6704700BF70
:1004D80080B582B000AF7860391D4FF6FF730122F6
:1004E800034801F0E0FC7B6818460837BD4680BD2C
:1004F800EC00002080B500AF00F0CAFB00F014F853
:1005080000F01CF900F06EF800F0C4F800F0ECF808
:1005180000F096F8034802F0F3FB4FF47A7000F00D
:1005280029FCF7E73835000880B594B000AF07F12B
:10053800200330220021184602F07EFB07F10C034D
:1005480000221A605A609A60DA601A610023BB6060
:10055800224B1B6C214A43F0805313641F4B1B6CC6
:1005680003F08053BB60BB6800237B601C4B1B6897
:100578001B4A43F440431360194B1B6803F4404380
:100588007B607B6802233B620123FB6210233B6391
:100598000023BB6307F12003184600F0FBFF034666
:1005A800002B01D000F00AF90F23FB6000233B6108
:1005B80000237B610023BB610023FB6107F10C036F
:1005C8000021184601F056FA0346002B01D000F02E
:1005D800F5F800BF5037BD4680BD00BF0038024067
:1005E8000070004080B500AF124B134A1A60114BDF
:1005F800124A5A600F4B00229A600E4B0022DA60B2
:100608000C4B4FF480421A610A4B00225A61094B85
:1006180000229A61074B0022DA61064B00221A6217
:10062800044800F07FFE0346002B01D000F0C6F816
:1006380000BF80BD9800002000540040A086010043
:1006480080B500AF114B124A1A60104B4FF4E132DB
:100658005A600E4B00229A600C4B0022DA600B4B5A
:1006680000221A61094B0C225A61084B00229A6138
:10067800064B0022DA61054801F0C8FB0346002B4F
:1006880001D000F09BF800BF80BD00BFEC00002047
:100698000010014080B500AF114B124A1A60104B90
:1006A8004FF4E1325A600E4B00229A600C4B002244
:1006B800DA600B4B00221A61094B0C225A61084B75
:1006C80000229A61064B0022DA61054801F09EFB80
:1006D8000346002B01D000F071F800BF80BD00BFB9
:1006E8006C0100200044004080B500AF114B124A55
:1006F8001A60104B4FF4E1325A600E4B00229A6098
:100708000C4B0022DA600B4B00221A61094B0C22B9
:100718005A61084B00229A61064B0022DA610548AB
:1007280001F074FB0346002B01D000F047F800BF2E
:1007380080BD00BF2C0100200014014080B588B0A6
:1007480000AF07F10C0300221A605A609A60DA6061
:100758001A610023BB60174B1B6B164A43F0010359
:100768001363144B1B6B03F00103BB60BB680023CE
:100778007B60104B1B6B0F4A43F0020313630D4B56
:100788001B6B03F002037B607B684FF40043FB6044
:1007980002233B6100237B610023BB610123FB61D2
:1007A80007F10C031946044800F03AFC00BF203753
:1007B800BD4680BD003802400000024080B400AF52
:1007C80072B6FEE780B483B000AF00237B60104BA5
:1007D8005B6C0F4A43F4804353640D4B5B6C03F42A
:1007E80080437B607B6800233B60094B1B6C084A95
:1007F80043F080531364064B1B6C03F080533B603B
:100808003B6800BF0C37BD465DF8047B704700BFEE
:100818000038024080B58AB000AF786007F1140351
:1008280000221A605A609A60DA601A617B681B6855
:10083800194A93422BD100233B61184B1B6B174A73
:1008480043F002031363154B1B6B03F002033B6178
:100858003B69C0237B611223BB610123FB61032336
:100868003B6204237B6207F1140319460C4800F02D
:10087800D7FB0023FB60094B1B6C084A43F40013A9
:100888001364064B1B6C03F40013FB60FB6800BF8A
:100898002837BD4680BD00BF0054004000380240E4
:1008A8000004024080B58EB000AF786007F12403E1
:1008B80000221A605A609A60DA601A617B681B68C5
:1008C800584A934235D100233B62574B5B6C564ADA
:1008D80043F010035364544B5B6C03F010033B620A
:1008E8003B6A0023FB61504B1B6B4F4A43F00103EB
:1008F80013634D4B1B6B03F00103FB61FB694FF462
:10090800C0637B620223BB620023FB6203233B6359
:1009180007237B6307F124031946444800F080FB52
:1009280000220021252000F022FB252000F03BFBBF
:1009380073E07B681B683E4A934234D10023BB6155
:10094800394B1B6C384A43F400331364364B1B6C29
:1009580003F40033BB61BB6900237B61324B1B6B23
:10096800314A43F0010313632F4B1B6B03F0010360
:100978007B617B690C237B620223BB620023FB62E1
:1009880003233B6307237B6307F1240319462748A6
:1009980000F046FB00220021262000F0E8FA26207D
:1009A80000F001FB39E07B681B68224A934234D18E
:1009B80000233B611C4B5B6C1B4A43F020035364D0
:1009C800194B5B6C03F020033B613B690023FB6020
:1009D800154B1B6B144A43F001031363124B1B6B3B
:1009E80003F00103FB60FB684FF4C0537B620223F2
:1009F800BB620023FB6203233B6308237B6307F18D
:100A080024031946094800F00BFB00220021472067
:100A180000F0ADFA472000F0C6FA00BF3837BD46EF
:100A280080BD00BF001001400038024000000240B5
:100A3800004400400014014080B400AFFEE780B4D9
:100A480000AFFEE780B400AFFEE780B400AFFEE77A
:100A580080B400AFFEE780B400AF00BFBD465DF8CC
:100A6800047B704780B400AF00BFBD465DF8047BCF
:100A7800704780B400AF00BFBD465DF8047B704787
:100A880080B500AF00F056F900BF80BD80B500AF5B
:100A9800024801F0A1FA00BF80BD00BFEC000020B1
:100AA80080B500AF024801F097FA00BF80BD00BFD3
:100AB8006C01002080B500AF024801F08DFA00BF3C
:100AC80080BD00BF2C01002080B586B000AFF86063
:100AD800B9607A6000237B610AE0AFF300800146C9
:100AE800BB685A1CBA60CAB21A707B6901337B6151
:100AF8007A697B689A42F0DB7B6818461837BD46EE
:100B080080BD80B586B000AFF860B9607A60002318
:100B18007B6109E0BB685A1CBA601B781846FFF76E
:100B2800D7FC7B6901337B617A697B689A42F1DB88
:100B38007B6818461837BD4680BD80B483B000AFC7
:100B480078604FF0FF3318460C37BD465DF8047BDC
:100B5800704780B483B000AF786039603B684FF469
:100B680000525A60002318460C37BD465DF8047BD6
:100B7800704780B483B000AF7860012318460C3703
:100B8800BD465DF8047B704780B485B000AFF8605F
:100B9800B9607A60002318461437BD465DF8047BB7
:100BA8007047000080B586B000AF7860144A154BD6
:100BB800D31A7B617B693B61134B1B68002B02D105
:100BC800114B124A1A60104B1A687B6813443A6931
:100BD8009A4207D202F006F802460C2313604FF03F
:100BE800FF3309E0084B1B68FB60074B1A687B68FA
:100BF8001344054A1360FB6818461837BD4680BD84
:100C080000000220000400008C000020B801002031
:100C180080B400AF084BD3F88830074A43F4700318
:100C2800C2F88830044B4FF000629A6000BFBD469E
:100C38005DF8047B704700BF00ED00E0DFF834D0BA
:100C4800002103E00C4B5B58435004310B480C4B1C
:100C580042189A42F6D30B4A02E0002342F8043BBA
:100C6800094B9A42F9D3FFF7D3FF01F0C1FFFFF711
:100C780041FC704700000220C83500080000002031
:100C88007000002070000020B4010020FEE7000082
:100C980080B500AF0E4B1B680D4A43F40073136018
:100CA8000B4B1B680A4A43F480631360084B1B68AC
:100CB800074A43F480731360032000F04DF90020C5
:100CC80000F008F8FFF77EFD0023184680BD00BF3E
:100CD800003C024080B582B000AF7860124B1A68C1
:100CE800124B1B7819464FF47A73B3FBF1F3B2FB3E
:100CF800F3F3184600F065F90346002B01D00123F1
:100D08000EE07B680F2B0AD8002279684FF0FF307D
:100D180000F02DF9064A7B681360002300E00123E8
:100D280018460837BD4680BD000000200800002096
:100D38000400002080B400AF064B1B781A46064B0F
:100D48001B681344044A136000BFBD465DF8047B6A
:100D5800704700BF08000020AC01002080B400AF3D
:100D6800034B1B681846BD465DF8047B704700BFFF
:100D7800AC01002080B584B000AF7860FFF7EEFFCB
:100D8800B8607B68FB60FB68B3F1FF3F05D0094B97
:100D98001B781A46FB681344FB6000BFFFF7DEFFB1
:100DA8000246BB68D31AFA689A42F7D800BF1037D0
:100DB800BD4680BD0800002080B485B000AF7860D3
:100DC8007B6803F00703FB600C4BDB68BB60BA6809
:100DD8004FF6FF031340BB60FB681A02BB6813435E
:100DE80043F0BF6343F40033BB60044ABB68D3607D
:100DF80000BF1437BD465DF8047B704700ED00E086
:100E080080B400AF044BDB681B0A03F007031846E5
:100E1800BD465DF8047B704700ED00E080B483B008
:100E280000AF0346FB7197F90730002B0BDBFB790A
:100E380003F01F02074997F907305B09012000FA00
:100E480002F241F8232000BF0C37BD465DF8047B51
:100E5800704700BF00E100E080B483B000AF0346F4
:100E68003960FB7197F90730002B0ADB3B68DAB26F
:100E78000C4997F907301201D2B20B4483F80023CA
:100E88000AE03B68DAB20849FB7903F00F03043B38
:100E98001201D2B20B441A7600BF0C37BD465DF87A
:100EA800047B704700E100E000ED00E080B489B009
:100EB80000AFF860B9607A60FB6803F00703FB6174
:100EC800FB69C3F10703042B28BF0423BB61FB693B
:100ED8000433062B02D9FB69033B00E000237B6146
:100EE8004FF0FF32BB6902FA03F3DA43BB681A40DA
:100EF8007B699A404FF0FF317B6901FA03F3D943CC
:100F08007B680B40134318462437BD465DF8047BC5
:100F18007047000080B582B000AF78607B68013B05
:100F2800B3F1807F01D301230FE00A4A7B68013BBC
:100F380053600F214FF0FF30FFF78EFF054B002263
:100F48009A60044B07221A60002318460837BD46EA
:100F580080BD00BF10E000E080B582B000AF7860CF
:100F68007868FFF729FF00BF0837BD4680BD80B508
:100F780086B000AF0346B9607A60FB7300237B61DB
:100F8800FFF73EFF78617A68B9687869FFF78EFFE6
:100F9800024697F90F3011461846FFF75DFF00BF6C
:100FA8001837BD4680BD80B582B000AF0346FB71DF
:100FB80097F907301846FFF731FF00BF0837BD46DD
:100FC80080BD80B582B000AF78607868FFF7A2FF77
:100FD800034618460837BD4680BD80B483B000AFCD
:100FE80078607B6893F83530DBB2022B04D07B68DD
:100FF80080225A6501230CE07B68052283F835209E
:101008007B681B681A687B681B6822F001021A60FB
:10101800002318460C37BD465DF8047B7047000076
:1010280080B489B000AF7860396000237B61002309
:101038003B610023BB610023FB6159E10122FB698D
:1010480002FA03F37B613B681B687A6913403B61D2
:101058003A697B699A4240F048813B685B68012B9A
:101068000BD03B685B68022B07D03B685B68112B91
:1010780003D03B685B68122B30D17B689B68BB61EF
:10108800FB695B00032202FA03F3DB43BA691340EE
:10109800BB613B68DA68FB695B0002FA03F3BA6973
:1010A8001343BB617B68BA699A607B685B68BB6104
:1010B8000122FB6902FA03F3DB43BA691340BB61FF
:1010C8003B685B681B0903F00102FB6902FA03F342
:1010D800BA691343BB617B68BA695A607B68DB688D
:1010E800BB61FB695B00032202FA03F3DB43BA69C5
:1010F8001340BB613B689A68FB695B0002FA03F323
:10110800BA691343BB617B68BA69DA603B685B689C
:10111800022B03D03B685B68122B23D1FB69DA08EA
:101128007B68083253F82230BB61FB6903F0070380
:101138009B000F2202FA03F3DB43BA691340BB6139
:101148003B681A69FB6903F007039B0002FA03F383
:10115800BA691343BB61FB69DA087B680832B9696D
:1011680043F822107B681B68BB61FB695B000322A4
:1011780002FA03F3DB43BA691340BB613B685B685F
:1011880003F00302FB695B0002FA03F3BA69134335
:10119800BB617B68BA691A603B685B6803F080537F
:1011A800002B00F0A2800023FB60564B5B6C554A75
:1011B80043F480435364534B5B6C03F48043FB60FC
:1011C800FB68514AFB699B08023352F82330BB6124
:1011D800FB6903F003039B000F2202FA03F3DB43CE
:1011E800BA691340BB617B68484A934219D07B684F
:1011F800474A934213D07B68464A93420DD07B6896
:10120800454A934207D07B68444A934201D104235C
:1012180008E0072306E0032304E0022302E0012399
:1012280000E00023FA6902F0030292009340BA69D1
:101238001343BB613449FB699B080233BA6941F81F
:101248002320374B1B68BB613B69DB43BA691340FA
:10125800BB613B685B6803F48033002B03D0BA6939
:101268003B691343BB612E4ABB6913602C4B5B6817
:10127800BB613B69DB43BA691340BB613B685B6890
:1012880003F40033002B03D0BA693B691343BB61F5
:10129800234ABB695360224B9B68BB613B69DB43B4
:1012A800BA691340BB613B685B6803F48013002B89
:1012B80003D0BA693B691343BB61194ABB699360A0
:1012C800174BDB68BB613B69DB43BA691340BB6101
:1012D8003B685B6803F40013002B03D0BA693B69D1
:1012E8001343BB610E4ABB69D360FB690133FB61E1
:1012F800FB690F2B7FF6A2AE00BF2437BD465DF811
:10130800047B70470038024000380140000002406A
:101318000004024000080240000C02400010024095
:10132800003C014080B584B000AF78607B68002B3A
:1013380001D101231FE17B6893F83D30DBB2002B1C
:1013480006D17B68002283F83C207868FFF762FAB0
:101358007B68242283F83D207B681B681A687B68B9
:101368001B6822F001021A607B681B681A687B6898
:101378001B6842F400421A607B681B681A687B6825
:101388001B6822F400421A6000F018FDF8607B68C0
:101398005B687B4A934207D8FB687A4A934294BFBA
:1013A80001230023DBB206E0FB68774A934294BF2F
:1013B80001230023DBB2002B01D00123DBE0FB6813
:1013C800724AA2FB03239B0CBB607B681B685B68AB
:1013D80023F03F017B681B68BA680A435A607B6840
:1013E8001B681B6A23F03F017B685B68644A934271
:1013F80002D8BB68013309E0BB684FF4967202FB60
:1014080003F3634AA2FB03239B0901337A6812683A
:101418000B4313627B681B68DB6923F44F4222F09D
:10142800FF027B685B6856498B420DD8FB68591EE2
:101438007B685B685B00B1FBF3F30133C3F30B0319
:10144800042B38BF04234FE07B689B68002B11D125
:10145800FB68581E7B6859680B465B000B44B0FB61
:10146800F3F30133C3F30B03002B0CBF0123002359
:10147800DBB212E0FB68581E7B6859680B469B007C
:101488000B4499000B44B0FBF3F30133C3F30B0394
:10149800002B0CBF01230023DBB2002B01D001235A
:1014A80022E07B689B68002B0ED1FB68581E7B6886
:1014B80059680B465B000B44B0FBF3F30133C3F3ED
:1014C8000B0343F400430FE0FB68581E7B68596820
:1014D8000B469B000B4499000B44B0FBF3F301331C
:1014E800C3F30B0343F44043796809681343CB61A2
:1014F8007B681B681B6823F0C0017B68DA697B681E
:101508001B6A1A437B681B680A431A607B681B685E
:101518009B6823F4034323F0FF037A6811697A6810
:10152800D26811437A6812680B4393607B681B6822
:10153800DB6823F0FF017B685A697B689B691A4363
:101548007B681B680A43DA607B681B681A687B68DB
:101558001B6842F001021A607B6800221A647B68EB
:10156800202283F83D207B6800221A637B680022D2
:1015780083F83E20002318461037BD4680BD00BFC3
:10158800A08601007F841E00FF083D0083DE1B4308
:10159800D34D621080B586B000AF78607B68002BB1
:1015A80001D101235BE27B681B6803F00103002B78
:1015B80075D0A34B9B6803F00C03042B0CD0A04BF5
:1015C8009B6803F00C03082B12D19D4B5B6803F456
:1015D8008003B3F5800F0BD1994B1B6803F40033DC
:1015E800002B5BD07B685B68002B57D1012336E268
:1015F8007B685B68B3F5803F06D1914B1B68904AC6
:1016080043F4803313601DE07B685B68B3F5A02F5B
:101618000CD18B4B1B688A4A43F480231360884B98
:101628001B68874A43F4803313600BE0844B1B68C4
:10163800834A23F480331360814B1B68804A23F468
:10164800802313607B685B68002B13D0FFF786FB51
:10165800386108E0FFF782FB02463B69D31A642B26
:1016680001D90323FBE1764B1B6803F40033002BFD
:10167800F0D014E0FFF772FB386108E0FFF76EFB6B
:1016880002463B69D31A642B01D90323E7E16C4B6B
:101698001B6803F40033002BF0D100E000BF7B6827
:1016A8001B6803F00203002B63D0654B9B6803F0B3
:1016B8000C03002B0BD0624B9B6803F00C03082B28
:1016C8001CD15F4B5B6803F48003002B16D15C4B85
:1016D8001B6803F00203002B05D07B68DB68012B35
:1016E80001D00123BBE1564B1B6823F0F8027B684D
:1016F8001B69DB00524913430B603AE07B68DB68E7
:10170800002B20D04F4B01221A60FFF727FB3861CE
:1017180008E0FFF723FB02463B69D31A022B01D9E5
:1017280003239CE1464B1B6803F00203002BF0D017
:10173800434B1B6823F0F8027B681B69DB004049B8
:1017480013430B6015E03F4B00221A60FFF706FBBE
:10175800386108E0FFF702FB02463B69D31A022B07
:1017680001D903237BE1364B1B6803F00203002BEE
:10177800F0D17B681B6803F00803002B30D07B682E
:101788005B69002B16D0304B01221A60FFF7E6FA8E
:10179800386108E0FFF7E2FA02463B69D31A022BE8
:1017A80001D903235BE1264B5B6F03F00203002B97
:1017B800F0D015E0244B00221A60FFF7CFFA386109
:1017C80008E0FFF7CBFA02463B69D31A022B01D98E
:1017D800032344E11A4B5B6F03F00203002BF0D1A3
:1017E8007B681B6803F00403002B00F0A080002333
:1017F800FB75134B1B6C03F08053002B0FD1002398
:10180800BB600F4B1B6C0E4A43F0805313640C4BA8
:101818001B6C03F08053BB60BB680123FB750B4B4B
:101828001B6803F48073002B21D1084B1B68074AFF
:1018380043F480731360FFF791FA386111E000BF39
:101848000038024000004742800E474200700040C6
:10185800FFF784FA02463B69D31A022B01D9032306
:10186800FDE0814B1B6803F48073002BF0D07B688C
:101878009B68012B06D17D4B1B6F7C4A43F001030B
:1018880013671CE07B689B68052B0CD1774B1B6F9B
:10189800764A43F004031367744B1B6F734A43F093
:1018A800010313670BE0714B1B6F704A23F00103B0
:1018B80013676E4B1B6F6D4A23F0040313677B6835
:1018C8009B68002B15D0FFF749FA38610AE0FFF74B
:1018D80045FA02463B69D31A41F28832934201D94C
:1018E8000323BCE0614B1B6F03F00203002BEED017
:1018F80014E0FFF733FA38610AE0FFF72FFA0246DF
:101908003B69D31A41F28832934201D90323A6E0F6
:10191800564B1B6F03F00203002BEED1FB7D012B0E
:1019280005D1524B1B6C514A23F0805313647B68DA
:101938009B69002B00F092804C4B9B6803F00C03D2
:10194800082B5CD07B689B69022B41D1484B002255
:101958001A60FFF703FA386108E0FFF7FFF902465B
:101968003B69D31A022B01D9032378E03F4B1B684C
:1019780003F00073002BF0D17B68DA697B681B6A7F
:101988001A437B685B6A9B011A437B689B6A5B0806
:10199800013B1B041A437B68DB6A1B06334913436C
:1019A8004B60334B01221A60FFF7D8F9386108E021
:1019B800FFF7D4F902463B69D31A022B01D9032356
:1019C8004DE02A4B1B6803F00073002BF0D045E074
:1019D800274B00221A60FFF7C1F9386108E0FFF7CA
:1019E800BDF902463B69D31A022B01D9032336E01D
:1019F8001E4B1B6803F00073002BF0D12EE07B68B0
:101A08009B69012B01D1012329E0184B5B68FB601E
:101A1800FB6803F480027B68DB699A421CD1FB688F
:101A280003F03F027B681B6A9A4215D1FA6847F6B1
:101A3800C07313407A68526A93420DD1FB6803F46D
:101A480040327B689B6A9A4206D1FB6803F0706259
:101A58007B68DB6A9A4201D0012300E00023184624
:101A68001837BD4680BD00BF0070004000380240F6
:101A78006000474280B584B000AF786039607B6809
:101A8800002B01D10123CCE0684B1B6803F00F0346
:101A98003A689A420CD9654B3A68D2B21A70634BCD
:101AA8001B6803F00F033A689A4201D00123B8E09B
:101AB8007B681B6803F00203002B20D07B681B683F
:101AC80003F00403002B05D0594B9B68584A43F494
:101AD800E05393607B681B6803F00803002B05D074
:101AE800534B9B68524A43F460439360504B9B6846
:101AF80023F0F0027B689B684D4913438B607B6839
:101B08001B6803F00103002B44D07B685B68012B42
:101B180007D1474B1B6803F40033002B19D101236D
:101B28007FE07B685B68022B03D07B685B68032BD4
:101B380007D13F4B1B6803F00073002B09D1012329
:101B48006FE03B4B1B6803F00203002B01D101231C
:101B580067E0374B9B6823F003027B685B68344976
:101B680013438B60FFF7FAF8F8600AE0FFF7F6F81E
:101B78000246FB68D31A41F28832934201D9032303
:101B88004FE02B4B9B6803F00C027B685B689B0063
:101B98009A42EBD1254B1B6803F00F033A689A422F
:101BA8000CD2224B3A68D2B21A70204B1B6803F051
:101BB8000F033A689A4201D0012332E07B681B6820
:101BC80003F00403002B08D0194B9B6823F4E05260
:101BD8007B68DB68164913438B607B681B6803F0DE
:101BE8000803002B09D0124B9B6823F460427B68E2
:101BF8001B69DB000E4913438B6000F021F8014696
:101C08000B4B9B681B0903F00F030A4AD35C21FAAC
:101C180003F3094A1360094B1B681846FFF75AF883
:101C2800002318461037BD4680BD00BF003C024067
:101C3800003802403C350008000000200400002065
:101C4800F0B585B000AF00237B600023FB60002364
:101C58003B600023BB60504B9B6803F00C03042BD4
:101C680007D0082B08D0002B40F08D804B4BBB6071
:101C78008CE04B4BBB6089E0474B5B6803F03F034C
:101C88007B60454B5B6803F48003002B23D0424BF9
:101C98005B689B094FF0000440F2FF114FF000020F
:101CA80003EA010504EA02063D4A02FB06F10022A6
:101CB80002FB05F20A443A49A5FB010153181946EB
:101CC8007B684FF000041A462346FEF781FA034664
:101CD8000C46FB6049E0304B5B689B094FF0000401
:101CE80040F2FF114FF0000203EA010504EA020680
:101CF800294632464FF000034FF00004540144EAED
:101D0800D1644B0119462246491B62EB06024FF08B
:101D180000034FF00004940144EA91648B015B1ABC
:101D280064EB02044FF000014FF00002E20042EAC7
:101D38005372D9000B4614465B1944EB06044FF066
:101D480000014FF00002A20242EA935299020B46A8
:101D58001446184621467B684FF000041A4623466D
:101D6800FEF736FA03460C46FB600B4B5B681B0C10
:101D780003F0030301335B003B60FA683B68B2FB86
:101D8800F3F3BB6002E0054BBB6000BFBB681846BD
:101D98001437BD46F0BD00BF003802400024F400EF
:101DA80040787D0180B400AF034B1B681846BD46E0
:101DB8005DF8047B704700BF0000002080B500AFCD
:101DC800FFF7F0FF0146054B9B689B0A03F00703EA
:101DD800034AD35C21FA03F3184680BD0038024059
:101DE8004C35000880B500AFFFF7DCFF0146054B16
:101DF8009B685B0B03F00703034AD35C21FA03F3E8
:101E0800184680BD003802404C35000880B582B0C5
:101E180000AF78607B68002B01D101233FE07B682D
:101E280093F83930DBB2002B06D17B68002283F8A7
:101E380038207868FEF736FD7B68242283F839203D
:101E48007B681B68DA687B681B6822F40052DA60DA
:101E5800786800F04BFB7B681B681A697B681B6815
:101E680022F490421A617B681B685A697B681B6878
:101E780022F02A025A617B681B68DA687B681B6853
:101E880042F40052DA607B680022DA637B68202221
:101E980083F839207B68202283F83A2000231846EB
:101EA8000837BD4680BD80B588B002AFF860B9601C
:101EB8003B601346FB8000237B61FB6893F8393055
:101EC800DBB2202B40F08380BB68002B02D0FB885C
:101ED800002B01D101237BE0FB6893F83830012BFC
:101EE80001D1022374E0FB68012283F83820FB68E3
:101EF8000022DA63FB68212283F83920FEF72EFFDF
:101F08007861FB68FA889A84FB68FA88DA84FB6847
:101F1800002283F8382042E0FB68DB8C9BB2013B4F
:101F28009AB2FB68DA84FB689B68B3F5805F22D1BC
:101F38003B6800937B6900228021F86800F06AF909
:101F48000346002B01D0032342E0BB683B613B6999
:101F58001B881A46FB681B68C2F308025A60FB68B4
:101F68001B69002B03D1BB680233BB6017E0BB6859
:101F78000133BB6013E03B6800937B69002280213A
:101F8800F86800F047F90346002B01D003231FE04F
:101F9800BB685A1CBA601A78FB681B685A60FB68F1
:101FA800DB8C9BB2002BB7D13B6800937B69002286
:101FB8004021F86800F02EF90346002B01D00323D6
:101FC80006E0FB68202283F83920002300E0022382
:101FD80018461837BD4680BD80B588B000AF786018
:101FE8007B681B681B68FB617B681B68DB68BB61DF
:101FF8007B681B685B697B6100233B610023FB6096
:10200800FB6903F00F033B613B69002B0DD1FB69B2
:1020180003F02003002B08D0BB6903F02003002B3A
:1020280003D0786800F0E0F9D1E03B69002B00F0BC
:10203800B0807B6903F00103002B05D1BB6903F471
:102048009073002B00F0A580FB6903F00103002BBF
:102058000AD0BB6903F48073002B05D07B68DB6B67
:1020680043F001027B68DA63FB6903F00403002B89
:102078000AD07B6903F00103002B05D07B68DB6B7A
:1020880043F002027B68DA63FB6903F00203002B6A
:102098000AD07B6903F00103002B05D07B68DB6B5A
:1020A80043F004027B68DA63FB6903F00803002B42
:1020B8000FD0BB6903F02003002B04D17B6903F028
:1020C8000103002B05D07B68DB6B43F008027B68BB
:1020D800DA637B68DB6B002B78D0FB6903F02003A5
:1020E800002B07D0BB6903F02003002B02D07868CF
:1020F80000F07AF97B681B685B6903F04003402BAA
:102108000CBF01230023DBB2FB607B68DB6B03F0B1
:102118000803002B02D1FB68002B31D0786800F04F
:10212800C3F87B681B685B6903F04003402B23D12D
:102138007B681B685A697B681B6822F040025A61F9
:102148007B685B6B002B13D07B685B6B214A1A653D
:102158007B685B6B1846FEF740FF0346002B16D0E2
:102168007B685B6B1B6D7A68526B104698470EE074
:10217800786800F045F80AE0786800F041F806E071
:10218800786800F03DF87B680022DA631EE000BF43
:102198001CE0FB6903F08003002B08D0BB6903F047
:1021A8008003002B03D0786800F0B0F80FE0FB69DB
:1021B80003F04003002B0AD0BB6903F04003002B57
:1021C80005D0786800F0F8F800BF00E000BF2037BD
:1021D800BD4680BDED22000880B483B000AF7860B2
:1021E80000BF0C37BD465DF8047B704780B483B0F0
:1021F80000AF786000BF0C37BD465DF8047B7047C0
:1022080080B483B000AF786000BF0C37BD465DF87E
:10221800047B704780B584B000AFF860B9603B605C
:102228001346FB712CE0BB69B3F1FF3F28D0BB69B3
:10223800002B07D0FEF792FD02463B68D31ABA6915
:102248009A421DD2FB681B68DA68FB681B6822F497
:10225800D072DA60FB681B685A69FB681B6822F059
:1022680001025A61FB68202283F83920FB6820228A
:1022780083F83A20FB68002283F8382003230FE014
:10228800FB681B681A68BB681340BA689A420CBF9F
:1022980001230023DBB21A46FB799A42C3D00023FC
:1022A80018461037BD4680BD80B483B000AF786053
:1022B8007B681B68DA687B681B6822F49072DA60B6
:1022C8007B681B685A697B681B6822F001025A61A7
:1022D8007B68202283F83A2000BF0C37BD465DF8A2
:1022E800047B704780B584B000AF78607B689B6BD7
:1022F800FB60FB680022DA85FB680022DA84F86854
:10230800FFF77EFF00BF1037BD4680BD80B485B0A3
:1023180000AF78607B6893F83930DBB2212B44D169
:102328007B689B68B3F5805F1AD17B681B6AFB608A
:10233800FB681B881A467B681B68C2F308025A6050
:102348007B681B69002B05D17B681B6A9A1C7B681C
:102358001A620EE07B681B6A5A1C7B681A6208E0E6
:102368007B681B6A591C7A6811621A787B681B683B
:102378005A607B68DB8C9BB2013B9BB27A6819463A
:10238800D184002B0FD17B681B68DA687B681B68D7
:1023980022F08002DA607B681B68DA687B681B6859
:1023A80042F04002DA60002300E0022318461437A6
:1023B800BD465DF8047B704780B582B000AF786099
:1023C8007B681B68DA687B681B6822F04002DA6069
:1023D8007B68202283F839207868FFF7FDFE002308
:1023E80018460837BD4680BD80B584B000AF786018
:1023F8007B6893F83A30DBB2222B71D17B689B68FB
:10240800B3F5805F23D17B689B6AFB607B681B699F
:10241800002B0ED17B681B685B689BB2C3F3080373
:102428009AB2FB681A807B689B6A9A1C7B689A62DE
:1024380029E07B681B685B689BB2DBB29AB2FB68D9
:102448001A807B689B6A5A1C7B689A621BE07B68CF
:102458001B69002B0AD17B681B6858687B689B6ADC
:10246800591C7A689162C2B21A700CE07B681B68CA
:102478005B68DAB27B689B6A581C7968886202F0EC
:102488007F02D2B21A707B68DB8D9BB2013B9BB294
:102498007A681946D185002B20D17B681B68DA68D9
:1024A8007B681B6822F02002DA607B681B68DA68A8
:1024B8007B681B6822F48072DA607B681B685A6943
:1024C8007B681B6822F001025A617B68202283F82E
:1024D8003A207868FFF78AFE002302E0002300E034
:1024E800022318461037BD4680BD00002DE9F04F85
:1024F80085B000AF78607B681B681B6923F4405186
:102508007B68DA687B681B680A431A617B689A688B
:102518007B681B691A437B685B691A437B68DB69C4
:102528001343FB607B681B68DB6823F4164323F0C6
:102538000C037A681268F9680B43D3607B681B68E0
:102548005B6923F440717B689A697B681B680A435E
:102558005A617B68DB69B3F5004F40F08B817B687B
:102568001B68C14A934205D07B681B68BF4A9342E7
:1025780040F0BD80FFF736FCB860BB681D464FF0E1
:102588000006A846B14618EB080349EB090498462B
:10259800A14618EB050849EB06094FF000014FF07A
:1025A80000024FEAC90242EA58724FEAC801884657
:1025B800914618EB050049EB06017B685B681D46F0
:1025C8004FF000066B1946EB06041A462346FDF742
:1025D800FFFD03460C461A46A54BA3FB02235B09E5
:1025E8004FEA0318BB681D464FF00006A946B246DD
:1025F80019EB09034AEB0A049946A24619EB0509A7
:102608004AEB060A4FF000014FF000024FEACA02F7
:1026180042EA59724FEAC9018946924619EB050008
:102628004AEB06017B685B681D464FF000066B1994
:1026380046EB06041A462346FDF7CAFD03460C4638
:102648001A468B4BA3FB02135B09642101FB03F3BE
:10265800D31ADB003233864AA2FB03235B095B00F3
:1026680003F4F8739844BB681D464FF00006A9466A
:10267800B24619EB09034AEB0A049946A24619EB3C
:1026880005094AEB060A4FF000014FF000024FEA35
:10269800CA0242EA59724FEAC9018946924619EBC1
:1026A80005004AEB06017B685B681D464FF0000693
:1026B8006B1946EB06041A462346FDF789FD0346C7
:1026C8000C461A466A4BA3FB02135B09642101FB03
:1026D80003F3D31ADB003233654AA2FB03235B09F9
:1026E80003F007027B681B6842449A606FE2FFF7B9
:1026F80065FBB860BB681D464FF00006A846B146AA
:1027080018EB080349EB09049846A14618EB05089D
:1027180049EB06094FF000014FF000024FEAC902E9
:1027280042EA58724FEAC8018846914618EB0500FC
:1027380049EB06017B685B681D464FF000066B1984
:1027480046EB06041A462346FDF742FD03460C46AF
:102758001A46474BA3FB02235B094FEA0318BB68E1
:102768001D464FF00006A946B24619EB09034AEB8D
:102778000A049946A24619EB05094AEB060A4FF0E6
:1027880000014FF000024FEACA0242EA59724FEACA
:10279800C9018946924619EB05004AEB06017B6898
:1027A8005B681D464FF000066B1946EB06041A4697
:1027B8002346FDF70DFD03460C461A462C4BA3FB9A
:1027C80002135B09642101FB03F3D31ADB003233E4
:1027D800274AA2FB03235B095B0003F4F8739844C0
:1027E800BB681D464FF00006A946B24619EB09031F
:1027F8004AEB0A049946A24619EB05094AEB060A70
:102808004FF000014FF000024FEACA0242EA597243
:102818004FEAC9018946924619EB05004AEB0601C1
:102828007B685B681D464FF000066B1946EB060493
:102838001A462346FDF7CCFC03460C461A460C4BB9
:10284800A3FB02135B09642101FB03F3D31ADB002A
:102858003233074AA2FB03235B0903F007027B68B4
:102868001B6842449A60B2E1001001400014014024
:102878001F85EB517B681B68D74A934205D07B685C
:102888001B68D64A934240F0D180FFF7ABFAB86094
:10289800BB689A464FF0000BD046D94618EB0803A0
:1028A80049EB09049846A14618EB0A0849EB0B09BD
:1028B8004FF000014FF000024FEAC90242EA587295
:1028C8004FEAC801884691461AEB08054BEB090602
:1028D8007B685B6819464FF000024FF000034FF029
:1028E8000004940044EA91748B001A462346284653
:1028F8003146FDF76DFC03460C461A46B84BA3FB60
:1029080002235B094FEA0318BB689B464FF0000C93
:10291800D946E24619EB09034AEB0A049946A2464E
:1029280019EB0B094AEB0C0A4FF000014FF00002BB
:102938004FEACA0242EA59724FEAC90189469246E9
:102948001BEB09054CEB0A067B685B6819464FF0E0
:1029580000024FF000034FF00004940044EA917421
:102968008B001A46234628463146FDF731FC0346BC
:102978000C461A469A4BA3FB02135B09642101FB20
:1029880003F3D31A1B013233954AA2FB03235B09D5
:1029980003F0F0039844BB689B464FF0000CD946FF
:1029A800E24619EB09034AEB0A049946A24619EBD9
:1029B8000B094AEB0C0A4FF000014FF000024FEAF6
:1029C800CA0242EA59724FEAC901894692461BEB8C
:1029D80009054CEB0A067B685B6819464FF0000254
:1029E8004FF000034FF00004940044EA91748B0008
:1029F8001A46234628463146FDF7EAFB03460C46AD
:102A08001A46774BA3FB02135B09642101FB03F30E
:102A1800D31A1B013233724AA2FB03235B0903F06A
:102A28000F027B681B6842449A60D0E0FFF7C6F942
:102A3800B860BB689A464FF0000BD046D94618EBF1
:102A4800080349EB09049846A14618EB0A0849EB24
:102A58000B094FF000014FF000024FEAC90242EAA9
:102A680058724FEAC801884691461AEB08054BEBA5
:102A780009067B685B6819464FF000024FF00003B7
:102A88004FF00004940044EA91748B001A462346E0
:102A980028463146FDF79CFB03460C461A46504B28
:102AA800A3FB02235B094FEA0318BB689B464FF060
:102AB800000CD946E24619EB09034AEB0A04994689
:102AC800A24619EB0B094AEB0C0A4FF000014FF034
:102AD80000024FEACA0242EA59724FEAC90189461E
:102AE80092461BEB09054CEB0A067B685B681946A6
:102AF8004FF000024FF000034FF00004940044EA46
:102B080091748B001A46234628463146FDF760FB30
:102B180003460C461A46324BA3FB02135B09642199
:102B280001FB03F3D31A1B0132332D4AA2FB032303
:102B38005B0903F0F0039844BB689B464FF0000C18
:102B4800D946E24619EB09034AEB0A049946A2461C
:102B580019EB0B094AEB0C0A4FF000014FF0000289
:102B68004FEACA0242EA59724FEAC90189469246B7
:102B78001BEB09054CEB0A067B685B6819464FF0AE
:102B880000024FF000034FF00004940044EA9174EF
:102B98008B001A46234628463146FDF719FB0346A3
:102BA8000C461A460E4BA3FB02135B09642101FB7A
:102BB80003F3D31A1B013233094AA2FB03235B092F
:102BC80003F00F027B681B6842449A60FFE700BF6E
:102BD8001437BD46BDE8F08F0010014000140140D5
:102BE8001F85EB51014B1868704700BF0C0000208F
:102BF80070B50D4E0D4CA41BA4100025A54209D19B
:102C08000B4E0C4C00F088FCA41BA4100025A54218
:102C180005D170BD56F8253098470135EEE756F8CE
:102C2800253098470135F2E7C0350008C03500085F
:102C3800C0350008C435000802440346934200D159
:102C4800704703F8011BF9E770B50E46054618B141
:102C580083690BB900F00CFAAB69AC6813B9284664
:102C680000F006FA234B9C4217D16C68A3891B0716
:102C78001DD52369DBB1013EA36816F8011F013B8E
:102C8800A360E9B9002B2EDA22460A21284600F073
:102C98003FF8013011D00A2011E0174B9C4201D1B6
:102CA800AC68E3E7154B9C4208BFEC68DEE72146B9
:102CB800284600F07FF80028DDD04FF0FF3070BDC7
:102CC800002B04DAA2699A4206DC0A2904D0236898
:102CD8005A1C22601970CFE72246284600F018F8DF
:102CE8000130C9D1E9E723680A205A1C226018700C
:102CF800E5E700BF78350008983500085835000822
:102D0800024B01461868FFF79FBF00BF0C00002068
:102D1800F8B50E461446054618B183690BB900F09C
:102D2800A7F9214B9C422AD16C68A369A360A389A7
:102D38001A072ED5236963B323692068C01A63690B
:102D4800F6B28342374604DC2146284600F026F9CD
:102D580028BBA368013BA36023685A1C22601E702D
:102D680063690130834204D0A389DB0719D50A2E91
:102D780017D12146284600F011F990B10FE00B4B0E
:102D88009C4201D1AC68D0E7094B9C4208BFEC6873
:102D9800CBE72146284600F00DF80028CCD04FF0AC
:102DA800FF373846F8BD00BF783500089835000869
:102DB80058350008324B70B51D6806460C4625B1DB
:102DC800AB6913B9284600F053F92E4B9C420FD13A
:102DD8006C68B4F90C309AB215072CD4D00611D40B
:102DE8000922326043F04003A3814FF0FF303EE0F8
:102DF800254B9C4201D1AC68EBE7244B9C4208BFB1
:102E0800EC68E6E7510712D5616B41B104F1440360
:102E1800994202D0304600F019FA00236363A3896F
:102E280023F02403A3810023636023692360A3891B
:102E380043F00803A38123694BB9A38903F42073E2
:102E4800B3F5007F03D02146304600F0BFF9A289D0
:102E580012F001030CD00023A36063695B42A361F5
:102E6800236953B9B4F90C3013F08000BAD170BD9E
:102E7800920758BF6369A360F2E70020F7E700BF35
:102E88000C000020783500089835000858350008EF
:102E98008A892DE9F041054610070C4658D44B683D
:102EA800002B05DC0B6C002B02DC0020BDE8F08158
:102EB800E66A002EF9D0002312F480522F68216AA6
:102EC8002B6032D0606DA3895A0705D56368C01A94
:102ED800636B0BB1236CC01A00230246E66A216AB1
:102EE8002846B047431CA38906D129681D2948D81C
:102EF800294ACA40D60744D500226260D90422690B
:102F0800226004D5421C01D12B6803B96065616B4E
:102F18002F600029C9D004F14403994202D0284601
:102F280000F094F900206063C0E701232846B04709
:102F3800411CC8D12B68002BC5D01D2B01D0162BE6
:102F480001D12F60B1E7A38943F04003A381ADE726
:102F58000F69002FA9D093070E6808BF4B690F604F
:102F680018BF0023A6EB07088B60B8F1000F9CDDA3
:102F780043463A46216AA66A2846B047002806DC36
:102F8800A38943F04003A3814FF0FF308EE7074445
:102F9800A8EB0008E9E700BF0100402038B50B693D
:102FA80005460C46DBB118B183690BB900F060F82F
:102FB8000C4B9C4209D16C68B4F90C307BB12146AA
:102FC8002846BDE83840FFF763BF074B9C4201D154
:102FD800AC68F1E7054B9C4208BFEC68ECE70020C1
:102FE80038BD00BF78350008983500085835000806
:102FF800002310B50446C0E900338360818143662D
:10300800C281C0E904338361194608225C30FFF7A6
:1030180013FE054B6362054BA362054BE362054B48
:103028002462236310BD00BFC5330008E7330008DE
:103038001F34000843340008014900F085B800BF78
:10304800A52F000870B54A1E682555430E4605F1A0
:10305800740100F049F9044640B10021C0E90016A6
:103068000C30A06005F16802FFF7E6FD204670BD50
:10307800836910B5044633BBC0E912330365124BAC
:10308800124A1B688262984204BF0123836100F0E0
:103098001FF86060204600F01BF8A060204600F092
:1030A80017F80022E06004216068FFF7A1FF012201
:1030B8000921A068FFF79CFF02221221E068FFF7B0
:1030C80097FF0123A36110BD543500084130000863
:1030D800F8B51B4B1E68B369074613B93046FFF7AE
:1030E800C7FF4836D6E90134013B03D5336833B10D
:1030F8003668F7E7B4F90C506DB16834F4E7042189
:103108003846FFF79FFF30600028F1D10C233B6061
:1031180004462046F8BD0B4B6566C4E90055A5601A
:10312800C4E90335C4E905550822294604F15C00C1
:10313800FFF782FDC4E90D55C4E91255E9E700BF60
:10314800543500080100FFFF2DE9F8438046894601
:1031580000F14804002614B93046BDE8F883D4E9E4
:103168000175013F01D52468F5E7AB89012B07D923
:10317800B5F90E30013303D029464046C847064307
:103188006835EEE770B50E46B1F90E10002996B015
:1031980014461D4607DA00232B60B3891A0610D49B
:1031A8004FF480630EE06A4600F06EF90028F2DB07
:1031B800019A02F47042A2F500535A425A412A6019
:1031C800EEE740230020236016B070BD8B8973B5ED
:1031D8009D0706460C4607D504F147032360236183
:1031E8000123636102B070BD01AB6A46FFF7CAFFF5
:1031F80000990546304600F077F848B9B4F90C3024
:103208009A05EFD423F0030343F00203A381E3E715
:103218000D4BB362A389206043F08003A381009B18
:103228006361019B20615BB1B4F90E10304600F078
:103238003DF928B1A38923F0030343F00103A381D7
:10324800A3891D43A581CDE74130000838B505465F
:10325800002945D051F8043C0C1F002BB8BFE418D6
:1032680000F046F91F4A1368104633B963601460CA
:103278002846BDE8384000F03CB9A3420CD9216883
:103288006218934204BF1A685B68636004BF5218EF
:1032980022600460ECE713465A680AB1A242FAD9E0
:1032A80019685818A0420BD1206801445818824266
:1032B8001960DDD1106852685A6001441960D7E777
:1032C80002D90C232B60D3E7206821188A4204BF57
:1032D80011685268626004BF091821605C60C7E722
:1032E80038BD00BF9000002070B5CD1C25F0030547
:1032F80008350C2D38BF0C25002D064601DBA942E8
:1033080003D90C233360002070BD00F0F1F8214A86
:103318001468214691B9204C23681BB9304600F047
:103328003DF820602946304600F038F8431C24D187
:103338000C233360304600F0DCF8E4E70B685B1BD5
:1033480018D40B2B0FD90B60CD50CC18304600F099
:10335800D0F804F10B00231D20F00700C31AD3D0C6
:103368005A42E250D0E78C424B6816BF6360136044
:103378000C46EBE70C464968CCE7C41C24F0030470
:10338800A04205D0211A304600F008F80130CFD00D
:103398002560DBE7900000209400002038B5064C3B
:1033A8000023054608462360FDF7FCFB431C02D1B9
:1033B800236803B12B6038BDB001002010B50C465E
:1033C800B1F90E1000F096F80028ABBF636DA38921
:1033D8001B1823F48053ACBF6365A38110BD2DE98E
:1033E800F0411F468B89DB0505460C46164605D578
:1033F80002230022B1F90E1000F068F8A389B4F98D
:103408000E1023F48053A38132463B462846BDE87C
:10341800F04100F017B810B50C46B1F90E1000F0E5
:1034280055F8431CA38915BF606523F4805343F402
:103438008053A38118BFA38110BDB1F90E1000F00D
:1034480013B8000038B5074C054608461146002257
:1034580022601A46FDF755FB431C02D1236803B1CD
:103468002B6038BDB001002038B5064C0023054656
:1034780008462360FDF761FB431C02D1236803B1B2
:103488002B6038BDB001002038B5074C0023054635
:10349800084611462360FDF75CFB431C02D12368F4
:1034A80003B12B6038BD00BFB001002038B5064C11
:1034B8000023054608462360FDF75BFB431C02D149
:1034C800236803B12B6038BDB001002038B5074C24
:1034D800054608461146002222601A46FDF754FBAD
:1034E800431C02D1236803B12B6038BDB001002012
:1034F8007047704738B5074C054608461146002204
:1035080022601A46FDF7E0FA431C02D1236803B192
:103518002B6038BDB0010020F8B500BFF8BC08BC6E
:103528009E467047F8B500BFF8BC08BC9E46704779
:1035380046415100000000000000000001020304A1
:10354800060708090000000001020304100000201B
:103558000000000000000000000000000000000063
:103568000000000000000000000000000000000053
:103578000000000000000000000000000000000043
:103588000000000000000000000000000000000033
:103598000000000000000000000000000000000023
:1035A8000000000000000000000000000000000013
:0835B80050CCFF7F0100000070
:0435C000BD01000841
:0435C4009901000861
:1035C8000024F4001000000001000000100000209A
:1035D80000000000783500089835000858350008C4
:1035E80000000000000000000000000000000000D3
:1035F80000000000000000000000000000000000C3
:1036080000000000000000000000000000000000B2
:1036180000000000000000000000000000000000A2
:103628000000000000000000000000000000000092
:0400000508000C459E
:00000001FF
