:020000040800F2
:1000000000000220451800081D17000823170008EB
:10001000291700082F1700083517000800000000F6
:100020000000000000000000000000003B17000876
:10003000491700080000000057170008651700085E
:1000400095180008951800089518000895180008DC
:1000500095180008951800089518000895180008CC
:1000600095180008951800089518000895180008BC
:1000700095180008951800089518000895180008AC
:100080009518000895180008951800080000000051
:1000900000000000000000000000000095180008AB
:1000A000951800089518000895180008951800087C
:1000B000951800089518000895180008951800086C
:1000C000951800089518000895180008951800085C
:1000D0009518000871170008851700080000000037
:1000E00095180008951800089518000800000000F1
:1000F000000000000000000000000000951800084B
:1001000000000000951800089518000895180008D0
:1001100000000000000000000000000000000000DF
:1001200095180008951800089518000895180008FB
:10013000951800080000000000000000000000000A
:1001400000000000000000000000000095180008FA
:1001500095180008951800089518000899170008C8
:100160009518000895180008000000000000000025
:10017000000000000000000000000000000000007F
:1001800000000000951800080000000000000000BA
:080190009518000895180008FD
:1001980010B5054C237833B9044B13B10448AFF3B9
:1001A80000800123237010BDDC0100200000000046
:1001B800E05E000808B5034B1BB103490348AFF3E1
:1001C800008008BD00000000E0010020E05E00089B
:1001D800034613F8012B002AFBD1181A013870477F
:1001E80081F0004102E000BF83F0004330B54FEAE0
:1001F80041044FEA430594EA050F08BF90EA020F4D
:100208001FBF54EA000C55EA020C7FEA645C7FEADF
:10021800655C00F0E2804FEA5454D4EB5555B8BF02
:100228006D420CDD2C4480EA020281EA030382EA73
:10023800000083EA010180EA020281EA0303362D05
:1002480088BF30BD11F0004F4FEA01314FF4801CD8
:100258004CEA113102D0404261EB410113F0004FEA
:100268004FEA03334CEA133302D0524263EB4303A1
:1002780094EA050F00F0A780A4F10104D5F1200E3F
:100288000DDB02FA0EFC22FA05F2801841F100019A
:1002980003FA0EF2801843FA05F359410EE0A5F16E
:1002A80020050EF1200E012A03FA0EFC28BF4CF09F
:1002B800020C43FA05F3C01851EBE37101F0004555
:1002C80007D54FF0000EDCF1000C7EEB00006EEB62
:1002D8000101B1F5801F1BD3B1F5001F0CD34908EC
:1002E8005FEA30004FEA3C0C04F101044FEA445243
:1002F80012F5800F80F09A80BCF1004F08BF5FEACA
:10030800500C50F1000041EB045141EA050130BDA9
:100318005FEA4C0C404141EB010111F4801FA4F14C
:100328000104E9D191F0000F04BF01460020B1FAA1
:1003380081F308BF2033A3F10B03B3F120020CDAD9
:100348000C3208DD02F1140CC2F10C0201FA0CF0B7
:1003580021FA02F10CE002F11402D8BFC2F1200C1C
:1003680001FA02F120FA0CFCDCBF41EA0C019040D2
:10037800E41AA2BF01EB0451294330BD6FEA04041B
:100388001F3C1CDA0C340EDC04F11404C4F1200206
:1003980020FA04F001FA02F340EA030021FA04F318
:1003A80045EA030130BDC4F10C04C4F1200220FA6F
:1003B80002F001FA04F340EA0300294630BD21FAAD
:1003C80004F0294630BD94F0000F83F4801306BF73
:1003D80081F480110134013D4EE77FEA645C18BF67
:1003E8007FEA655C29D094EA050F08BF90EA020FFE
:1003F80005D054EA000C04BF1946104630BD91EAF6
:10040800030F1EBF0021002030BD5FEA545C05D1F8
:100418004000494128BF41F0004130BD14F5800437
:100428003CBF01F5801130BD01F0004545F0FE41AB
:1004380041F470014FF0000030BD7FEA645C1ABFE0
:10044800194610467FEA655C1CBF0B46024650EA17
:10045800013406BF52EA033591EA030F41F4002143
:1004680030BD00BF90F0000F04BF0021704730B5C9
:100478004FF4806404F132044FF000054FF000019E
:1004880050E700BF90F0000F04BF0021704730B55F
:100498004FF4806404F1320410F0004548BF404234
:1004A8004FF000013EE700BF42004FEAE2014FEA89
:1004B80031014FEA02701FBF12F07F4393F07F4F64
:1004C80081F06051704732F07F4208BF704793F067
:1004D8007F4F04BF41F40021704730B54FF460747A
:1004E80001F0004521F000411CE700BF50EA01027D
:1004F80008BF704730B54FF000050AE050EA010226
:1005080008BF704730B511F0004502D5404261EB95
:1005180041014FF4806404F132045FEA915C3FF4D6
:10052800D8AE4FF003025FEADC0C18BF03325FEA73
:10053800DC0C18BF033202EBDC02C2F1200300FA24
:1005480003FC20FA02F001FA03FE40EA0E0021FA49
:1005580002F11444BDE600BF70B54FF0FF0C4CF437
:10056800E06C1CEA11541DBF1CEA135594EA0C0FE9
:1005780095EA0C0F00F0DEF82C4481EA030621EA24
:100588004C5123EA4C5350EA013518BF52EA03355F
:1005980041F4801143F4801338D0A0FB02CE4FF011
:1005A8000005E1FB02E506F00042E0FB03E54FF041
:1005B8000006E1FB03569CF0000F18BF4EF0010E39
:1005C800A4F1FF04B6F5007F64F5407404D25FEA35
:1005D8004E0E6D4146EB060642EAC62141EA5551E8
:1005E8004FEAC52040EA5E504FEACE2EB4F1FD0C2A
:1005F80088BFBCF5E06F1ED8BEF1004F08BF5FEAA8
:10060800500E50F1000041EB045170BD06F0004659
:1006180046EA010140EA020081EA0301B4EB5C0406
:10062800C2BFD4EB0C0541EA045170BD41F48011FE
:100638004FF0000E013C00F3AB8014F1360FDEBF23
:10064800002001F0004170BDC4F10004203C35DAFF
:100658000C341BDC04F11404C4F1200500FA05F382
:1006680020FA04F001FA05F240EA020001F0004223
:1006780021F0004110EBD37021FA04F642EB060199
:100688005EEA430E08BF20EAD37070BDC4F10C04C3
:10069800C4F1200500FA04F320FA05F001FA04F287
:1006A80040EA020001F0004110EBD37041F1000173
:1006B8005EEA430E08BF20EAD37070BDC4F120057E
:1006C80000FA05F24EEA020E20FA04F301FA05F2E6
:1006D80043EA020321FA04F001F0004121FA04F28E
:1006E80020EA020000EBD3705EEA430E08BF20EA5E
:1006F800D37070BD94F0000F0FD101F00046400098
:1007080041EB010111F4801F08BF013CF7D041EA19
:10071800060195F0000F18BF704703F0004652001D
:1007280043EB030313F4801F08BF013DF7D043EAEE
:100738000603704794EA0C0F0CEA135518BF95EAA4
:100748000C0F0CD050EA410618BF52EA4306D1D12B
:1007580081EA030101F000414FF0000070BD50EA4A
:10076800410606BF1046194652EA430619D094EAD4
:100778000C0F02D150EA013613D195EA0C0F05D1BE
:1007880052EA03361CBF104619460AD181EA030112
:1007980001F0004141F0FE4141F470014FF00000CA
:1007A80070BD41F0FE4141F4780170BD70B54FF065
:1007B800FF0C4CF4E06C1CEA11541DBF1CEA1355E5
:1007C80094EA0C0F95EA0C0F00F0A7F8A4EB0504C7
:1007D80081EA030E52EA03354FEA013100F08880BE
:1007E8004FEA03334FF0805545EA131343EA126387
:1007F8004FEA022245EA111545EA10654FEA00263C
:100808000EF000419D4208BF964244F1FD0404F5F4
:10081800407402D25B084FEA3202B61A65EB030550
:100828005B084FEA32024FF480104FF4002CB6EB0D
:10083800020E75EB030E22BFB61A754640EA0C008D
:100848005B084FEA3202B6EB020E75EB030E22BFCD
:10085800B61A754640EA5C005B084FEA3202B6EB0E
:10086800020E75EB030E22BFB61A754640EA9C00CD
:100878005B084FEA3202B6EB020E75EB030E22BF9D
:10088800B61A754640EADC0055EA060E18D04FEA5B
:10089800051545EA16754FEA06164FEAC30343EAFB
:1008A80052734FEAC2025FEA1C1CC0D111F4801FC8
:1008B8000BD141EA00014FF000004FF0004CB6E7C1
:1008C80011F4801F04BF01430020B4F1FD0C88BF60
:1008D800BCF5E06F3FF6AFAEB5EB030C04BFB6EB6B
:1008E800020C5FEA500C50F1000041EB045170BD5E
:1008F8000EF0004E4EEA113114EB5C04C2BFD4EB8B
:100908000C0541EA045170BD41F480114FF0000E0E
:10091800013C90E645EA060E8DE60CEA135594EA8A
:100928000C0F08BF95EA0C0F3FF43BAF94EA0C0F8D
:100938000AD150EA01347FF434AF95EA0C0F7FF402
:1009480025AF104619462CE795EA0C0F06D152EA56
:1009580003353FF4FDAE1046194622E750EA41063A
:1009680018BF52EA43067FF4C5AE50EA41047FF44B
:100978000DAF52EA43057FF4EBAE12E74FF0FF3CB0
:1009880006E000BF4FF0010C02E000BF4FF0010C81
:100998004DF804CD4FEA410C7FEA6C5C4FEA430CFA
:1009A80018BF7FEA6C5C1BD001B050EA410C0CBF49
:1009B80052EA430C91EA030F02BF90EA020F0020AB
:1009C800704710F1000F91EA030F58BF994208BF12
:1009D80090422CBFD8176FEAE37040F001007047CF
:1009E8004FEA410C7FEA6C5C02D150EA013C07D126
:1009F8004FEA430C7FEA6C5CD6D152EA033CD3D071
:100A08005DF8040B704700BF8446104662468C466A
:100A18001946634600E000BF01B5FFF7B7FF00289D
:100A280048BF10F1000F01BD4DF808EDFFF7F4FFC6
:100A38000CBF012000205DF808FB00BF4DF808ED51
:100A4800FFF7EAFF34BF012000205DF808FB00BF74
:100A58004DF808EDFFF7E0FF94BF012000205DF896
:100A680008FB00BF4DF808EDFFF7CEFF94BF01204B
:100A780000205DF808FB00BF4DF808EDFFF7C4FF44
:100A880034BF012000205DF808FB00BF4FEA410C8D
:100A98007FEA6C5C02D150EA013C0AD14FEA430C70
:100AA8007FEA6C5C02D152EA033C02D14FF00000AD
:100AB80070474FF0010070474FEA410212F50012EB
:100AC80015D211D56FF47873B3EB625212D94FEA8D
:100AD800C12343F0004343EA505311F0004F23FA77
:100AE80002F018BF404270474FF00000704750EACC
:100AF800013005D111F0004008BF6FF00040704789
:100B08004FF00000704700BF53B94AB9002908BF29
:100B180000281CBF4FF0FF314FF0FF3000F072B9D2
:100B2800ADF1080C6DE904CE00F006F8DDF804E03C
:100B3800DDE9022304B070472DE9F047089E04461A
:100B48008846002B4BD18A42154667D9B2FA82F201
:100B58004AB1C2F1200701FA02F320FA07F79540DB
:100B680047EA030894404FEA154E230CB8FBFEF7FA
:100B78001FFA85FC0EFB178843EA084307FB0CF1B4
:100B8800994209D9EB1807F1FF3080F01B8199428F
:100B980040F21881023F2B445B1AA4B2B3FBFEF06B
:100BA8000EFB103344EA034400FB0CFCA44509D9AE
:100BB8002C1900F1FF3380F00781A44540F204812D
:100BC80002382C4440EA0740A4EB0C0400271EB16D
:100BD800D4400023C6E900433946BDE8F0878B427C
:100BE80009D9002E00F0EB800027C6E9000138463D
:100BF8003946BDE8F087B3FA83F7002F47D18B4217
:100C080002D3824200F2FA80841A61EB03030120C6
:100C18009846002EE0D0C6E90048DDE702B9FFDEBD
:100C2800B2FA82F2002A40F08F80491B4FEA154E33
:100C38001FFA85F80127B1FBFEFC230C0EFB1C11E3
:100C480043EA014308FB0CF1994207D9EB180CF170
:100C5800FF3002D2994200F2CD808446591AA3B2DD
:100C6800B1FBFEF00EFB101443EA044408FB00F845
:100C7800A04507D92C1900F1FF3302D2A04500F294
:100C8800B6801846A4EB080440EA0C409FE7C7F179
:100C9800200CBB4022FA0CFE4EEA030E01FA07F4C0
:100CA80020FA0CF521FA0CF34FEA1E482543B3FB52
:100CB800F8F92C0C08FB19331FFA8EFA44EA03439F
:100CC80009FB0AF49C4202FA07F200FA07F10BD971
:100CD8001EEB030309F1FF3080F087809C4240F24D
:100CE8008480A9F1020973441B1BADB2B3FBF8F071
:100CF80008FB103345EA034400FB0AFAA24508D969
:100D08001EEB040400F1FF336BD2A24569D9023807
:100D1800744440EA0940A0FB0289A4EB0A044C454C
:100D2800C2464B4654D351D0002E69D0B1EB0A05C8
:100D380064EB030404FA0CFCFD40FC404CEA050596
:100D4800C6E90054002747E7C2F1200320FA03F759
:100D5800954001FA02F021FA03F34FEA154E3843A1
:100D6800010CB3FBFEF71FFA85F80EFB173341EAB7
:100D7800034107FB08F38B4204FA02F407D9691808
:100D880007F1FF3C2FD28B422DD9023F2944CB1AC1
:100D980081B2B3FBFEF00EFB103341EA034100FBC6
:100DA80008F38B4207D9691800F1FF3C17D28B4230
:100DB80015D902382944C91A40EA07473BE737469C
:100DC800304609E70746E7E61846FBE64145ABD259
:100DD800B8EB020A69EB0E0201381346A4E7604635
:100DE800E9E7184695E76746D1E781467CE7023888
:100DF8002C4447E7ACF1020C2B442FE7384608E7B0
:100E08003746E9E6704700BF80B586B000AF3B1DA6
:100E180000221A605A609A60DA601A6100233B6007
:100E2800114B1B6B104A43F0040313630E4B1B6BEF
:100E380003F004033B603B6801224FF400510B4868
:100E480001F070F84FF400537B600123BB6000236E
:100E5800FB6002233B613B1D1946044800F0E0FE9D
:100E680000BF1837BD4680BD003802400008024068
:100E780098B500AF04464FF40051094801F06BF8EB
:100E88002346184600F076FD4FF40051044801F05F
:100E980062F82346184600F06DFD00BF98BD00BFFC
:100EA8000008024080B586B000AF3B1D00221A60E2
:100EB8005A609A60DA601A6100233B602A4B1B6B08
:100EC800294A43F001031363274B1B6B03F001030B
:100ED8003B603B6801228021244801F023F801226D
:100EE8004021224801F01EF8012220211F4801F06C
:100EF80019F880237B600123BB600023FB60022379
:100F08003B613B1D1946194800F08AFE00228021EA
:100F1800164801F007F840237B600123BB600023DB
:100F2800FB6002233B613B1D1946104800F078FE28
:100F3800002240210D4800F0F5FF20237B600123AB
:100F4800BB600023FB6002233B613B1D1946074839
:100F580000F066FE00222021044800F0E3FF00BFF5
:100F68001837BD4680BD00BF00380240000002406F
:100F780080B500AF4FF47A7000F0FCFC01228021AC
:100F8800124800F0CFFF01224021104800F0CAFFAC
:100F9800012220210D4800F0C5FF4FF47A7000F0BF
:100FA800E9FC00228021094800F0BCFF0022402112
:100FB800064800F0B7FF00222021044800F0B2FFE5
:100FC8004FF47A7000F0D6FC00BF80BD00000240EC
:100FD80080B500AF00F002F800BF80BD80B582B0D8
:100FE80000AF1F4800F0D2FF80216B2000F0B8F856
:100FF80000216B2000F0B4F8032000F033F8002043
:1010080000F041F8322000F080F80021382000F08C
:10101800A7F800216A2000F0A3F80021232000F09F
:101028009FF88021372000F09BF8752000F0BCF86D
:101038000346FB71FB79682B0CD101216B2000F072
:101048008FF800216C2000F08BF8322000F05DF85A
:10105800002300E0012318460837BD4680BD00BFC5
:101068000402002080B582B000AF0346FB71FB7913
:10107800DB00DBB219461B2000F072F80346184665
:101088000837BD4680BD80B582B000AF0346FB710E
:10109800FB79DB00DBB219461C2000F061F803463F
:1010A80018460837BD4680BD80B584B000AF0346FA
:1010B800FB800023FB73FB88BB2B02D90123FB7346
:1010C80019E0FB88612B02D90223FB7313E0FB882C
:1010D800292B02D90323FB730DE0FB88132B02D9BC
:1010E8000423FB7307E0FB88092B02D90523FB7354
:1010F80001E00623FB73FB7B19461A2000F030F849
:10110800034618461037BD4680BD80B584B000AF91
:101118000346FB80FB88B3F57A7F02D94FF47A73D4
:10112800FB80FB88032B01D80423FB80FB884FF44A
:101138007A7292FBF3F3DBB2013BFB73FB7B19463C
:10114800192000F00DF80346FB73FB885B089BB27F
:101158001846FFF7A9FF034618461037BD4680BD5D
:1011680080B588B004AF03460A46FB711346BB71CD
:10117800BB79FB73FB799AB240F6FF7302930123A4
:10118800019307F10F0300930123D021054801F0D3
:1011980035F8642000F0EEFB002318461037BD46F2
:1011A80080BD00BF0402002080B588B004AF0346AC
:1011B800FB710023FB73FB799AB240F6FF7302932D
:1011C8000123019307F10F0300930123D12105485F
:1011D80001F00EF9642000F0CDFBFB7B18461037B8
:1011E800BD4680BD0402002080B500AF00F050FB72
:1011F80000F01CF800F024F900F076F800F0CCF8C4
:1012080000F0F4F800F09EF8FFF7E2FEFFF74AFE60
:10121800FFF7FAFDFFF7ACFE01220249024802F08F
:10122800F2FAFEE799030020D802002080B594B0B6
:1012380000AF07F1200330220021184603F026F9F9
:1012480007F10C0300221A605A609A60DA601A618A
:101258000023BB60224B1B6C214A43F0805313646C
:101268001F4B1B6C03F08053BB60BB6800237B6083
:101278001C4B1B681B4A43F440431360194B1B6803
:1012880003F440437B607B6802233B620123FB62DB
:1012980010233B630023BB6307F12003184601F0CA
:1012A80029FE0346002B01D000F0F2F80F23FB6063
:1012B80000233B6100237B610023BB610023FB61AA
:1012C80007F10C030021184602F084F80346002BAE
:1012D80001D000F0DDF800BF5037BD4680BD00BF2B
:1012E800003802400070004080B500AF124B134A2E
:1012F8001A60114B124A5A600F4B00229A600E4B2B
:101308000022DA600C4B4FF480421A610A4B00222B
:101318005A61094B00229A61074B0022DA61064B99
:1013280000221A62044800F031FE0346002B01D067
:1013380000F0AEF800BF80BD040200200054004059
:10134800801A060080B500AF114B124A1A60104B84
:101358004FF4E1325A600E4B00229A600C4B002287
:10136800DA600B4B00221A61094B0C225A61084BB8
:1013780000229A61064B0022DA61054802F0F6F96C
:101388000346002B01D000F083F800BF80BD00BFEA
:10139800580200200010014080B500AF114B124ADE
:1013A8001A60104B4FF416525A600E4B00229A6086
:1013B8000C4B0022DA600B4B00221A61094B0C22FD
:1013C8005A61084B00229A61064B0022DA610548EF
:1013D80002F0CCF90346002B01D000F059F800BF09
:1013E80080BD00BFD80200200044004080B500AF97
:1013F800114B124A1A60104B4FF4E1325A600E4BEF
:1014080000229A600C4B0022DA600B4B00221A6112
:10141800094B0C225A61084B00229A61064B0022A4
:10142800DA61054802F0A2F90346002B01D000F06A
:101438002FF800BF80BD00BF9802002000140140B3
:1014480080B483B000AF00237B60104B1B6B0F4A46
:1014580043F0010313630D4B1B6B03F001037B6027
:101468007B6800233B60094B1B6B084A43F002036F
:101478001363064B1B6B03F002033B603B6800BF22
:101488000C37BD465DF8047B704700BF003802404A
:1014980080B500AF72B64FF47A70FFF7E9FCFAE74F
:1014A80080B483B000AF00237B60104B5B6C0F4AA5
:1014B80043F4804353640D4B5B6C03F480437B60BF
:1014C8007B6800233B60094B1B6C084A43F0805340
:1014D8001364064B1B6C03F080533B603B6800BFF2
:1014E8000C37BD465DF8047B704700BF00380240EA
:1014F80080B58AB000AF786007F1140300221A6043
:101508005A609A60DA601A617B681B68194A9342CC
:101518002BD100233B61184B1B6B174A43F0020386
:101528001363154B1B6B03F002033B613B69C0233C
:101538007B611223BB610123FB6103233B6204230C
:101548007B6207F1140319460C4800F069FB00237D
:10155800FB60094B1B6C084A43F400131364064BE9
:101568001B6C03F40013FB60FB6800BF2837BD4603
:1015780080BD00BF00540040003802400004024013
:1015880080B58EB000AF786007F1240300221A609E
:101598005A609A60DA601A617B681B68584A9342FD
:1015A80035D100233B62574B5B6C564A43F010031E
:1015B8005364544B5B6C03F010033B623B6A00239B
:1015C800FB61504B1B6B4F4A43F0010313634D4BB8
:1015D8001B6B03F00103FB61FB694FF4C0637B6283
:1015E8000223BB620023FB6203233B6307237B6365
:1015F80007F124031946444800F012FB0022002199
:10160800252000F0B4FA252000F0CDFA73E07B68BD
:101618001B683E4A934234D10023BB61394B1B6C93
:10162800384A43F400331364364B1B6C03F400331D
:10163800BB61BB6900237B61324B1B6B314A43F0B2
:10164800010313632F4B1B6B03F001037B617B6961
:101658000C237B620223BB620023FB6203233B63F0
:1016680007237B6307F124031946274800F0D8FABB
:1016780000220021262000F07AFA262000F093FAB2
:1016880039E07B681B68224A934234D100233B61CE
:101698001C4B5B6C1B4A43F020035364194B5B6C77
:1016A80003F020033B613B690023FB60154B1B6B78
:1016B800144A43F001031363124B1B6B03F001033D
:1016C800FB60FB684FF4C0537B620223BB620023BC
:1016D800FB6203233B6308237B6307F1240319465A
:1016E800094800F09DFA00220021472000F03FFA47
:1016F800472000F058FA00BF3837BD4680BD00BF0C
:101708000010014000380240000002400044004040
:101718000014014080B400AFFEE780B400AFFEE7DC
:1017280080B400AFFEE780B400AFFEE780B400AF3E
:10173800FEE780B400AF00BFBD465DF8047B70478C
:1017480080B400AF00BFBD465DF8047B704780B42D
:1017580000AF00BFBD465DF8047B704780B500AFA1
:1017680000F0E8F800BF80BD80B500AF024802F085
:101778009FF800BF80BD00BF5802002080B500AFB1
:10178800024802F095F800BF80BD00BFD8020020D3
:1017980080B500AF024802F08BF800BF80BD00BFE3
:1017A8009802002080B586B000AF7860144A154BC7
:1017B800D31A7B617B693B61134B1B68002B02D1F9
:1017C800114B124A1A60104B1A687B6813443A6925
:1017D8009A4207D202F028FE02460C2313604FF00B
:1017E800FF3309E0084B1B68FB60074B1A687B68EE
:1017F8001344054A1360FB6818461837BD4680BD78
:101808000000022000040000F80100203817002022
:1018180080B400AF084BD3F88830074A43F470030C
:10182800C2F88830044B4FF000629A6000BFBD4692
:101838005DF8047B704700BF00ED00E0DFF834D0AE
:10184800002103E00C4B5B58435004310B480C4B10
:1018580042189A42F6D30B4A02E0002342F8043BAE
:10186800094B9A42F9D3FFF7D3FF02F0E3FDFFF7E4
:10187800BBFC704700000220A8610008000000209F
:10188800DC010020DC01002034170020FEE7000006
:1018980080B500AF0E4B1B680D4A43F4007313600C
:1018A8000B4B1B680A4A43F480631360084B1B68A0
:1018B800074A43F480731360032000F04DF90020B9
:1018C80000F008F8FFF7ECFD0023184680BD00BFC4
:1018D800003C024080B582B000AF7860124B1A68B5
:1018E800124B1B7819464FF47A73B3FBF1F3B2FB32
:1018F800F3F3184600F065F90346002B01D00123E5
:101908000EE07B680F2B0AD8002279684FF0FF3071
:1019180000F02DF9064A7B681360002300E00123DC
:1019280018460837BD4680BD00000020080000208A
:101938000400002080B400AF064B1B781A46064B03
:101948001B681344044A136000BFBD465DF8047B5E
:10195800704700BF080000202C17002080B400AF9B
:10196800034B1B681846BD465DF8047B704700BFF3
:101978002C17002080B584B000AF7860FFF7EEFF29
:10198800B8607B68FB60FB68B3F1FF3F05D0094B8B
:101998001B781A46FB681344FB6000BFFFF7DEFFA5
:1019A8000246BB68D31AFA689A42F7D800BF1037C4
:1019B800BD4680BD0800002080B485B000AF7860C7
:1019C8007B6803F00703FB600C4BDB68BB60BA68FD
:1019D8004FF6FF031340BB60FB681A02BB68134352
:1019E80043F0BF6343F40033BB60044ABB68D36071
:1019F80000BF1437BD465DF8047B704700ED00E07A
:101A080080B400AF044BDB681B0A03F007031846D9
:101A1800BD465DF8047B704700ED00E080B483B0FC
:101A280000AF0346FB7197F90730002B0BDBFB79FE
:101A380003F01F02074997F907305B09012000FAF4
:101A480002F241F8232000BF0C37BD465DF8047B45
:101A5800704700BF00E100E080B483B000AF0346E8
:101A68003960FB7197F90730002B0ADB3B68DAB263
:101A78000C4997F907301201D2B20B4483F80023BE
:101A88000AE03B68DAB20849FB7903F00F03043B2C
:101A98001201D2B20B441A7600BF0C37BD465DF86E
:101AA800047B704700E100E000ED00E080B489B0FD
:101AB80000AFF860B9607A60FB6803F00703FB6168
:101AC800FB69C3F10703042B28BF0423BB61FB692F
:101AD8000433062B02D9FB69033B00E000237B613A
:101AE8004FF0FF32BB6902FA03F3DA43BB681A40CE
:101AF8007B699A404FF0FF317B6901FA03F3D943C0
:101B08007B680B40134318462437BD465DF8047BB9
:101B18007047000080B582B000AF78607B68013BF9
:101B2800B3F1807F01D301230FE00A4A7B68013BB0
:101B380053600F214FF0FF30FFF78EFF054B002257
:101B48009A60044B07221A60002318460837BD46DE
:101B580080BD00BF10E000E080B582B000AF7860C3
:101B68007868FFF729FF00BF0837BD4680BD80B5FC
:101B780086B000AF0346B9607A60FB7300237B61CF
:101B8800FFF73EFF78617A68B9687869FFF78EFFDA
:101B9800024697F90F3011461846FFF75DFF00BF60
:101BA8001837BD4680BD80B582B000AF0346FB71D3
:101BB80097F907301846FFF731FF00BF0837BD46D1
:101BC80080BD80B582B000AF78607868FFF7A2FF6B
:101BD800034618460837BD4680BD80B483B000AFC1
:101BE80078607B6893F83530DBB2022B04D07B68D1
:101BF80080225A6501230CE07B68052283F8352092
:101C08007B681B681A687B681B6822F001021A60EF
:101C1800002318460C37BD465DF8047B704700006A
:101C280080B489B000AF7860396000237B610023FD
:101C38003B610023BB610023FB6159E10122FB6981
:101C480002FA03F37B613B681B687A6913403B61C6
:101C58003A697B699A4240F048813B685B68012B8E
:101C68000BD03B685B68022B07D03B685B68112B85
:101C780003D03B685B68122B30D17B689B68BB61E3
:101C8800FB695B00032202FA03F3DB43BA691340E2
:101C9800BB613B68DA68FB695B0002FA03F3BA6967
:101CA8001343BB617B68BA699A607B685B68BB61F8
:101CB8000122FB6902FA03F3DB43BA691340BB61F3
:101CC8003B685B681B0903F00102FB6902FA03F336
:101CD800BA691343BB617B68BA695A607B68DB6881
:101CE800BB61FB695B00032202FA03F3DB43BA69B9
:101CF8001340BB613B689A68FB695B0002FA03F317
:101D0800BA691343BB617B68BA69DA603B685B6890
:101D1800022B03D03B685B68122B23D1FB69DA08DE
:101D28007B68083253F82230BB61FB6903F0070374
:101D38009B000F2202FA03F3DB43BA691340BB612D
:101D48003B681A69FB6903F007039B0002FA03F377
:101D5800BA691343BB61FB69DA087B680832B96961
:101D680043F822107B681B68BB61FB695B00032298
:101D780002FA03F3DB43BA691340BB613B685B6853
:101D880003F00302FB695B0002FA03F3BA69134329
:101D9800BB617B68BA691A603B685B6803F0805373
:101DA800002B00F0A2800023FB60564B5B6C554A69
:101DB80043F480435364534B5B6C03F48043FB60F0
:101DC800FB68514AFB699B08023352F82330BB6118
:101DD800FB6903F003039B000F2202FA03F3DB43C2
:101DE800BA691340BB617B68484A934219D07B6843
:101DF800474A934213D07B68464A93420DD07B688A
:101E0800454A934207D07B68444A934201D1042350
:101E180008E0072306E0032304E0022302E001238D
:101E280000E00023FA6902F0030292009340BA69C5
:101E38001343BB613449FB699B080233BA6941F813
:101E48002320374B1B68BB613B69DB43BA691340EE
:101E5800BB613B685B6803F48033002B03D0BA692D
:101E68003B691343BB612E4ABB6913602C4B5B680B
:101E7800BB613B69DB43BA691340BB613B685B6884
:101E880003F40033002B03D0BA693B691343BB61E9
:101E9800234ABB695360224B9B68BB613B69DB43A8
:101EA800BA691340BB613B685B6803F48013002B7D
:101EB80003D0BA693B691343BB61194ABB69936094
:101EC800174BDB68BB613B69DB43BA691340BB61F5
:101ED8003B685B6803F40013002B03D0BA693B69C5
:101EE8001343BB610E4ABB69D360FB690133FB61D5
:101EF800FB690F2B7FF6A2AE00BF2437BD465DF805
:101F0800047B70470038024000380140000002405E
:101F18000004024000080240000C02400010024089
:101F2800003C014080B483B000AF78600B467B80F2
:101F380013467B707B78002B03D07A887B689A6184
:101F480003E07B881A047B689A6100BF0C37BD46A2
:101F58005DF8047B704780B483B000AF78600B46AF
:101F68007B807B685A697B881A407B889A4204D1B7
:101F78007B881A047B689A6102E07A887B689A6198
:101F880000BF0C37BD465DF8047B704780B584B050
:101F980000AF78607B68002B01D101231FE17B68CB
:101FA80093F83D30DBB2002B06D17B68002283F822
:101FB8003C207868FFF79CFA7B68242283F83D2050
:101FC8007B681B681A687B681B6822F001021A602C
:101FD8007B681B681A687B681B6842F400421A60B9
:101FE8007B681B681A687B681B6822F400421A60C9
:101FF80001F094FBF8607B685B687B4A934207D8E2
:10200800FB687A4A934294BF01230023DBB206E0BF
:10201800FB68774A934294BF01230023DBB2002B6D
:1020280001D00123DBE0FB68724AA2FB03239B0C6F
:10203800BB607B681B685B6823F03F017B681B689B
:10204800BA680A435A607B681B681B6A23F03F0121
:102058007B685B68644A934202D8BB68013309E035
:10206800BB684FF4967202FB03F3634AA2FB032397
:102078009B0901337A6812680B4313627B681B68FB
:10208800DB6923F44F4222F0FF027B685B68564904
:102098008B420DD8FB68591E7B685B685B00B1FBFF
:1020A800F3F30133C3F30B03042B38BF04234FE0CE
:1020B8007B689B68002B11D1FB68581E7B685968A8
:1020C8000B465B000B44B0FBF3F30133C3F30B0384
:1020D800002B0CBF01230023DBB212E0FB68581E63
:1020E8007B6859680B469B000B4499000B44B0FB76
:1020F800F3F30133C3F30B03002B0CBF01230023BD
:10210800DBB2002B01D0012322E07B689B68002B07
:102118000ED1FB68581E7B6859680B465B000B4460
:10212800B0FBF3F30133C3F30B0343F400430FE0B5
:10213800FB68581E7B6859680B469B000B44990046
:102148000B44B0FBF3F30133C3F30B0343F44043F5
:10215800796809681343CB617B681B681B6823F0A7
:10216800C0017B68DA697B681B6A1A437B681B6855
:102178000A431A607B681B689B6823F4034323F0B7
:10218800FF037A6811697A68D26811437A6812681D
:102198000B4393607B681B68DB6823F0FF017B6857
:1021A8005A697B689B691A437B681B680A43DA6033
:1021B8007B681B681A687B681B6842F001021A601A
:1021C8007B6800221A647B68202283F83D207B68A4
:1021D80000221A637B68002283F83E2000231846F9
:1021E8001037BD4680BD00BFA08601007F841E0059
:1021F800FF083D0083DE1B43D34D621080B588B0D5
:1022080002AFF860084611461A4603467B810B4622
:102218003B811346FB80FFF7A1FB7861FB6893F8CD
:102228003D30DBB2202B40F0D9807B690093192325
:1022380001226D49F86800F07FFC0346002B01D0AD
:102248000223CCE0FB6893F83C30012B01D1022338
:10225800C5E0FB68012283F83C20FB681B681B680B
:1022680003F00103012B07D0FB681B681A68FB68A1
:102278001B6842F001021A60FB681B681A68FB6859
:102288001B6822F400621A60FB68212283F83D2053
:10229800FB68402283F83E20FB6800221A64FB6832
:1022A8003A6A5A62FB68BA8C5A85FB685B8D9AB2A7
:1022B800FB681A85FB684D4ADA62F8883A89798999
:1022C8007B690193BB6A00930346F86800F0B6FA8D
:1022D8000346002B52D0012381E07A69B96AF86875
:1022E80000F000FD0346002B0DD0FB681B6C042B8F
:1022F80007D1FB681B681A68FB681B6842F4007208
:102308001A6001236BE0FB685B6A1A78FB681B683C
:102318001A61FB685B6A5A1CFB685A62FB681B8D72
:10232800013B9AB2FB681A85FB685B8D9BB2013B47
:102338009AB2FB685A85FB681B685B6903F0040363
:10234800042B1BD1FB681B8D002B17D0FB685B6A25
:102358001A78FB681B681A61FB685B6A5A1CFB6881
:102368005A62FB681B8D013B9AB2FB681A85FB68B1
:102378005B8D9BB2013B9AB2FB685A85FB681B8D4B
:10238800002BAAD17A69B96AF86800F0ECFC034618
:10239800002B0DD0FB681B6C042B07D1FB681B6856
:1023A8001A68FB681B6842F400721A60012316E081
:1023B800FB681B681A68FB681B6842F400721A60A5
:1023C800FB68202283F83D20FB68002283F83E202A
:1023D800FB68002283F83C20002300E00223184613
:1023E8001837BD4680BD00BF020010000000FFFF87
:1023F80080B58CB002AFF860084611461A4603460D
:102408007B810B463B811346FB80FFF7A7FA786276
:10241800FB6893F83D30DBB2202B40F008827B6AE2
:102428000093192301227B49F86800F085FB0346D5
:10243800002B01D00223FBE1FB6893F83C30012B11
:1024480001D10223F4E1FB68012283F83C20FB68F8
:102458001B681B6803F00103012B07D0FB681B688E
:102468001A68FB681B6842F001021A60FB681B6867
:102478001A68FB681B6822F400621A60FB68222253
:1024880083F83D20FB68402283F83E20FB68002249
:102498001A64FB683A6B5A62FB68BA8E5A85FB6805
:1024A8005B8D9AB2FB681A85FB685B4ADA62F8882A
:1024B8003A8979897B6A0193BB6B00930346F86874
:1024C80000F052FA0346002B01D00123B0E1FB686B
:1024D8001B8D002B13D100233B62FB681B685B69D3
:1024E8003B62FB681B689B693B623B6AFB681B6835
:1024F8001A68FB681B6842F400721A6084E1FB6882
:102508001B8D012B1BD1FB681B681A68FB681B68B5
:1025180022F480621A600023FB61FB681B685B6918
:10252800FB61FB681B689B69FB61FB69FB681B68B7
:102538001A68FB681B6842F400721A6064E1FB6861
:102548001B8D022B1BD1FB681B681A68FB681B6874
:1025580022F480621A60FB681B681A68FB681B68B3
:1025680042F400621A600023BB61FB681B685B6968
:10257800BB61FB681B689B69BB61BB6944E10023C5
:102588007B61FB681B685B697B61FB681B689B69F7
:102598007B617B6938E1FB681B8D032B00F2F180BE
:1025A800FB681B8D012B23D17A6AB96BF86800F0A0
:1025B8001BFC0346002B01D0012339E1FB681B6893
:1025C8001A69FB685B6AD2B21A70FB685B6A5A1CAC
:1025D800FB685A62FB681B8D013B9AB2FB681A853F
:1025E800FB685B8D9BB2013B9AB2FB685A850BE195
:1025F800FB681B8D022B4ED17B6A0093BB6B0022BC
:102608000649F86800F098FA0346002B08D0012321
:102618000EE100BF020010000000FFFF04000100EF
:10262800FB681B681A68FB681B6842F400721A6032
:10263800FB681B681A69FB685B6AD2B21A70FB6890
:102648005B6A5A1CFB685A62FB681B8D013B9AB295
:10265800FB681A85FB685B8D9BB2013B9AB2FB68ED
:102668005A85FB681B681A69FB685B6AD2B21A70E4
:10267800FB685B6A5A1CFB685A62FB681B8D013B4E
:102688009AB2FB681A85FB685B8D9BB2013B9AB2D4
:10269800FB685A85B8E07B6A0093BB6B00226649E9
:1026A800F86800F049FA0346002B01D00123BFE087
:1026B800FB681B681A68FB681B6822F480621A6052
:1026C800FB681B681A69FB685B6AD2B21A70FB6800
:1026D8005B6A5A1CFB685A62FB681B8D013B9AB205
:1026E800FB681A85FB685B8D9BB2013B9AB2FB685D
:1026F8005A857B6A0093BB6B00224F49F86800F04B
:102708001BFA0346002B01D0012391E0FB681B68EC
:102718001A68FB681B6842F400721A60FB681B6841
:102728001A69FB685B6AD2B21A70FB685B6A5A1C4A
:10273800FB685A62FB681B8D013B9AB2FB681A85DD
:10274800FB685B8D9BB2013B9AB2FB685A85FB68BC
:102758001B681A69FB685B6AD2B21A70FB685B6A0D
:102768005A1CFB685A62FB681B8D013B9AB2FB68D6
:102778001A85FB685B8D9BB2013B9AB2FB685A8550
:1027880042E07A6AB96BF86800F02EFB0346002B2A
:1027980001D001234CE0FB681B681A69FB685B6A7F
:1027A800D2B21A70FB685B6A5A1CFB685A62FB68F3
:1027B8001B8D013B9AB2FB681A85FB685B8D9BB247
:1027C800013B9AB2FB685A85FB681B685B6903F09A
:1027D8000403042B18D1FB681B681A69FB685B6A41
:1027E800D2B21A70FB685B6A5A1CFB685A62FB68B3
:1027F8001B8D013B9AB2FB681A85FB685B8D9BB207
:10280800013B9AB2FB685A85FB681B8D002B7FF44D
:10281800C2AEFB68202283F83D20FB68002283F8C3
:102828003E20FB68002283F83C20002300E00223BE
:1028380018462837BD4680BD0400010080B588B021
:1028480002AFF860084611461A4603467B810B46DC
:102858003B811346FB80FB681B681A68FB681B6892
:1028680042F480721A607B6A00933B6A00224FF040
:102878000111F86800F060F90346002B0DD0FB68E1
:102888001B681B6803F48073B3F5807F03D1FB6872
:102898004FF400721A6403235FE07B89DBB21A46A7
:1028A800FB681B6802F0FE021A617B6A3A6A2D49CE
:1028B800F86800F098F90346002B01D001234CE09A
:1028C80000237B61FB681B685B697B61FB681B6895
:1028D8009B697B617B697A6A396AF86800F002FA59
:1028E8000346002B0DD0FB681B6C042B07D1FB683B
:1028F8001B681A68FB681B6842F400721A6001239F
:102908002BE0FB88012B05D13B89DAB2FB681B68F9
:102918001A6121E03B891B0A9BB2DAB2FB681B688B
:102928001A617A6A396AF86800F0DCF90346002B04
:102938000DD0FB681B6C042B07D1FB681B681A6859
:10294800FB681B6842F400721A60012305E03B89AA
:10295800DAB2FB681B681A61002318461837BD46AF
:1029680080BD00BF0200010080B588B002AFF860EA
:10297800084611461A4603467B810B463B8113469F
:10298800FB80FB681B681A68FB681B6842F480625E
:102998001A60FB681B681A68FB681B6842F480723F
:1029A8001A607B6A00933B6A00224FF00111F868B5
:1029B80000F0C2F80346002B0DD0FB681B681B68AB
:1029C80003F48073B3F5807F03D1FB684FF4007282
:1029D8001A640323AAE07B89DBB21A46FB681B68EA
:1029E80002F0FE021A617B6A3A6A5249F86800F0FE
:1029F800FAF80346002B01D0012397E000237B61FE
:102A0800FB681B685B697B61FB681B689B697B6172
:102A18007B697A6A396AF86800F064F90346002B22
:102A28000DD0FB681B6C042B07D1FB681B681A6868
:102A3800FB681B6842F400721A60012376E0FB8889
:102A4800012B05D13B89DAB2FB681B681A6121E0CA
:102A58003B891B0A9BB2DAB2FB681B681A617A6A67
:102A6800396AF86800F03EF90346002B0DD0FB6880
:102A78001B6C042B07D1FB681B681A68FB681B6872
:102A880042F400721A60012350E03B89DAB2FB6815
:102A98001B681A617A6A396AF86800F023F90346F4
:102AA800002B0DD0FB681B6C042B07D1FB681B683F
:102AB8001A68FB681B6842F400721A60012335E04B
:102AC800FB681B681A68FB681B6842F480721A600E
:102AD8007B6A00933B6A00224FF00111F86800F00E
:102AE8002BF80346002B0DD0FB681B681B6803F40A
:102AF8008073B3F5807F03D1FB684FF400721A64CA
:102B0800032313E07B89DBB243F00103DAB2FB68ED
:102B18001B681A617B6A3A6A0649F86800F063F82C
:102B28000346002B01D0012300E000231846183784
:102B3800BD4680BD0200010080B584B000AFF860DA
:102B4800B9603B601346FB7125E03B68B3F1FF3F7A
:102B580021D0FEF703FF0246BB69D31A3A689A42AE
:102B680002D33B68002B16D1FB6800221A63FB686E
:102B7800202283F83D20FB68002283F83E20FB6872
:102B88001B6C43F02002FB681A64FB68002283F880
:102B98003C20012323E0BB681B0CDBB2012B0DD1C9
:102BA800FB681B685B69DA43BB6813409BB2002B68
:102BB8000CBF01230023DBB21A460CE0FB681B683C
:102BC8009B69DA43BB6813409BB2002B0CBF0123FF
:102BD8000023DBB21A46FB799A42B6D00023184686
:102BE8001037BD4680BD80B584B000AFF860B960CD
:102BF8007A603B6051E0FB681B685B6903F48063A3
:102C0800B3F5806F23D1FB681B681A68FB681B68E3
:102C180042F400721A60FB681B686FF480625A61A4
:102C2800FB6800221A63FB68202283F83D20FB68BA
:102C3800002283F83E20FB681B6C43F00402FB680B
:102C48001A64FB68002283F83C20012346E07B6875
:102C5800B3F1FF3F21D0FEF781FE02463B68D31A4D
:102C68007A689A4202D37B68002B16D1FB6800224F
:102C78001A63FB68202283F83D20FB68002283F852
:102C88003E20FB681B6C43F02002FB681A64FB685B
:102C9800002283F83C20012320E0BB681B0CDBB238
:102CA800012B0CD1FB681B685B69DA43BB681340D6
:102CB8009BB2002B14BF01230023DBB20BE0FB689F
:102CC8001B689B69DA43BB6813409BB2002B14BF97
:102CD80001230023DBB2002B8DD1002318461037C7
:102CE800BD4680BD80B584B000AFF860B9607A6039
:102CF8002DE0F86800F0CEF80346002B01D0012340
:102D08002DE0BB68B3F1FF3F21D0FEF727FE024656
:102D18007B68D31ABA689A4202D3BB68002B16D1D3
:102D2800FB6800221A63FB68202283F83D20FB68B9
:102D3800002283F83E20FB681B6C43F02002FB68EE
:102D48001A64FB68002283F83C20012307E0FB6833
:102D58001B685B6903F08003802BCAD100231846E7
:102D68001037BD4680BD80B584B000AFF860B9604B
:102D78007A602DE0F86800F08DF80346002B01D04A
:102D880001232DE0BB68B3F1FF3F21D0FEF7E6FD3C
:102D980002467B68D31ABA689A4202D3BB68002BF2
:102DA80016D1FB6800221A63FB68202283F83D20B5
:102DB800FB68002283F83E20FB681B6C43F020026E
:102DC800FB681A64FB68002283F83C20012307E0B3
:102DD800FB681B685B6903F00403042BCAD100235A
:102DE80018461037BD4680BD80B584B000AFF86086
:102DF800B9607A6042E0FB681B685B6903F0100306
:102E0800102B19D1FB681B686FF010025A61FB6820
:102E180000221A63FB68202283F83D20FB68002209
:102E280083F83E20FB681A6CFB681A64FB68002272
:102E380083F83C20012329E0FEF790FD02467B68D9
:102E4800D31ABA689A4202D3BB68002B16D1FB6822
:102E580000221A63FB68202283F83D20FB680022C9
:102E680083F83E20FB681B6C43F02002FB681A6461
:102E7800FB68002283F83C20012307E0FB681B68FD
:102E88005B6903F04003402BB5D100231846103787
:102E9800BD4680BD80B483B000AF78607B681B6896
:102EA8005B6903F48063B3F5806F1BD17B681B6893
:102EB8006FF480625A617B6800221A637B68202263
:102EC80083F83D207B68002283F83E207B681B6CDA
:102ED80043F004027B681A647B68002283F83C2074
:102EE800012300E0002318460C37BD465DF8047B3B
:102EF8007047000080B586B000AF78607B68002B13
:102F080001D101235BE27B681B6803F00103002BFE
:102F180075D0A34B9B6803F00C03042B0CD0A04B7B
:102F28009B6803F00C03082B12D19D4B5B6803F4DC
:102F38008003B3F5800F0BD1994B1B6803F4003362
:102F4800002B5BD07B685B68002B57D1012336E2EE
:102F58007B685B68B3F5803F06D1914B1B68904A4C
:102F680043F4803313601DE07B685B68B3F5A02FE2
:102F78000CD18B4B1B688A4A43F480231360884B1F
:102F88001B68874A43F4803313600BE0844B1B684B
:102F9800834A23F480331360814B1B68804A23F4EF
:102FA800802313607B685B68002B13D0FEF7D6FC88
:102FB800386108E0FEF7D2FC02463B69D31A642B5D
:102FC80001D90323FBE1764B1B6803F40033002B84
:102FD800F0D014E0FEF7C2FC386108E0FEF7BEFC52
:102FE80002463B69D31A642B01D90323E7E16C4BF2
:102FF8001B6803F40033002BF0D100E000BF7B68AE
:103008001B6803F00203002B63D0654B9B6803F039
:103018000C03002B0BD0624B9B6803F00C03082BAE
:103028001CD15F4B5B6803F48003002B16D15C4B0B
:103038001B6803F00203002B05D07B68DB68012BBB
:1030480001D00123BBE1564B1B6823F0F8027B68D3
:103058001B69DB00524913430B603AE07B68DB686D
:10306800002B20D04F4B01221A60FEF777FC386105
:1030780008E0FEF773FC02463B69D31A022B01D91C
:1030880003239CE1464B1B6803F00203002BF0D09E
:10309800434B1B6823F0F8027B681B69DB0040493F
:1030A80013430B6015E03F4B00221A60FEF756FCF5
:1030B800386108E0FEF752FC02463B69D31A022B3E
:1030C80001D903237BE1364B1B6803F00203002B75
:1030D800F0D17B681B6803F00803002B30D07B68B5
:1030E8005B69002B16D0304B01221A60FEF736FCC4
:1030F800386108E0FEF732FC02463B69D31A022B1E
:1031080001D903235BE1264B5B6F03F00203002B1D
:10311800F0D015E0244B00221A60FEF71FFC38613E
:1031280008E0FEF71BFC02463B69D31A022B01D9C3
:10313800032344E11A4B5B6F03F00203002BF0D129
:103148007B681B6803F00403002B00F0A0800023B9
:10315800FB75134B1B6C03F08053002B0FD100231E
:10316800BB600F4B1B6C0E4A43F0805313640C4B2F
:103178001B6C03F08053BB60BB680123FB750B4BD2
:103188001B6803F48073002B21D1084B1B68074A86
:1031980043F480731360FEF7E1FB386111E000BF70
:1031A8000038024000004742800E4742007000404D
:1031B800FEF7D4FB02463B69D31A022B01D903233D
:1031C800FDE0814B1B6803F48073002BF0D07B6813
:1031D8009B68012B06D17D4B1B6F7C4A43F0010392
:1031E80013671CE07B689B68052B0CD1774B1B6F22
:1031F800764A43F004031367744B1B6F734A43F01A
:10320800010313670BE0714B1B6F704A23F0010336
:1032180013676E4B1B6F6D4A23F0040313677B68BB
:103228009B68002B15D0FEF799FB38610AE0FEF782
:1032380095FB02463B69D31A41F28832934201D981
:103248000323BCE0614B1B6F03F00203002BEED09D
:1032580014E0FEF783FB38610AE0FEF77FFB0246C5
:103268003B69D31A41F28832934201D90323A6E07D
:10327800564B1B6F03F00203002BEED1FB7D012B95
:1032880005D1524B1B6C514A23F0805313647B6861
:103298009B69002B00F092804C4B9B6803F00C0359
:1032A800082B5CD07B689B69022B41D1484B0022DC
:1032B8001A60FEF753FB386108E0FEF74FFB024641
:1032C8003B69D31A022B01D9032378E03F4B1B68D3
:1032D80003F00073002BF0D17B68DA697B681B6A06
:1032E8001A437B685B6A9B011A437B689B6A5B088D
:1032F800013B1B041A437B68DB6A1B0633491343F3
:103308004B60334B01221A60FEF728FB386108E056
:10331800FEF724FB02463B69D31A022B01D903238B
:103328004DE02A4B1B6803F00073002BF0D045E0FA
:10333800274B00221A60FEF711FB386108E0FEF700
:103348000DFB02463B69D31A022B01D9032336E051
:103358001E4B1B6803F00073002BF0D12EE07B6836
:103368009B69012B01D1012329E0184B5B68FB60A5
:10337800FB6803F480027B68DB699A421CD1FB6816
:1033880003F03F027B681B6A9A4215D1FA6847F638
:10339800C07313407A68526A93420DD1FB6803F4F4
:1033A80040327B689B6A9A4206D1FB6803F07062E0
:1033B8007B68DB6A9A4201D0012300E000231846AB
:1033C8001837BD4680BD00BF00700040003802407D
:1033D8006000474280B584B000AF786039607B6890
:1033E800002B01D10123CCE0684B1B6803F00F03CD
:1033F8003A689A420CD9654B3A68D2B21A70634B54
:103408001B6803F00F033A689A4201D00123B8E021
:103418007B681B6803F00203002B20D07B681B68C5
:1034280003F00403002B05D0594B9B68584A43F41A
:10343800E05393607B681B6803F00803002B05D0FA
:10344800534B9B68524A43F460439360504B9B68CC
:1034580023F0F0027B689B684D4913438B607B68BF
:103468001B6803F00103002B44D07B685B68012BC9
:1034780007D1474B1B6803F40033002B19D10123F4
:103488007FE07B685B68022B03D07B685B68032B5B
:1034980007D13F4B1B6803F00073002B09D10123B0
:1034A8006FE03B4B1B6803F00203002B01D10123A3
:1034B80067E0374B9B6823F003027B685B683449FD
:1034C80013438B60FEF74AFAF8600AE0FEF746FA03
:1034D8000246FB68D31A41F28832934201D903238A
:1034E8004FE02B4B9B6803F00C027B685B689B00EA
:1034F8009A42EBD1254B1B6803F00F033A689A42B6
:103508000CD2224B3A68D2B21A70204B1B6803F0D7
:103518000F033A689A4201D0012332E07B681B68A6
:1035280003F00403002B08D0194B9B6823F4E052E6
:103538007B68DB68164913438B607B681B6803F064
:103548000803002B09D0124B9B6823F460427B6868
:103558001B69DB000E4913438B6000F021F801461C
:103568000B4B9B681B0903F00F030A4AD35C21FA33
:1035780003F3094A1360094B1B681846FEF7AAF9BA
:10358800002318461037BD4680BD00BF003C0240EE
:1035980000380240F85E0008000000200400002007
:1035A800F0B585B000AF00237B600023FB600023EB
:1035B8003B600023BB60504B9B6803F00C03042B5B
:1035C80007D0082B08D0002B40F08D804B4BBB60F8
:1035D8008CE04B4BBB6089E0474B5B6803F03F03D3
:1035E8007B60454B5B6803F48003002B23D0424B80
:1035F8005B689B094FF0000440F2FF114FF0000296
:1036080003EA010504EA02063D4A02FB06F100222C
:1036180002FB05F20A443A49A5FB01015318194671
:103628007B684FF000041A462346FDF76DFA0346FF
:103638000C46FB6049E0304B5B689B094FF0000487
:1036480040F2FF114FF0000203EA010504EA020606
:10365800294632464FF000034FF00004540144EA73
:10366800D1644B0119462246491B62EB06024FF012
:1036780000034FF00004940144EA91648B015B1A43
:1036880064EB02044FF000014FF00002E20042EA4E
:103698005372D9000B4614465B1944EB06044FF0ED
:1036A80000014FF00002A20242EA935299020B462F
:1036B8001446184621467B684FF000041A462346F4
:1036C800FDF722FA03460C46FB600B4B5B681B0CAC
:1036D80003F0030301335B003B60FA683B68B2FB0D
:1036E800F3F3BB6002E0054BBB6000BFBB68184644
:1036F8001437BD46F0BD00BF003802400024F40076
:1037080040787D0180B400AF034B1B681846BD4666
:103718005DF8047B704700BF0000002080B500AF53
:10372800FFF7F0FF0146054B9B689B0A03F0070370
:10373800034AD35C21FA03F3184680BD00380240DF
:10374800085F000880B500AFFFF7DCFF0146054BB6
:103758009B685B0B03F00703034AD35C21FA03F36E
:10376800184680BD00380240085F000880B582B066
:1037780000AF78607B68002B01D101233FE07B68B4
:1037880093F83930DBB2002B06D17B68002283F82E
:1037980038207868FDF7F4FE7B68242283F8392006
:1037A8007B681B68DA687B681B6822F40052DA6061
:1037B800786800F0BDFA7B681B681A697B681B682B
:1037C80022F490421A617B681B685A697B681B68FF
:1037D80022F02A025A617B681B68DA687B681B68DA
:1037E80042F40052DA607B680022DA637B682022A8
:1037F80083F839207B68202283F83A200023184672
:103808000837BD4680BD80B485B000AFF860B960A8
:103818001346FB80FB6893F83A30DBB2202B40D18B
:10382800BB68002B02D0FB88002B01D1012339E0B3
:10383800FB6893F83830012B01D1022332E0FB6892
:10384800012283F83820FB68BA689A62FB68FA8814
:103858009A85FB68FA88DA85FB680022DA63FB68D8
:10386800222283F83A20FB68002283F83820FB687C
:103878001B68DA68FB681B6842F48072DA60FB68D0
:103888001B685A69FB681B6842F001025A61FB68B1
:103898001B68DA68FB681B6842F02002DA600023C4
:1038A80000E0022318461437BD465DF8047B7047D4
:1038B80080B588B000AF78607B681B681B68FB61C7
:1038C8007B681B68DB68BB617B681B685B697B6125
:1038D80000233B610023FB60FB6903F00F033B619E
:1038E8003B69002B0DD1FB6903F02003002B08D0A6
:1038F800BB6903F02003002B03D0786800F096F929
:10390800D1E03B69002B00F0B0807B6903F0010334
:10391800002B05D1BB6903F49073002B00F0A58040
:10392800FB6903F00103002B0AD0BB6903F4807321
:10393800002B05D07B68DB6B43F001027B68DA6300
:10394800FB6903F00403002B0AD07B6903F0010331
:10395800002B05D07B68DB6B43F002027B68DA63DF
:10396800FB6903F00203002B0AD07B6903F0010313
:10397800002B05D07B68DB6B43F004027B68DA63BD
:10398800FB6903F00803002B0FD0BB6903F0200389
:10399800002B04D17B6903F00103002B05D07B6861
:1039A800DB6B43F008027B68DA637B68DB6B002B18
:1039B80078D0FB6903F02003002B07D0BB6903F024
:1039C8002003002B02D0786800F030F97B681B6870
:1039D8005B6903F04003402B0CBF01230023DBB2DB
:1039E800FB607B68DB6B03F00803002B02D1FB68EC
:1039F800002B31D0786800F079F87B681B685B6928
:103A080003F04003402B23D17B681B685A697B680D
:103A18001B6822F040025A617B685B6B002B13D055
:103A28007B685B6B214A1A657B685B6B1846FEF7FF
:103A3800D4F80346002B16D07B685B6B1B6D7A6845
:103A4800526B104698470EE0786800F045F80AE097
:103A5800786800F041F806E0786800F03DF87B6887
:103A68000022DA631EE000BF1CE0FB6903F080035C
:103A7800002B08D0BB6903F08003002B03D07868C3
:103A880000F066F80FE0FB6903F04003002B0AD052
:103A9800BB6903F04003002B05D0786800F0AEF84E
:103AA80000BF00E000BF2037BD4680BD313B0008A5
:103AB80080B483B000AF786000BF0C37BD465DF8B6
:103AC800047B704780B483B000AF786000BF0C37C8
:103AD800BD465DF8047B704780B483B000AF786062
:103AE80000BF0C37BD465DF8047B704780B483B0D7
:103AF80000AF78607B681B68DA687B681B6822F413
:103B08009072DA607B681B685A697B681B6822F0D0
:103B180001025A617B68202283F83A2000BF0C37E3
:103B2800BD465DF8047B704780B584B000AF78600F
:103B38007B689B6BFB60FB680022DA85FB680022D0
:103B4800DA84F868FFF7C8FF00BF1037BD4680BDAC
:103B580080B485B000AF78607B6893F83930DBB209
:103B6800212B44D17B689B68B3F5805F1AD17B68B1
:103B78001B6AFB60FB681B881A467B681B68C2F3DC
:103B880008025A607B681B69002B05D17B681B6A99
:103B98009A1C7B681A620EE07B681B6A5A1C7B6859
:103BA8001A6208E07B681B6A591C7A6811621A78E5
:103BB8007B681B685A607B68DB8C9BB2013B9BB2BD
:103BC8007A681946D184002B0FD17B681B68DA68A4
:103BD8007B681B6822F08002DA607B681B68DA6801
:103BE8007B681B6842F04002DA60002300E0022391
:103BF80018461437BD465DF8047B704780B582B01F
:103C080000AF78607B681B68DA687B681B6822F005
:103C18004002DA607B68202283F839207868FFF751
:103C280047FF002318460837BD4680BD80B584B0DD
:103C380000AF78607B6893F83A30DBB2222B71D101
:103C48007B689B68B3F5805F23D17B689B6AFB60C8
:103C58007B681B69002B0ED17B681B685B689BB275
:103C6800C3F308039AB2FB681A807B689B6A9A1CA4
:103C78007B689A6229E07B681B685B689BB2DBB251
:103C88009AB2FB681A807B689B6A5A1C7B689A62A6
:103C98001BE07B681B69002B0AD17B681B6858688E
:103CA8007B689B6A591C7A689162C2B21A700CE0F0
:103CB8007B681B685B68DAB27B689B6A581C79680A
:103CC800886202F07F02D2B21A707B68DB8D9BB2E9
:103CD800013B9BB27A681946D185002B20D17B68BD
:103CE8001B68DA687B681B6822F02002DA607B6850
:103CF8001B68DA687B681B6822F48072DA607B686C
:103D08001B685A697B681B6822F001025A617B684C
:103D1800202283F83A207868FFF7D4FE002302E0D7
:103D2800002300E0022318461037BD4680BD00007E
:103D38002DE9F04F85B000AF78607B681B681B6980
:103D480023F440517B68DA687B681B680A431A6170
:103D58007B689A687B681B691A437B685B691A43AE
:103D68007B68DB691343FB607B681B68DB6823F4B3
:103D7800164323F00C037A681268F9680B43D36082
:103D88007B681B685B6923F440717B689A697B6870
:103D98001B680A435A617B68DB69B3F5004F40F042
:103DA8008B817B681B68C14A934205D07B681B687E
:103DB800BF4A934240F0BD80FFF7C4FCB860BB68BF
:103DC8001D464FF00006A846B14618EB080349EB1C
:103DD80009049846A14618EB050849EB06094FF077
:103DE80000014FF000024FEAC90242EA58724FEA56
:103DF800C8018846914618EB050049EB06017B6827
:103E08005B681D464FF000066B1946EB06041A4620
:103E18002346FCF779FE03460C461A46A54BA3FB3E
:103E280002235B094FEA0318BB681D464FF00006E2
:103E3800A946B24619EB09034AEB0A049946A24679
:103E480019EB05094AEB060A4FF000014FF0000292
:103E58004FEACA0242EA59724FEAC90189469246B4
:103E680019EB05004AEB06017B685B681D464FF0BD
:103E780000066B1946EB06041A462346FCF744FE77
:103E880003460C461A468B4BA3FB02135B096421BD
:103E980001FB03F3D31ADB003233864AA2FB032368
:103EA8005B095B0003F4F8739844BB681D464FF048
:103EB8000006A946B24619EB09034AEB0A049946DB
:103EC800A24619EB05094AEB060A4FF000014FF02C
:103ED80000024FEACA0242EA59724FEAC90189460A
:103EE800924619EB05004AEB06017B685B681D46A4
:103EF8004FF000066B1946EB06041A462346FCF7FA
:103F080003FE03460C461A466A4BA3FB02135B09E1
:103F1800642101FB03F3D31ADB003233654AA2FBA9
:103F280003235B0903F007027B681B6842449A601D
:103F38006FE2FFF7F3FBB860BB681D464FF0000661
:103F4800A846B14618EB080349EB09049846A14670
:103F580018EB050849EB06094FF000014FF0000285
:103F68004FEAC90242EA58724FEAC80188469146A8
:103F780018EB050049EB06017B685B681D464FF0AE
:103F880000066B1946EB06041A462346FCF7BCFDEF
:103F980003460C461A46474BA3FB02235B094FEA2C
:103FA8000318BB681D464FF00006A946B24619EB38
:103FB80009034AEB0A049946A24619EB05094AEB9C
:103FC800060A4FF000014FF000024FEACA0242EA27
:103FD80059724FEAC9018946924619EB05004AEB26
:103FE80006017B685B681D464FF000066B1946EBBF
:103FF80006041A462346FCF787FD03460C461A4674
:104008002C4BA3FB02135B09642101FB03F3D31AB6
:10401800DB003233274AA2FB03235B095B0003F46E
:10402800F8739844BB681D464FF00006A946B2468F
:1040380019EB09034AEB0A049946A24619EB05094C
:104048004AEB060A4FF000014FF000024FEACA029D
:1040580042EA59724FEAC9018946924619EB0500AE
:104068004AEB06017B685B681D464FF000066B193A
:1040780046EB06041A462346FCF746FD03460C4663
:104088001A460C4BA3FB02135B09642101FB03F3E3
:10409800D31ADB003233074AA2FB03235B0903F080
:1040A80007027B681B6842449A60B2E10010014035
:1040B800001401401F85EB517B681B68D74A934267
:1040C80005D07B681B68D64A934240F0D180FFF741
:1040D80039FBB860BB689A464FF0000BD046D9460A
:1040E80018EB080349EB09049846A14618EB0A089F
:1040F80049EB0B094FF000014FF000024FEAC902EB
:1041080042EA58724FEAC801884691461AEB0805F8
:104118004BEB09067B685B6819464FF000024FF0CD
:1041280000034FF00004940044EA91748B001A468F
:10413800234628463146FCF7E7FC03460C461A4658
:10414800B84BA3FB02235B094FEA0318BB689B46E5
:104158004FF0000CD946E24619EB09034AEB0A0472
:104168009946A24619EB0B094AEB0C0A4FF00001DD
:104178004FF000024FEACA0242EA59724FEAC901F7
:10418800894692461BEB09054CEB0A067B685B687F
:1041980019464FF000024FF000034FF0000494005E
:1041A80044EA91748B001A46234628463146FCF7A8
:1041B800ABFC03460C461A469A4BA3FB02135B0959
:1041C800642101FB03F3D31A1B013233954AA2FB86
:1041D80003235B0903F0F0039844BB689B464FF048
:1041E800000CD946E24619EB09034AEB0A04994642
:1041F800A24619EB0B094AEB0C0A4FF000014FF0ED
:1042080000024FEACA0242EA59724FEAC9018946D6
:1042180092461BEB09054CEB0A067B685B6819465E
:104228004FF000024FF000034FF00004940044EAFE
:1042380091748B001A46234628463146FCF764FCE5
:1042480003460C461A46774BA3FB02135B0964210D
:1042580001FB03F3D31A1B013233724AA2FB032377
:104268005B0903F00F027B681B6842449A60D0E048
:10427800FFF754FAB860BB689A464FF0000BD04677
:10428800D94618EB080349EB09049846A14618EBF0
:104298000A0849EB0B094FF000014FF000024FEA02
:1042A800C90242EA58724FEAC801884691461AEB99
:1042B80008054BEB09067B685B6819464FF000025E
:1042C8004FF000034FF00004940044EA91748B000F
:1042D8001A46234628463146FCF716FC03460C4688
:1042E8001A46504BA3FB02235B094FEA0318BB682D
:1042F8009B464FF0000CD946E24619EB09034AEBFE
:104308000A049946A24619EB0B094AEB0C0A4FF02E
:1043180000014FF000024FEACA0242EA59724FEA1E
:10432800C901894692461BEB09054CEB0A067B68D6
:104338005B6819464FF000024FF000034FF000048D
:10434800940044EA91748B001A4623462846314665
:10435800FCF7DAFB03460C461A46324BA3FB021362
:104368005B09642101FB03F3D31A1B0132332D4A85
:10437800A2FB03235B0903F0F0039844BB689B4648
:104388004FF0000CD946E24619EB09034AEB0A0440
:104398009946A24619EB0B094AEB0C0A4FF00001AB
:1043A8004FF000024FEACA0242EA59724FEAC901C5
:1043B800894692461BEB09054CEB0A067B685B684D
:1043C80019464FF000024FF000034FF0000494002C
:1043D80044EA91748B001A46234628463146FCF776
:1043E80093FB03460C461A460E4BA3FB02135B09CC
:1043F800642101FB03F3D31A1B013233094AA2FBE0
:1044080003235B0903F00F027B681B6842449A6030
:10441800FFE700BF1437BD46BDE8F08F001001402C
:10442800001401401F85EB51014B1868704700BF0D
:104438000C00002070B50D4E0D4CA41BA4100025D7
:10444800A54209D10B4E0C4C01F046FDA41BA4104B
:104458000025A54205D170BD56F82530984701358D
:10446800EEE756F8253098470135F2E7A0610008D5
:10447800A0610008A0610008A4610008024B014681
:10448800186800F00BB800BF0C0000200244034677
:10449800934200D1704703F8011BF9E770B5CD1CB2
:1044A80025F0030508350C2D38BF0C25002D0646D0
:1044B80001DBA94203D90C233360002070BD01F051
:1044C80000FA214A1468214691B9204C23681BB987
:1044D800304600F087FB20602946304600F082FB1A
:1044E800431C24D10C233360304601F0EBF9E4E798
:1044F8000B685B1B18D40B2B0FD90B60CD50CC1855
:10450800304601F0DFF904F10B00231D20F007000D
:10451800C31AD3D05A42E250D0E78C424B6816BF38
:10452800636013600C46EBE70C464968CCE7C41C93
:1045380024F00304A04205D0211A304600F052FBB3
:104548000130CFD02560DBE7FC010020000200200D
:104558002DE9FF4755EC104B0D9FDDF830A0002DDD
:104568000E4691461946B8BF22462B4627F020072B
:10457800BBBF05F100431D4600232D23B8BF1446D9
:10458800462F0B7004D0452F00D10136022100E0E0
:10459800032103AB019302AB00933246534645EC2B
:1045A800104B00F0BDFB472F804602D119F0010FD8
:1045B80026D0462F08EB060911D198F80030302B89
:1045C8000AD10022002320462946FCF72DFA18B903
:1045D800C6F10106CAF80060DAF8003099440022F2
:1045E800002320462946FCF71FFA38B93022039BDE
:1045F8004B4505D2591C03911A70F8E7CDF80C9079
:10460800039B0E9AA3EB08034046136004B0BDE871
:10461800F087F7B500290446BABF49422D232B235A
:10462800092904F8022B437020DD0DF107031F460A
:104638000A2691FBF6F506FB15113031092D03F812
:10464800011C03F1FF32294609DC3031023B02F834
:10465800011CBB42224604D3101A03B0F0BD134616
:10466800E7E713F8012B04F8012BF2E7302319448C
:104678008370021DC170EFE72DE9F04F8DB00C4635
:10468800DDF8588016461F46054601F001F9036813
:1046980004931846FBF79CFD00230A93D8F80030D2
:1046A8000590073323F0070303F1080294F818A0D4
:1046B800D4F800B0C8F80020D3E90023C4E91223D5
:1046C800D4E9128929F000430793CDF818804FF0F8
:1046D800FF32A74BDDE90601FCF7D8F970BB4FF0B4
:1046E800FF32A34BDDE90601FCF7B2F930BB00222B
:1046F800002340464946FCF7A1F910B12D2384F860
:1047080043309C4A9C4BBAF1470F8CBF9046984661
:1047180003232BF00402236122604FF00009009765
:1047280033460BAA2146284600F0E6F9013040F04E
:104738008D804FF0FF300DB0BDE8F08F42464B46FC
:1047480040464946FCF7A2F910B18C4A8C4BDAE78F
:1047580061684B1C4BF480620AA83ED10623636053
:104768000023CDE9020309AB009349EC108B0DF14E
:1047780023032260CDF804A061682846FFF7E8FE0D
:104788000AF0DF03472B804609D1099BD81C02DBBE
:104798006268934247DDAAF1020A5FFA8AFABAF11F
:1047A800650F099924D80139524604F1500009913E
:1047B800FFF72FFF0A9A1318012A8146236102DCAA
:1047C8002268D10701D5013323619DF82330002BDE
:1047D800A5D02D2384F84330A1E7BAF1670F00F084
:1047E8007781BAF1470FBBD10029B9D10123B6E7C8
:1047F800BAF1660F19D1002963680CDD216113B97C
:104808002268D20702D501330B442361099BA365B3
:104818004FF00009D9E713B92268D00701D5023350
:10482800F3E70123F1E74FF0670ADDE90932934224
:1048380005DB22682361D107E8D50133E5E7002BC2
:10484800D4BFC3F1020301231344DEE723685A05EA
:1048580007D42369424631462846B84701302BD150
:1048680067E7BAF1650F40F2DC8000220023D4E943
:104878001201FCF7D9F8002833D00123414A314608
:104888002846B84701303FF454AFDDE909239A427E
:1048980002DB2368D8070FD5DDE904233146284613
:1048A800B84701303FF445AF4FF0000804F11A094A
:1048B8000A9B013B434509DC23689B0700F1038100
:1048C800E0680B9B9842B8BF184634E701234A4674
:1048D80031462846B84701303FF42BAF08F10108AC
:1048E800E6E7099B002B2BDC0123264A31462846A4
:1048F800B84701303FF41DAF099B23B90A9B13B990
:104908002368D907D8D5DDE9042331462846B847B6
:1049180001303FF40EAF4FF0000904F11A0A099B69
:104928005B424B4501DC0A9B94E701235246314622
:104938002846B84701303FF4FCAE09F10109EEE71B
:104948000A9AA36D9A42A8BF1A46002A914607DD23
:104958001346314642462846B84701303FF4E9AE8F
:1049680004F11A034FF0000B29EAE979069315E0E0
:10497800FFFFEF7F145F0008105F00081C5F00084E
:10498800185F0008205F00080123069A3146284670
:10499800B84701303FF4CDAE0BF1010BD4F858A065
:1049A800AAEB09035B45EFDCDDE909239A42D04411
:1049B80015DB2368DA0712D40A9B0999A3EB0A02CC
:1049C800A3EB010A9245A8BF9246BAF1000F0EDC8C
:1049D8004FF000082AEAEA7A04F11A0919E0DDE939
:1049E800042331462846B8470130E5D1A1E65346AD
:1049F800424631462846B8470130E9D199E60123B5
:104A08004A4631462846B84701303FF492AE08F18D
:104A18000108DDE909239B1AA3EB0A034345EEDCF1
:104A28004AE70A9A012A01DCDB073AD50123424604
:104A380031462846B84701303FF47BAEDDE9042310
:104A480031462846B847013008F101083FF471AEF5
:104A58000A9B002203F1FF3AD4E912010023FBF775
:104A6800E3FFC8B95346424631462846B8470130A5
:104A78000ED15EE60123524631462846B84701303A
:104A88003FF457AE08F101080A9B013B4345F1DCAE
:104A98004B4604F15002DEE64FF0000804F11A0A12
:104AA800F2E70123DFE701234A4631462846B847A3
:104AB80001303FF43EAE08F10108E3680B9A9B1AF7
:104AC8004345F0DCFCE64FF0000804F11909F4E76F
:104AD80000293FF48BAE0023CDE9020309AB009314
:104AE80049EC108B2260CDF804A00DF12303284671
:104AF800FFF72EFD804648E62DE9F04791461F4610
:104B08008A680B69DDF820809342B8BF1346C9F85C
:104B1800003091F8432006460C4612B10133C9F81B
:104B280000302368990642BFD9F800300233C9F82B
:104B38000030256815F0060507D104F1190AE36865
:104B4800D9F800209B1AAB4228DC94F8433022683D
:104B5800003318BF012392062DD404F143023946CD
:104B68003046C047013020D02368E568D9F80020D6
:104B780003F00603042B08BFAD1AA36822690CBF13
:104B880025EAE57500259342C4BF9B1AED184FF03E
:104B980000091A344D451AD1002008E00123524675
:104BA80039463046C047013003D14FF0FF30BDE8E9
:104BB800F0870135C3E7E1185A1C302081F843001B
:104BC800224494F8451082F843100233C5E70123C4
:104BD800224639463046C0470130E6D009F101097E
:104BE800D8E7000038B5064C002305460846236080
:104BF800FCF7D8FD431C02D1236803B12B6038BDF4
:104C0800301700202DE9F74F03690C69A34280464D
:104C1800C0F28280013C01F114074FEA840C00F1D4
:104C2800140657F8245056F8240006EB0C030135F7
:104C380007EB0C090193B0FBF5F595B34FF0000AAB
:104C48003846B646D34650F8042B93B205FB03A367
:104C58004FEA134A9BB2ABEB0303120CDEF800B029
:104C680005FB02A213FA8BF34FEA124A1FFA82FBE2
:104C7800DEF80020CBEB124202EB23429BB243EA60
:104C8800024381454FEA224B4EF8043BDBD256F8EB
:104C98000C3033B9019B043B9E421A4630D3C8F806
:104CA8001040404601F024F8002825DB0135304645
:104CB8004FF0000C57F8042BD0F800E093B2ACEB9F
:104CC8000303120C13FA8EF3C2EB1E4202EB2342CB
:104CD8009BB243EA0243B9454FEA224C40F8043BF1
:104CE800E8D256F8242006EB84032AB9043B9E42F6
:104CF8001A460BD3C8F81040284603B0BDE8F08F19
:104D08001268043B002ACAD1013CC5E71268043B7B
:104D1800002AEFD1013CEAE70020EEE7000000009E
:104D28002DE9F04F57EC106B97B0456A0691044691
:104D38000B921293DDF88080CDE900673DB9102011
:104D4800FFF79CFB6062C0E901550560C560636AB6
:104D5800196851B15A684A60012393408B60204614
:104D680000F0E5FD636A00221A603B1EBBBF23F01A
:104D78000043019300230122ACBFC8F80030C8F8F3
:104D88000020AF4BDDF8048033EA080314D1129AEF
:104D980042F20F731360009B23B9C8F31300002875
:104DA80000F04285219BDFF8ACB2002B00F044856F
:104DB8000BF1030300F03EBDDDE90067002200238C
:104DC80030463946FBF730FE814668B1129A012316
:104DD8001360219B002B00F024859A4B219A03F144
:104DE800FF3B136000F028BD14AA15A947EC106B0F
:104DF800204600F0F4FFC8F30A550490002D7CD03B
:104E0800C7F3130343F07F5BB2464BF4401BA5F294
:104E1800FF35CDF84C9000228B4B50465946FBF796
:104E2800E3F981A3D3E90023FBF796FB80A3D3E939
:104E38000023FBF7DBF9064628460F46FBF722FB63
:104E48007DA3D3E90023FBF787FB02460B463046D8
:104E58003946FBF7CBF906460F46FBF72DFE002235
:104E68008246002330463946FBF7E8FD48B15046F4
:104E7800FBF708FB32463B46FBF7D6FD08B90AF1BB
:104E8800FF3ABAF1160F59D8704901EBCA01DDE9AA
:104E98000023D1E90001FBF7EFFD002850D00AF10B
:104EA800FF3A00230F93149B5D1BB5F1010849BF1E
:104EB800C5F10103002305934FF0000858BF05937F
:104EC800BAF1000F3EDB0023D044CDF838A0079399
:104ED800069B092B00F29080052BC4BF043B069368
:104EE800069BA3F10203CCBF00250125032B00F28A
:104EF8008F80DFE803F07D7F3171DDE914531D44B5
:104F080005F23240202813DDC0F14000009B08FA6A
:104F180000F805F2124023FA00F048EA0000FBF717
:104F2800A1FA01238246A1F1F87B013D139372E7B0
:104F3800009BC0F1200003FA00F0F0E70123B1E77D
:104F48000F90B0E7059BA3EB0A030593CAF1000392
:104F5800079300230E93BBE701230A930B9B002BB7
:104F680059DD02939946666A00227260042202F1B2
:104F780014009842716853D9204600F0A4FC636A73
:104F88003060B9F10E0FD3F800B000F2E680002DC2
:104F980000F0E3809DED007BBAF1000F8DED107BF2
:104FA80074DD2A4A0AF00F0302EBC30393ED007B7A
:104FB8004FEA2A16F0068DED087B65D5244BDDE90E
:104FC8001001D3E90823FBF7F1FBCDE9000106F056
:104FD8000F0603251E4F4CE001230A930B9B5344F5
:104FE80003F1010902934B46012BB8BF0123BAE72D
:104FF8000023B2E70023F0E70125002306930A9572
:105008004FF0FF3302939946002212230B92AAE72E
:1050180001230A93F4E70123029399461A46F5E718
:10502800013171605200A2E761436F63A787D23FE5
:10503800B3C8608B288AC63FFB799F501344D33F7F
:105048000000F07F215F00080000F83FB85F00080B
:10505800905F00082B5F0008F10708D5DDE908011B
:10506800D7E90023FBF778FACDE908010135761076
:105078000837002EF0D1DDE90823DDE90001FBF750
:1050880095FBCDE900011AE00225A3E700F0A08016
:10509800CAF100069F4BA04F06F00F0203EBC203B4
:1050A800D3E90023DDE91001FBF756FACDE9000149
:1050B800361100230225002E7FD1002BE1D10F9B52
:1050C800002B00F08780DDE900670022934B304613
:1050D8003946FBF7B3FC00287CD0B9F1000F79D032
:1050E800029B002B35DD0AF1FF3308933946002275
:1050F8008B4B3046FBF730FACDE90001029F0135B2
:105108002846FBF7BFF9DDE90023FBF725FA002263
:10511800844BFBF76BF80546A1F15076002F5DD163
:105128000022814BDDE90001FBF75EF82A46334691
:10513800CDE90001FBF7A0FC002840F088822A4650
:1051480006F10043DDE90001FBF778FC002840F098
:105158007C82DDE91023CDE90023159B002BC0F2EA
:105168005081BAF10E0F00F34C816A4B03EBCA036E
:1051780093ED007B0B9B002B8DED027B80F2D8809A
:10518800B9F1000F00F3D48040F05E820022664B34
:1051980051EC170BFBF7E0F9DDE90023FBF762FCA4
:1051A8004F464E46002840F0348231230BF101056A
:1051B8008BF800300AF1010A2FE2F20705D5D7E98A
:1051C8000023FBF7C9F9013501237610083772E788
:1051D800022574E7CDF820A04F4691E74D4B03EB2D
:1051E800C70353E902010A9B002B47D002460B462E
:1051F80000204E49FBF7DAFA2A463346FAF7F4FF5D
:10520800CDE90C015D46DDE90001FBF755FC0646DA
:10521800FBF738F902460B46DDE90001FAF7E4FF2F
:10522800303605F8016BDDE90C23CDE90001FBF709
:1052380005FC002863D1DDE9002300203749FAF78F
:10524800D3FFDDE90C23FBF7F9FB002840F0B7801A
:10525800A5EB0B039F427FF77CAF0022304BDDE9C3
:105268000C01FBF779F90022CDE90C012C4BDDE9A3
:105278000001FBF771F9CDE90001C4E72A4633467E
:10528800FBF76AF9CDE90C010BEB07055E46DDE992
:105298000001FBF711FC0746FBF7F4F8303702462C
:1052A8000B46DDE90001FAF79FFF06F8017BAE42E5
:1052B800CDE900014FF0000226D11C4BDDE90C01BD
:1052C800FAF794FF02460B46DDE90001FBF7D4FB31
:1052D800002874D1DDE90C2300201449FAF784FF73
:1052E80002460B46DDE90001FBF7A8FB00283FF466
:1052F80030AF15F8013C302B05F1FF3202D0DDF854
:1053080020A04AE01546F4E7054BFBF725F9CDE95F
:105318000001BCE7B85F0008905F00080000F03F9C
:105328000000244000001C40000014400000E03F42
:10533800DDE900675D46DDE9022330463946FBF7C3
:1053480035FAFBF7B9FB8046FBF79CF8DDE9022349
:10535800FBF702F902460B463046394608F130069B
:10536800FAF742FF05F8016BA5EB0B06B1450246BB
:105378000B4639D1FAF73AFFDDE9022306460F4614
:10538800FBF77AFBC8B9DDE9022330463946FBF75B
:105398004BFB10B118F0010F0FD10499204600F013
:1053A800C6FA0023129A2B700AF101031360219B9D
:1053B800002B00F041821D603EE2CDF820A015F8D8
:1053C800012C392A05F1FF3308D19B450AD1089BE6
:1053D8000133089330238BF800305B461A7801328A
:1053E8001A708CE71D46EAE700229B4BFBF7B4F8DE
:1053F8000022002306460F46FBF716FB00289AD02A
:10540800CBE70A9A002A00F08B80069A012A6EDC04
:10541800139A002A67D003F23343079F059D059A24
:1054280001211A4420460592984400F020FB0646C4
:10543800002D0CDDB8F1000F09DD4545059A2B4616
:10544800A8BF4346D21A0592ED1AA8EB0308079B9A
:10545800EBB10A9B002B67D08FB131463A46204604
:1054680000F0A4FB049A01460646204600F008FB1B
:1054780004990890204600F05AFA089B0493079B69
:10548800DA1B04D00499204600F090FB0490012117
:10549800204600F0ECFA0E9B0746002B00F0D08166
:1054A8001A460146204600F081FB069B012B074661
:1054B80040DC009B002B39D1019BC3F31303002B65
:1054C80036D1019B23F000431B0D1B052BB1059B17
:1054D8000133059308F10108012307930E9B002B64
:1054E8002AD1012030E0149BC3F1360395E7079BCE
:1054F80009F1FF37BB42BFBF079B0797FA1A0E9BFC
:10550800BBBF9B180E93DF1B0027B9F1000FB5BF77
:10551800059B059DA3EB09054B46B8BF00237EE715
:10552800079F059D0A9E83E7079AABE70023D4E708
:10553800009BD2E7002307933B6907EB83031869B5
:1055480000F047FAC0F12000404410F01F0047D097
:10555800C0F12003042B3BDD059BC0F11C00034474
:10556800059305448044059B002B05DD1A460499E4
:10557800204600F069FB0490B8F1000F05DD3946BC
:105588004246204600F060FB07460F9B53B339465E
:10559800049800F0ADFB002824DA00230A220499BD
:1055A800204600F0DBF90A9B04900AF1FF3A002B31
:1055B80000F04D81002331460A22204600F0CEF942
:1055C800029B002B06464FDC069B022B4CDD11E0AC
:1055D800C9D0059A1C331A4405921D449844C2E761
:1055E8000346F6E7B9F1000F38DC069B022B35DDE0
:1055F800CDF80890029B63B939460522204600F091
:10560800ADF901460746049800F072FB00283FF701
:10561800CCAD0B9B5D466FEA030A4FF00009394693
:10562800204600F084F9002E3FF4B7AEB9F1000F20
:1056380005D0B14503D04946204600F078F93146F7
:10564800204600F074F9A8E600273E46E1E7DDF8B9
:1056580020A03E46A9E500BF000024400A9BCDF8E3
:105668000890002B00F0FA80002D05DD31462A460F
:10567800204600F0E9FA0646079B002B4CD07168DB
:10568800204600F020F9326902320546920006F100
:105698000C010C3000F00AF901222946204600F0DE
:1056A800D3FA009BCDF814B003F00103B146079379
:1056B800064639460498FFF7A5FA4946054600F11B
:1056C8003008049800F014FB324600903946204612
:1056D80000F028FBC368024603BB01460890049803
:1056E80000F006FB089A034611462046089300F08E
:1056F8001EF9089BA3B9069A92B9079A82B9B8F11C
:10570800390F29D0009B002B01DD05F13108059BDD
:105718005D1C83F8008082E73046C2E70123E3E797
:10572800009A002A04DB25D1069A1ABB079A0ABBFD
:10573800002BECDD01220499204600F085FA394659
:10574800049000F0D5FA002803DCE0D118F0010F2E
:10575800DDD0B8F1390FD8D1059B059A5D1C3923E6
:10576800137015F8013C392B05F1FF324FD0013386
:10577800137054E7059A002B02F1010506DDB8F114
:10578800390FE9D008F10108059BC2E7029A05F82C
:10579800018CA5EB0B03934221D000230A22049924
:1057A800204600F0DBF8B14504904FF000034FF0BD
:1057B8000A024946204605D100F0D0F8814606463F
:1057C800059576E700F0CAF83146814600230A229B
:1057D800204600F0C3F80646F2E74FF00009012220
:1057E8000499204600F030FA3946049000F080FA17
:1057F8000028B6DC02D118F0010FB2D115F8013C2F
:10580800302B05F1FF327FF40AAF1546F6E79345D2
:1058180005D131230AF1010A8BF80030FFE615465D
:105828009FE7DFF864B007E0219BDFF860B01BB1A9
:105838000BF10803219A1360584617B0BDE8F08FA2
:10584800069B012B7FF735AE0E9B079349E6029B1B
:10585800002B03DC069B022B3FF7CCAE5D46394696
:105868000498FFF7CFF900F1300805F8018B029A88
:10587800A5EB0B039A42B0DD00230A2204992046C7
:1058880000F06CF80490EAE7205F0008225F000847
:10589800044B1B68186A044B002808BF1846F030F0
:1058A800704700BF0C0000207000002010B5431E98
:1058B8000A44914200D110BD11F8014B03F8014F81
:1058C800F7E77047704770B5456A04460E463DB91C
:1058D8001020FEF7D3FD6062C0E901550560C56080
:1058E800656AEB6883B1636ADB6853F82600B8B968
:1058F800012101FA06F56A1D9200204600F0BEFA61
:1059080060B1C0E901650EE021220421204600F0C3
:10591800B5FA636AE860DB68002BE4D1002070BD4B
:10592800026843F826200023C0E90333F7E770B57F
:10593800446A06460D463CB91020FEF79FFD70628A
:10594800C0E901440460C4603DB1736A6A68DB68F9
:1059580053F82210296043F8225070BD2DE9F04118
:105968000D691F4606460C4601F1140C0023DCF8AD
:10597800000081B202FB01710F0C000C02FB0070E9
:1059880089B2013301EB00419D424FEA10474CF8C0
:10599800041BECDCD7B1A368AB4212DC616830466B
:1059A8000131FFF790FF2269023204F10C018046B1
:1059B80092000C30FFF77AFF21463046FFF7B7FF19
:1059C800444604EB850301355F6125612046BDE847
:1059D800F081020C12040346B2B90304102013F03C
:1059E8007F4F04BF1B02083013F0704F04BF1B0128
:1059F800043013F0404F04BF9B000230002B06DB3D
:105A08005B0003D5013070470020E8E7202070478D
:105A1800036813F0070201460BD0DA0723D498076E
:105A280049BF5B089B0801200B605CBF0B6002202C
:105A3800704798B2A8B91B0C102013F0FF0F04BFD1
:105A48001B0A08301A0704BF1B0904309A0704BF51
:105A58009B080230DA0702D45B0806D001300B60DD
:105A680070471046E9E7002070472020704710B5BE
:105A78000C460121FFF727FF01224461026110BD96
:105A88002DE9F74F14460A6923699A42B8BF0B46B5
:105A98008846BCBFA0461C46D8F81070D4F81090B1
:105AA800D8F80830D8F8041007EB0906B342B8BF95
:105AB8000131FFF708FF00F1140505EB860E2B46B0
:105AC8000022734516D304F1140208F1140102EB05
