:020000040800F2
:1000000000000220E9440008E5420008EB42000835
:10001000F1420008F7420008FD420008000000001D
:100020000000000000000000000000000343000882
:1000300011430008000000001F4300082D43000882
:100040003945000839450008394500083945000898
:100050003945000839450008394500083945000888
:100060003945000839450008394500083945000878
:100070003945000839450008394500083945000868
:1000800039450008394500083945000800000000DE
:1000900000000000000000000000000039450008DA
:1000A0003945000839450008394500083945000838
:1000B0003945000839450008394500083945000828
:1000C0003945000839450008394500083945000818
:1000D00039450008394300084D430008000000007E
:1000E000394500083945000839450008000000007E
:1000F000000000000000000000000000394500087A
:10010000000000003945000839450008394500085D
:1001100000000000000000000000000000000000DF
:1001200039450008394500083945000839450008B7
:100130003945000800000000000000000000000039
:100140000000000000000000000000003945000829
:100150003945000839450008394500086143000861
:100160003945000839450008000000000000000083
:10017000000000000000000000000000000000007F
:1001800000000000394500080000000000000000E9
:0801900039450008394500085B
:1001A00010B5054C237833B9044B13B10448AFF3B1
:1001B00000800123237010BD2003002000000000F8
:1001C00030A5000808B5034B1BB103490348AFF342
:1001D000008008BD000000002403002030A50008B6
:1001E00010F8012B11F8013B012A28BF9A42F7D0E1
:1001F000D01A7047034613F8012B002AFBD1181AB6
:1002000001387047000000000000000000000000FE
:1002100001F0FF01102A2BDB10F0070F08D010F8B7
:10022000013B013A8B422DD010F0070F42B3F6D1BB
:10023000F0B441EA012141EA014122F007047FF0D4
:1002400000070023F0E80256083C85EA010586EA2B
:10025000010685FA47F5A3FA87F586FA47F6A5FA67
:1002600087F68EB9EED1F0BC01F0FF0102F0070273
:1002700032B110F8013B013A83EA010313B1F8D11E
:100280000020704701387047002D06BF35460338FF
:10029000073815F0010F07D1013015F4807F02BF38
:1002A000013015F4C03F0130F0BC0138704700BF89
:1002B00081F0004102E000BF83F0004330B54FEA17
:1002C00041044FEA430594EA050F08BF90EA020F84
:1002D0001FBF54EA000C55EA020C7FEA645C7FEA17
:1002E000655C00F0E2804FEA5454D4EB5555B8BF3A
:1002F0006D420CDD2C4480EA020281EA030382EAAB
:10030000000083EA010180EA020281EA0303362D3C
:1003100088BF30BD11F0004F4FEA01314FF4801C0F
:100320004CEA113102D0404261EB410113F0004F21
:100330004FEA03334CEA133302D0524263EB4303D8
:1003400094EA050F00F0A780A4F10104D5F1200E76
:100350000DDB02FA0EFC22FA05F2801841F10001D1
:1003600003FA0EF2801843FA05F359410EE0A5F1A5
:1003700020050EF1200E012A03FA0EFC28BF4CF0D6
:10038000020C43FA05F3C01851EBE37101F000458C
:1003900007D54FF0000EDCF1000C7EEB00006EEB99
:1003A0000101B1F5801F1BD3B1F5001F0CD3490823
:1003B0005FEA30004FEA3C0C04F101044FEA44527A
:1003C00012F5800F80F09A80BCF1004F08BF5FEA01
:1003D000500C50F1000041EB045141EA050130BDE1
:1003E0005FEA4C0C404141EB010111F4801FA4F184
:1003F0000104E9D191F0000F04BF01460020B1FAD9
:1004000081F308BF2033A3F10B03B3F120020CDA10
:100410000C3208DD02F1140CC2F10C0201FA0CF0EE
:1004200021FA02F10CE002F11402D8BFC2F1200C53
:1004300001FA02F120FA0CFCDCBF41EA0C01904009
:10044000E41AA2BF01EB0451294330BD6FEA040452
:100450001F3C1CDA0C340EDC04F11404C4F120023D
:1004600020FA04F001FA02F340EA030021FA04F34F
:1004700045EA030130BDC4F10C04C4F1200220FAA6
:1004800002F001FA04F340EA0300294630BD21FAE4
:1004900004F0294630BD94F0000F83F4801306BFAA
:1004A00081F480110134013D4EE77FEA645C18BF9E
:1004B0007FEA655C29D094EA050F08BF90EA020F35
:1004C00005D054EA000C04BF1946104630BD91EA2D
:1004D000030F1EBF0021002030BD5FEA545C05D130
:1004E0004000494128BF41F0004130BD14F580046F
:1004F0003CBF01F5801130BD01F0004545F0FE41E3
:1005000041F470014FF0000030BD7FEA645C1ABF17
:10051000194610467FEA655C1CBF0B46024650EA4E
:10052000013406BF52EA033591EA030F41F400217A
:1005300030BD00BF90F0000F04BF0021704730B500
:100540004FF4806404F132044FF000054FF00001D5
:1005500050E700BF90F0000F04BF0021704730B596
:100560004FF4806404F1320410F0004548BF40426B
:100570004FF000013EE700BF42004FEAE2014FEAC0
:1005800031014FEA02701FBF12F07F4393F07F4F9B
:1005900081F06051704732F07F4208BF704793F09E
:1005A0007F4F04BF41F40021704730B54FF46074B1
:1005B00001F0004521F000411CE700BF50EA0102B4
:1005C00008BF704730B54FF000050AE050EA01025D
:1005D00008BF704730B511F0004502D5404261EBCD
:1005E00041014FF4806404F132045FEA915C3FF40E
:1005F000D8AE4FF003025FEADC0C18BF03325FEAAB
:10060000DC0C18BF033202EBDC02C2F1200300FA5B
:1006100003FC20FA02F001FA03FE40EA0E0021FA80
:1006200002F11444BDE600BF70B54FF0FF0C4CF46E
:10063000E06C1CEA11541DBF1CEA135594EA0C0F20
:1006400095EA0C0F00F0DEF82C4481EA030621EA5B
:100650004C5123EA4C5350EA013518BF52EA033596
:1006600041F4801143F4801338D0A0FB02CE4FF048
:100670000005E1FB02E506F00042E0FB03E54FF078
:100680000006E1FB03569CF0000F18BF4EF0010E70
:10069000A4F1FF04B6F5007F64F5407404D25FEA6C
:1006A0004E0E6D4146EB060642EAC62141EA55511F
:1006B0004FEAC52040EA5E504FEACE2EB4F1FD0C61
:1006C00088BFBCF5E06F1ED8BEF1004F08BF5FEADF
:1006D000500E50F1000041EB045170BD06F0004691
:1006E00046EA010140EA020081EA0301B4EB5C043E
:1006F000C2BFD4EB0C0541EA045170BD41F4801136
:100700004FF0000E013C00F3AB8014F1360FDEBF5A
:10071000002001F0004170BDC4F10004203C35DA36
:100720000C341BDC04F11404C4F1200500FA05F3B9
:1007300020FA04F001FA05F240EA020001F000425A
:1007400021F0004110EBD37021FA04F642EB0601D0
:100750005EEA430E08BF20EAD37070BDC4F10C04FA
:10076000C4F1200500FA04F320FA05F001FA04F2BE
:1007700040EA020001F0004110EBD37041F10001AA
:100780005EEA430E08BF20EAD37070BDC4F12005B5
:1007900000FA05F24EEA020E20FA04F301FA05F21D
:1007A00043EA020321FA04F001F0004121FA04F2C5
:1007B00020EA020000EBD3705EEA430E08BF20EA95
:1007C000D37070BD94F0000F0FD101F000464000CF
:1007D00041EB010111F4801F08BF013CF7D041EA51
:1007E000060195F0000F18BF704703F00046520055
:1007F00043EB030313F4801F08BF013DF7D043EA26
:100800000603704794EA0C0F0CEA135518BF95EADB
:100810000C0F0CD050EA410618BF52EA4306D1D162
:1008200081EA030101F000414FF0000070BD50EA81
:10083000410606BF1046194652EA430619D094EA0B
:100840000C0F02D150EA013613D195EA0C0F05D1F5
:1008500052EA03361CBF104619460AD181EA030149
:1008600001F0004141F0FE4141F470014FF0000001
:1008700070BD41F0FE4141F4780170BD70B54FF09C
:10088000FF0C4CF4E06C1CEA11541DBF1CEA13551C
:1008900094EA0C0F95EA0C0F00F0A7F8A4EB0504FE
:1008A00081EA030E52EA03354FEA013100F08880F5
:1008B0004FEA03334FF0805545EA131343EA1263BE
:1008C0004FEA022245EA111545EA10654FEA002673
:1008D0000EF000419D4208BF964244F1FD0404F52C
:1008E000407402D25B084FEA3202B61A65EB030588
:1008F0005B084FEA32024FF480104FF4002CB6EB45
:10090000020E75EB030E22BFB61A754640EA0C00C4
:100910005B084FEA3202B6EB020E75EB030E22BF04
:10092000B61A754640EA5C005B084FEA3202B6EB45
:10093000020E75EB030E22BFB61A754640EA9C0004
:100940005B084FEA3202B6EB020E75EB030E22BFD4
:10095000B61A754640EADC0055EA060E18D04FEA92
:10096000051545EA16754FEA06164FEAC30343EA32
:1009700052734FEAC2025FEA1C1CC0D111F4801FFF
:100980000BD141EA00014FF000004FF0004CB6E7F8
:1009900011F4801F04BF01430020B4F1FD0C88BF97
:1009A000BCF5E06F3FF6AFAEB5EB030C04BFB6EBA2
:1009B000020C5FEA500C50F1000041EB045170BD95
:1009C0000EF0004E4EEA113114EB5C04C2BFD4EBC2
:1009D0000C0541EA045170BD41F480114FF0000E46
:1009E000013C90E645EA060E8DE60CEA135594EAC2
:1009F0000C0F08BF95EA0C0F3FF43BAF94EA0C0FC5
:100A00000AD150EA01347FF434AF95EA0C0F7FF439
:100A100025AF104619462CE795EA0C0F06D152EA8D
:100A200003353FF4FDAE1046194622E750EA410671
:100A300018BF52EA43067FF4C5AE50EA41047FF482
:100A40000DAF52EA43057FF4EBAE12E74FF0FF3CE7
:100A500006E000BF4FF0010C02E000BF4FF0010CB8
:100A60004DF804CD4FEA410C7FEA6C5C4FEA430C31
:100A700018BF7FEA6C5C1BD001B050EA410C0CBF80
:100A800052EA430C91EA030F02BF90EA020F0020E2
:100A9000704710F1000F91EA030F58BF994208BF49
:100AA00090422CBFD8176FEAE37040F00100704706
:100AB0004FEA410C7FEA6C5C02D150EA013C07D15D
:100AC0004FEA430C7FEA6C5CD6D152EA033CD3D0A8
:100AD0005DF8040B704700BF8446104662468C46A2
:100AE0001946634600E000BF01B5FFF7B7FF0028D5
:100AF00048BF10F1000F01BD4DF808EDFFF7F4FFFE
:100B00000CBF012000205DF808FB00BF4DF808ED88
:100B1000FFF7EAFF34BF012000205DF808FB00BFAB
:100B20004DF808EDFFF7E0FF94BF012000205DF8CD
:100B300008FB00BF4DF808EDFFF7CEFF94BF012082
:100B400000205DF808FB00BF4DF808EDFFF7C4FF7B
:100B500034BF012000205DF808FB00BF4FEA410CC4
:100B60007FEA6C5C02D150EA013C0AD14FEA430CA7
:100B70007FEA6C5C02D152EA033C02D14FF00000E4
:100B800070474FF0010070474FEA410212F5001222
:100B900015D211D56FF47873B3EB625212D94FEAC4
:100BA000C12343F0004343EA505311F0004F23FAAE
:100BB00002F018BF404270474FF00000704750EA03
:100BC000013005D111F0004008BF6FF000407047C0
:100BD0004FF00000704700BF53B94AB9002908BF61
:100BE00000281CBF4FF0FF314FF0FF3000F0ACB9D0
:100BF000ADF1080C6DE904CE00F040F8DDF804E03A
:100C0000DDE9022304B0704738B500220023044612
:100C10000D46FFF77BFF28B920462946BDE838403E
:100C200000F00AB8204605F1004100F005F8404206
:100C300061EB410138BD00BFD0B500220D4B064627
:100C40000F46FFF7F1FC00F081F90446FFF772FC54
:100C50000022094BFFF7E8FC02460B4630463946B6
:100C6000FFF72AFB00F072F90022234610431946D1
:100C7000D0BD00BF0000F03D0000F0412DE9F0477D
:100C8000089E04468846002B4BD18A42154667D9F8
:100C9000B2FA82F24AB1C2F1200701FA02F320FA55
:100CA00007F7954047EA030894404FEA154E230C96
:100CB000B8FBFEF71FFA85FC0EFB178843EA0843D2
:100CC00007FB0CF1994209D9EB1807F1FF3080F0CE
:100CD0001B81994240F21881023F2B445B1AA4B257
:100CE000B3FBFEF00EFB103344EA034400FB0CFCA4
:100CF000A44509D92C1900F1FF3380F00781A445E0
:100D000040F2048102382C4440EA0740A4EB0C0472
:100D100000271EB1D4400023C6E900433946BDE890
:100D2000F0878B4209D9002E00F0EB800027C6E93E
:100D3000000138463946BDE8F087B3FA83F7002F43
:100D400047D18B4202D3824200F2FA80841A61EBCF
:100D5000030301209846002EE0D0C6E90048DDE7F5
:100D600002B9FFDEB2FA82F2002A40F08F80491BFE
:100D70004FEA154E1FFA85F80127B1FBFEFC230C44
:100D80000EFB1C1143EA014308FB0CF1994207D901
:100D9000EB180CF1FF3002D2994200F2CD8084466C
:100DA000591AA3B2B1FBFEF00EFB101443EA04443F
:100DB00008FB00F8A04507D92C1900F1FF3302D237
:100DC000A04500F2B6801846A4EB080440EA0C40A7
:100DD0009FE7C7F1200CBB4022FA0CFE4EEA030E3F
:100DE00001FA07F420FA0CF521FA0CF34FEA1E4839
:100DF0002543B3FBF8F92C0C08FB19331FFA8EFAC4
:100E000044EA034309FB0AF49C4202FA07F200FA9F
:100E100007F10BD91EEB030309F1FF3080F0878047
:100E20009C4240F28480A9F1020973441B1BADB2BD
:100E3000B3FBF8F008FB103345EA034400FB0AFA61
:100E4000A24508D91EEB040400F1FF336BD2A24582
:100E500069D90238744440EA0940A0FB0289A4EB36
:100E60000A044C45C2464B4654D351D0002E69D09B
:100E7000B1EB0A0564EB030404FA0CFCFD40FC40F2
:100E80004CEA0505C6E90054002747E7C2F12003F4
:100E900020FA03F7954001FA02F021FA03F34FEA32
:100EA000154E3843010CB3FBFEF71FFA85F80EFB15
:100EB000173341EA034107FB08F38B4204FA02F4BB
:100EC00007D9691807F1FF3C2FD28B422DD9023F79
:100ED0002944CB1A81B2B3FBFEF00EFB103341EA7A
:100EE000034100FB08F38B4207D9691800F1FF3C6E
:100EF00017D28B4215D902382944C91A40EA07474C
:100F00003BE73746304609E70746E7E61846FBE683
:100F10004145ABD2B8EB020A69EB0E020138134629
:100F2000A4E76046E9E7184695E76746D1E78146BA
:100F30007CE702382C4447E7ACF1020C2B442FE746
:100F4000384608E73746E9E6704700BF4A0011D245
:100F500012F5001211D20DD56FF47873B3EB625213
:100F60000ED44FEAC12343F0004343EA505323FA1F
:100F700002F070474FF00000704750EA013002D194
:100F80004FF0FF3070474FF00000704780B485B0DD
:100F900000AF78600B46FB707B68FB6017E07B68F6
:100FA0001B782A2B07D07B681B781F2B03D97B6803
:100FB0001B787A2B01D9FF2310E07B681B782C2B40
:100FC00002D1FB78013BFB707B6801337B60FB78CF
:100FD000002BE4D17A68FB68D31ADBB218461437C9
:100FE000BD465DF8047B704780B485B000AF786083
:100FF0000B46FB700123FB6011E0FB7803F001035B
:10100000002B04D0FB687A6802FB03F3FB607B686B
:101010007A6802FB03F37B60FB785B08FB70FB786C
:10102000002BEAD1FB6818461437BD465DF8047BF7
:10103000704780B588B000AF786039607B68FB612D
:101040000023BB6100237B610023FB740023BB747E
:1010500000237B74FB691B782D2B06D17B7C43F02E
:1010600002037B74FB690133FB61FB691B782C2B4A
:101070002CD0FB691B782A2B28D0FB691B782E2BE0
:1010800007D17B7C43F001037B74FB690133FB6177
:101090000CE0FB691B782F2B03D9FB691B78392BDC
:1010A00004D90023FB740023BB740FE07B7C03F0A6
:1010B0000103002B03D0BB7C0133BB7402E0FB7C3B
:1010C0000133FB74FB690133FB61C3E77B7C03F0F5
:1010D0000203002B02D07B6801337B6000233B744A
:1010E00019E0FA7C3B7CD31ADBB2013BDBB2194638
:1010F0000A20FFF779FF01463B7C7A6813441B788E
:1011000083F03003DBB203FB01F3BA691344BB6124
:101110003B7C01333B743A7CFB7C9A42E1D3BB7C41
:10112000052B01D90523BB743B68BA7C1A700023D8
:101130003B741CE0BA7C3B7CD31ADBB2013BDBB2D4
:1011400019460A20FFF750FF0146FA7C3B7C134406
:1011500001337A6813441B7883F03003DBB203FB5E
:1011600001F37A6913447B613B7C01333B743A7C25
:10117000BB7C9A42DED3BB7C19460A20FFF734FFC2
:101180000246BB6903FB02F27B691344FB607B7C74
:1011900003F00203002B02D0FB685B4200E0FB6817
:1011A00018462037BD4680BD80B584B000AF78605A
:1011B00039601B49386807F052F9F8600721F86870
:1011C000FFF7E4FE0346FB72FB7AFF2B24D0FB7A89
:1011D000FA68134407F10A0211461846FFF729FF7F
:1011E00003469AB27B68A3F86720BB7A022B13D818
:1011F000BB7AC3F10303DBB219460A20FFF7F4FE02
:1012000001467B68B3F867309AB28BB212FB03F3E6
:101210009AB27B68A3F8672000BF1037BD4680BD37
:1012200050A5000880B584B000AF786039601049DF
:10123000386807F014F9F8600621F868FFF7A6FE91
:101240000346FB72FB7AFF2B0DD0FB7AFA6813443E
:1012500007F10A0211461846FFF7EBFE0346DAB221
:101260007B6883F84E2000BF1037BD4680BD00BFAD
:1012700058A5000880B584B000AF78603960104987
:10128000386807F0ECF8F8600F21F868FFF77EFE89
:101290000346FB72FB7AFF2B0DD0FB7AFA681344EE
:1012A00007F10A0211461846FFF7C3FE03469AB239
:1012B0007B68A3F85D2000BF1037BD4680BD00BF2E
:1012C00060A5000890B52DED028B89B000AF786065
:1012D00039609E49386807F0C2F8F8610121F86961
:1012E000FFF754FE0346FB76FB7EFF2B3AD0FB7ED6
:1012F000FA69134407F10F0211461846FFF799FEE9
:1013000003461C46FB7B19460A20FFF76DFE034689
:10131000B4FBF3F37B617B698D4AA2FB03235B0B78
:10132000DAB27B6883F841207B698A4AA2FB0323F7
:101330005A09884BA3FB02135B09642101FB03F3E9
:10134000D31ADAB27B6883F842207A69814BA3FB17
:1013500002135B09642101FB03F3D31ADAB27B6841
:1013600083F843200321F869FFF710FE0346FB765C
:10137000FB7EFF2B50D0FB7EFA69134407F10F026E
:1013800011461846FFF755FE03467B61FB7B02338F
:10139000DBB219460A20FFF727FE02467B69B3FB42
:1013A000F2F27B685A64FB7B0233DBB219460A20F7
:1013B000FFF71AFE02467B69B3FBF2F102FB01F272
:1013C0009B1A07EE903AF8EE677AC7ED047A7B68CD
:1013D0005B6C614A02FB03F307EE903AB8EE678A52
:1013E000FB7BC3F10503DBB219460A20FFF7FCFDC6
:1013F00007EE900AB8EE677AD7ED047A27EE277ADF
:10140000DFED566AC7EE267A78EE277AFCEEE77AA9
:1014100017EE902A7B685A640421F869FFF7B6FD3D
:101420000346FB76FB7EFF2B06D0FB7EFA69134456
:101430001A787B6883F848207B6893F848304E2BF5
:1014400004D07B685B6C5A427B685A640521F8695A
:10145000FFF79CFD0346FB76FB7EFF2B53D0FB7E04
:10146000FA69134407F10F0211461846FFF7E1FD30
:1014700003467B61FB7B0233DBB219460A20FFF790
:10148000B3FD02467B69B3FBF2F27B68C3F84920E7
:10149000FB7B0233DBB219460A20FFF7A5FD0246AB
:1014A0007B69B3FBF2F102FB01F29B1A07EE903A63
:1014B000F8EE677AC7ED047A7B68D3F84930264A9C
:1014C00002FB03F307EE903AB8EE678AFB7BC3F1A9
:1014D0000503DBB219460A20FFF786FD07EE900AE6
:1014E000B8EE677AD7ED047A27EE277ADFED1B6A2C
:1014F000C7EE267A78EE277AFCEEE77A17EE902A86
:101500007B68C3F849200621F869FFF73FFD0346D1
:10151000FB76FB7EFF2B06D0FB7EFA6913441A781C
:101520007B6883F84D207B6893F84D30452B06D0BF
:101530007B68D3F849305A427B68C3F8492000BF22
:101540002437BD46BDEC028B90BD00BF68A50008E6
:101550005917B7D11F85EB51A086010000007042DA
:1015600080B483B000AF786039607B685B6C07EE55
:10157000903AF8EE677A9FED1E7AC7EE876A3B686D
:1015800016EE902A1A607B68D3F8493007EE903A3D
:10159000F8EE677A9FED167AC7EE876A3B6816EE1B
:1015A000902A5A607B68B3F867309BB207EE903A96
:1015B000F8EE677A9FED0F7AC7EE876A3B6816EE02
:1015C000902A9A607B68B3F85D309BB207EE903A40
:1015D000F8EE677AB2EE047AC7EE876A3B6816EED9
:1015E000902ADA6000BF0C37BD465DF8047B704777
:1015F0000050C34700007A4480B586B000AF3B1D61
:1016000000221A605A609A60DA601A6100233B6017
:10161000114B1B6B104A43F0040313630E4B1B6BFF
:1016200003F004033B603B6801224FF400510B4878
:1016300003F0CEFA4FF400537B600123BB6000231C
:10164000FB6002233B613B1D1946044803F03EF951
:1016500000BF1837BD4680BD003802400008024078
:1016600098B500AF04464FF40051094803F0C9FA99
:101670002346184602F0D4FF4FF40051044803F00B
:10168000C0FA2346184602F0CBFF00BF98BD00BF4A
:101690000008024080B586B000AF3B1D00221A60F2
:1016A0005A609A60DA601A6100233B602A4B1B6B18
:1016B000294A43F001031363274B1B6B03F001031B
:1016C0003B603B6801228021244803F081FA01221B
:1016D0004021224803F07CFA012220211F4803F018
:1016E00077FA80237B600123BB600023FB60022329
:1016F0003B613B1D1946194803F0E8F800228021A0
:10170000164803F065FA40237B600123BB60002389
:10171000FB6002233B613B1D1946104803F0D6F8DD
:10172000002240210D4803F053FA20237B6001235F
:10173000BB600023FB6002233B613B1D1946074849
:1017400003F0C4F800222021044803F041FA00BF4E
:101750001837BD4680BD00BF00380240000002407F
:1017600080B500AF4FF47A7002F05AFF0122802159
:10177000124803F02DFA01224021104803F028FA04
:10178000012220210D4803F023FA4FF47A7002F071
:1017900047FF00228021094803F01AFA0022402165
:1017A000064803F015FA00222021044803F010FA3D
:1017B0004FF47A7002F034FF00BF80BD0000024099
:1017C00080B500AF01F0B2F900BF80BDB0B582B006
:1017D00000AF87ED000B4FF000024FF00003D7E998
:1017E0000001FFF793F90346002B04D03C687B68A7
:1017F00083F0004501E0D7E9004545EC174BB0EE1A
:10180000470AF0EE670A0837BD46B0BDB0B582B0F2
:1018100000AF78601E4B1F4A1F49204800F0D4F9E2
:101820001B4BD3E900014FF000024FF08043FFF75C
:101830008BF90346002B35D07B689B681846FEF772
:101840009BFE174BD3E900341A462346FEF734FDBE
:1018500003460C4625461C4602F0D6FE03461846B3
:10186000FEF768FE02460B4620462946FFF706F8BB
:1018700003460C46184621464FF000024FF08043C5
:10188000FFF762F90346002B0CD001230BE000BFE9
:101890006806002078030020700300206803002001
:1018A000D025002000231D4602F0AEFE03464FF077
:1018B0000004B24AC2E900347B689B681846FEF710
:1018C0005BFE03460C46AE4AC2E90034AD4BD3E999
:1018D0000001AD4BD3E900341A462346FEF7ECFC79
:1018E00003460C4644EC173BB0EE470AF0EE670A9D
:1018F000FFF76CFF51EC100B4FF00002A34BFFF70A
:1019000023F90346002B3BD1A14BD3E90001A14BA6
:10191000D3E900341A462346FEF7CEFC03460C46B4
:1019200044EC173BB0EE470AF0EE670AFFF74EFFB4
:1019300051EC100B4FF00002944BFFF705F90346F2
:10194000002B1DD1944BD3E90001944BD3E9003413
:101950001A462346FEF7B0FC03460C4644EC173B00
:10196000B0EE470AF0EE670AFFF730FF51EC100BBC
:101970004FF00002854BFFF7E7F80346002B00D03D
:101980000125874B1B681846FEF7E4FD854B1B6855
:10199000854ADB001344D3E900341A462346FEF798
:1019A0008BFC03460C4618462146FFF7EDF802462D
:1019B0007B4B1A607D4B1B681846FEF7CBFD794BBD
:1019C0001B687B4ADB001344D3E900341A462346E4
:1019D000FEF772FC03460C4618462146FFF7D4F882
:1019E0000246724B1A60734B1B681846FEF7B2FD35
:1019F0006C4B1B68704ADB001344D3E900341A4671
:101A00002346FEF759FC03460C4618462146FFF7CD
:101A1000BBF80246674B1A60624B1A68594BD3E910
:101A200000346149D2000A44C2E900345D4B1A68AF
:101A3000574BD3E900345E49D2000A44C2E900346E
:101A4000584B1A68544BD3E900345B49D2000A441E
:101A5000C2E90034524B1B681846FEF77BFD494B28
:101A6000D3E900341A462346FEF728FC03460C4609
:101A700018462146FFF788F80246494B1A604B4B3F
:101A80001B681846FEF766FD414BD3E900341A4641
:101A90002346FEF713FC03460C4618462146FFF783
:101AA00073F80246414B1A60424B1B681846FEF71A
:101AB00051FD394BD3E900341A462346FEF7FEFBAD
:101AC00003460C4618462146FFF75EF80246394B9E
:101AD0001A60334B1B681846FEF73CFD4FF00002BE
:101AE000364BFEF7CBFE03460C46274AC2E90034CC
:101AF0002E4B1B681846FEF72DFD4FF000022F4BB2
:101B0000FEF7BCFE03460C46224AC2E90034294BCC
:101B10001B681846FEF71EFD4FF00002274BFEF72C
:101B2000ADFE03460C461D4AC2E900341D4B1B683E
:101B30005A1C234B83FB02135911D317CB1A4FF4B2
:101B4000FA7101FB03F3D31A164A13607B689B6892
:101B5000F3EE097A07EE103AB4EEE77AF1EE10FAF6
:101B600000D80025002D04D001222021154803F0C3
:101B70002FF82B4618460837BD46B0BD400300205D
:101B8000D025002068030020780600200080564001
:101B900070030020201600207803002078350020F4
:101BA0007006002074060020301600202816002041
:101BB000D82500202C1600208006002000407F4001
:101BC000D34D6210000002402DE9F04B8CB000AF05
:101BD000F860B9607A603B6002F016FDB862984B1D
:101BE0001B68BA6AD31A1846FEF7A4FC4FF000022D
:101BF000944BFEF743FE03460C46934AC2E9003479
:101C00008F4ABB6A1360914A9149924801F050F89B
:101C1000914A9249924801F07DF8914BB3F9003016
:101C20001846FEF797FC8F4BD3E900341A4623463B
:101C3000FEF724FE03460C468B4AC2E90034874B6C
:101C4000B3F900301846FEF785FC864BD3E9003423
:101C50001A462346FEF712FE03460C46834AC2E9A3
:101C600000347D4BB3F900301846FEF773FC7D4B12
:101C7000D3E900341A462346FEF700FE03460C461D
:101C80007B4AC2E90034784BD3E90001764BD3E9B3
:101C900000341A462346FEF7C7FC03460C461D4691
:101CA0002646724BD3E90001704BD3E900341A4643
:101CB0002346FEF7B9FC03460C461A46234628463F
:101CC0003146FEF7FBFA03460C461D462646684B96
:101CD000D3E90001664BD3E900341A462346FEF7E8
:101CE000A3FC03460C461A46234628463146FEF717
:101CF000E5FA03460C4644EC173BB0EE470AF0EE1B
:101D0000670A05F05FFDB0EE407AF0EE607A3B685E
:101D100083ED007B554BD3E90001554BD3E90034EB
:101D20001A462346FEF7AAFD03460C4644EC173B31
:101D3000B0EE470AF0EE670A05F09AFB51EC100B83
:101D40004FF000024B4BFEF76FFC03460C46184663
:101D50002146494BD3E900341A462346FEF78EFD4F
:101D600003460C46454AC2E900343F4BD3E9000123
:101D70003F4BD3E900341A462346FEF77FFD034666
:101D80000C4644EC173BB0EE470AF0EE670A05F04C
:101D90006FFB51EC100B4FF00002394BFEF744FC87
:101DA00003460C4618462146334BD3E900341A4605
:101DB0002346FEF763FD03460C46324AC2E900346F
:101DC0002B4BD3E90001294BD3E900341A462346B3
:101DD000FEF754FD03460C4644EC173BB0EE470AB1
:101DE000F0EE670A05F044FB51EC100B4FF00002D7
:101DF000234BFEF719FC03460C46184621461E4BA2
:101E0000D3E900341A462346FEF738FD03460C4654
:101E10001D4AC2E900341D4A4FF000034FF0000490
:101E2000C2E90034194BD3E90034194AC2E900343D
:101E3000174BD3E90034174AC2E900340124C5E046
:101E40004803002000408F40303600201836002024
:101E5000C035002048360020C23500204A36002018
:101E6000E83500200800002050360020D83500203A
:101E700028360020008066C00000002050030020AB
:101E8000008066405803002060030020A035002039
:101E90008035002098350020611EC74AE3001344B6
:101EA000D3E90023C448C9000144C1E90023C34B5E
:101EB000D3E9002310461946FEF788FB8046894681
:101EC000BD4AE3001344D3E900562046FEF742FB27
:101ED00002460B4628463146FEF7A6FB02460B4655
:101EE00040464946FEF7EAF902460B4610461946B7
:101EF000FEF78AFE02460B46B049C1E90023611E87
:101F0000AF4AE3001344D3E90023AD48C9000144BC
:101F1000C1E90023AB4BD3E9002310461946FEF775
:101F200055FB80468946A64AE3001344D3E9005690
:101F30002046FEF70FFB02460B4628463146FEF7C9
:101F400073FB02460B4640464946FEF7B7F9024688
:101F50000B4610461946FEF757FE02460B469949B6
:101F6000C1E90023611E984AE3001344D3E900232A
:101F70009548C9000144C1E90023944BD3E90023EB
:101F800010461946FEF722FB804689468E4AE3003A
:101F90001344D3E900562046FEF7DCFA02460B460E
:101FA00028463146FEF740FB02460B46404649466E
:101FB000FEF784F902460B4610461946FEF724FE4A
:101FC00002460B468149C1E90023013420464FEA0D
:101FD000E0717F4BD3E90023994208BF90427FF420
:101FE0005BAF7B4BD3E9003413F1FF3144F1FF3297
:101FF000784BD3E9003470480A46D2000244C2E963
:1020000000346E4BD3E9003418462146FEF7DEFA61
:1020100005460E466E4BD3E9003418462146FEF7BE
:10202000D5FA6C4BD3E900341A462346FEF7FCFA86
:1020300003460C461A46234628463146FEF73EF92B
:1020400003460C4618462146FEF7DEFD03460C46C5
:102050005A4AC2E90034594BD3E9003418462146A4
:10206000FEF7B4FA80468946594BD3E90056AB4691
:10207000B4461BEB0B034CEB0C049B46A4461BEB3A
:10208000050B4CEB060C4FF000014FF000024FEA3D
:102090008C0242EA9B724FEA8B018B4694465B4668
:1020A00064465B1B64EB060418462146FEF78EFA75
:1020B0004FF000024FF08043FEF7E0FB03460C4672
:1020C0001A46234640464946FEF7D8FB03460C46CF
:1020D000184621464FF000023F4BFEF7A5FA034693
:1020E0000C46184621464FF000023C4BFEF7C6FB5B
:1020F00003460C46374AC2E90034354BD3E9003475
:1021000013F1FF3144F1FF32354BD3E900342C4851
:102110000A46D2000244C2E900342A4BD3E9003413
:1021200018462146FEF752FA05460E46284BD3E9DB
:10213000003418462146FEF749FA294BD3E900340A
:102140001A462346FEF770FA03460C461A46234603
:1021500028463146FEF7B2F803460C46184621469B
:10216000FEF752FD03460C46164AC2E90034154BF1
:10217000D3E9003418462146FEF728FA80468946FE
:10218000134BD3E90056AB46B4461BEB0B034CEBA9
:102190000C049B46A4461BEB050B4CEB060C4FF0C6
:1021A00000014FF000024FEA8C0242EA9B724FEAB4
:1021B0008B018B46944615E0900300209835002053
:1021C000D00300208035002010040020A03500201E
:1021D00018000020500300200000224000001C4096
:1021E000580300205B4664465B1B64EB06041846FC
:1021F0002146FEF7EBF94FF000024FF08043FEF767
:102200003DFB03460C461A46234640464946FEF728
:1022100035FB03460C46184621464FF00002A34BFF
:10222000FEF702FA03460C46184621464FF000021C
:102230009F4BFEF723FB03460C469E4AC2E900343F
:102240009D4BD3E9003413F1FF3144F1FF329B4B36
:10225000D3E900349A480A46D2000244C2E9003465
:10226000984BD3E9003418462146FEF7AFF90546EE
:102270000E46914BD3E9003418462146FEF7A6F9E5
:102280008E4BD3E900341A462346FEF7CDF90346B8
:102290000C461A46234628463146FEF70FF80346F9
:1022A0000C4618462146FEF7AFFC03460C46854A0D
:1022B000C2E90034834BD3E9003418462146FEF7C7
:1022C00085F9804689467C4BD3E90056AB46B44637
:1022D0001BEB0B034CEB0C049B46A4461BEB050BC2
:1022E0004CEB060C4FF000014FF000024FEA8C025D
:1022F00042EA9B724FEA8B018B4694465B466446EA
:102300005B1B64EB060418462146FEF75FF94FF0AD
:1023100000024FF08043FEF7B1FA03460C461A461E
:10232000234640464946FEF7A9FA03460C4618469E
:1023300021464FF000025D4BFEF776F903460C464E
:10234000184621464FF00002594BFEF797FA034614
:102350000C465A4AC2E900345B4B1B685B4AB2F92F
:1023600000209B1A1846FEF7F5F8594BD3E90034C4
:102370001A462346FEF782FA03460C4618462146C3
:10238000544BD3E900341A462346FEF74DF9034671
:102390000C46C7E90834504B1B68504AB2F900207C
:1023A0009B1A1846FEF7D6F8494BD3E900341A4673
:1023B0002346FEF763FA03460C4618462146454B72
:1023C000D3E900341A462346FEF72EF903460C469D
:1023D000C7E90634424B1B68424AB2F900209B1AF7
:1023E0001846FEF7B7F83A4BD3E900341A462346AD
:1023F000FEF744FA03460C4618462146354BD3E90E
:1024000000341A462346FEF70FF903460C46C7E987
:102410000434354BD3E90001D7E90823FDF74EFF1B
:1024200003460C46304AC2E90034304BD3E9000180
:10243000D7E90623FDF742FF03460C462B4AC2E9C3
:1024400000342B4BD3E90001D7E90423FDF736FF15
:1024500003460C46264AC2E90034264A4FF00003E0
:102460004FF00004C2E90034224BD3E90034224A81
:10247000C2E90034204BD3E90034204AC2E90034D9
:102480001E4BD3E900341E4AC2E900341C4BD3E989
:1024900000341C4AC2E900341A4BD3E900341A4A0A
:1024A000C2E900340123FB6290E000BF000022403B
:1024B00000001C405803002018000020600300208A
:1024C00010040020A03500208003002048360020A2
:1024D000100000203036002084030020C03500208A
:1024E00088030020183600206803002070030020B5
:1024F00078030020B8350020A8350020883500205A
:1025000038360020E0350020F8350020FB6A5A1EDE
:102510006449FB6ADB000B44D3E900346149D20013
:102520000A44C2E900345F4AFB6ADB001344D3E982
:1025300000015D4BD3E900341A462346FDF7BEFE89
:1025400003460C46584AC2E90034FB6A5A1E5749F2
:10255000FB6ADB000B44D3E900345449D2000A443F
:10256000C2E90034514AFB6ADB001344D3E900019D
:102570004F4BD3E900341A462346FDF79FFE03462E
:102580000C464B4AC2E90034FB6A5A1E4949FB6AB1
:10259000DB000B44D3E900344649D2000A44C2E9C7
:1025A0000034444AFB6ADB001344D3E90001424B88
:1025B000D3E900341A462346FDF780FE03460C4655
:1025C0003D4AC2E90034FB6A0133FB62FB6A0A2B15
:1025D0009CD13A4BD3E90034324AC2E91234324B2F
:1025E000D3E90001354BD3E900341A462346FDF701
:1025F00065FE03460C462C4AC2E900342A4BD3E957
:1026000000014FF000022E4BFEF738F903460C464E
:10261000254AC2E900342B4BD3E90034234AC2E9EE
:102620001234234BD3E90001264BD3E900341A4678
:102630002346FDF743FE03460C461D4AC2E900341B
:102640001B4BD3E900014FF000021D4BFEF716F9BA
:1026500003460C46164AC2E900341B4BD3E900344A
:10266000144AC2E91234144BD3E90001164BD3E9E2
:1026700000341A462346FDF721FE03460C460E4A57
:10268000C2E900340C4BD3E900014FF000020C4BBF
:10269000FEF7F4F803460C46074AC2E9003400246A
:1026A00099E000BF50040020F8350020A00400206D
:1026B00038360020F0040020A83500205003002008
:1026C000000024405803002060030020B04AE300CB
:1026D0001344D3E90001AF4BD3E90023FDF7ECFD30
:1026E00002460B4615461E46A94AE3001344D3E9A9
:1026F0000001A84BD3E90023FDF7DEFD02460B469F
:1027000028463146FDF790FF02460B461046194613
:10271000A14BD3E90023FDF7D1FD02460B469E49AC
:10272000C1E900239D4AE3001344D3E900019C4B17
:10273000D3E90023FDF7C0FD02460B4615461E46B1
:10274000964AE3001344D3E90001954BD3E90023F3
:10275000FDF7B2FD02460B4628463146FDF764FF01
:1027600002460B46104619468E4BD3E90023FDF76F
:10277000A5FD02460B468B49C1E900238A4AE300C6
:102780001344D3E90001894BD3E90023FDF794FDFD
:1027900002460B4615461E46834AE3001344D3E91E
:1027A0000001824BD3E90023FDF786FD02460B466C
:1027B00028463146FDF738FF02460B4610461946BB
:1027C0007B4BD3E90023FDF779FD02460B467849A0
:1027D000C1E9002301340A2C7FF478AF6E4BD3E9B2
:1027E00000014FF00002734BFEF748F803460C4619
:1027F000694AC2E900346B4BD3E900014FF0000293
:102800006C4BFEF73BF803460C46664AC2E90034BF
:10281000674BD3E900014FF00002664BFEF72EF83C
:1028200003460C46624AC2E90034634BD3E9000117
:1028300055A3D3E90023FDF741FD03460C465E4A4C
:10284000C2E900345C4BD3E900455B4BD3E900019E
:10285000514BD3E90023FDF731FD02460B462046DC
:102860002946FEF70BF803460C46544AC2E90034E9
:10287000534BD3E90001534BD3E900341A462346A6
:10288000FDF71AFD03460C46184621464B4BD3E98B
:1028900000341A462346FDF7C7FE03460C46184689
:1028A0002146484BD3E900341A462346FDF706FD7E
:1028B00003460C46434AC2E90034404BD3E9003496
:1028C0001A4623464FF000003F49FDF7F5FC03464A
:1028D0000C4618462146384BD3E900341A462346A5
:1028E000FDF7A2FE03460C46334AC2E90034374BDB
:1028F000D3E9000124A3D3E90023FDF7DFFC03465D
:102900000C46324AC2E90034304BD3E900452F4B24
:10291000D3E90001234BD3E90023FDF7CFFC0246A6
:102920000B4620462946FDF7A9FF03460C46284AD8
:10293000C2E90034274BD3E90001274BD3E9003427
:102940001A462346FDF7B8FC03460C4618462146B6
:102950001F4BD3E900341A462346FDF765FE0346B4
:102960000C46184621461C4BD3E900341A46234630
:10297000FDF7A4FC03460C46174AC2E90034144B89
:102980002CE000BFAFF300807B14AE47E17A643FD8
:1029900050040020F8350020E0350020A00400207D
:1029A0003836002088350020F0040020A8350020AB
:1029B000B83500200000224020000020083600200A
:1029C00050030020680300200000F03F2800002092
:1029D000D03500205803002070030020D3E90034D4
:1029E0001A4623464FF000004749FDF765FC0346B1
:1029F0000C4618462146454BD3E900341A46234677
:102A0000FDF712FE03460C46404AC2E90034404B33
:102A1000D3E900013AA3D3E90023FDF74FFC0346B5
:102A20000C463B4AC2E90034394BD3E90045384BE8
:102A3000D3E90001374BD3E90023FDF73FFC024601
:102A40000B4620462946FDF719FF03460C46324A3D
:102A5000C2E90034314BD3E90001314BD3E90034F2
:102A60001A462346FDF728FC03460C461846214625
:102A7000294BD3E900341A462346FDF7D5FD03461A
:102A80000C4618462146264BD3E900341A46234605
:102A9000FDF714FC03460C46214AC2E900341E4BE4
:102AA000D3E900341A4623464FF000001649FDF7DB
:102AB00003FC03460C4618462146154BD3E9003467
:102AC0001A462346FDF7B0FD03460C46104AC2E9FC
:102AD0000034144BD3E90034FA68C2E90034124BD5
:102AE000D3E90034BA68C2E900340D4BD3E90034AD
:102AF0007A68C2E9003400BF3037BD46BDE8F08BCC
:102B00007B14AE47E17A643F0000F03F28000020CC
:102B100030000020B835002020360020600300205F
:102B200078030020680300207003002080B582B085
:102B300000AF1F4802F080F880216B2000F03EF9C2
:102B400000216B2000F03AF9032000F033F8002058
:102B500000F041F8322000F080F80021382000F029
:102B60002DF900216A2000F029F90021232000F02E
:102B700025F98021372000F021F9752000F042F975
:102B80000346FB71FB79682B0CD101216B2000F00F
:102B900015F900216C2000F011F9322000F05DF8E9
:102BA000002300E0012318460837BD4680BD00BF62
:102BB0005005002080B582B000AF0346FB71FB7961
:102BC000DB00DBB219461B2000F0F8F8034618467C
:102BD0000837BD4680BD80B582B000AF0346FB71AB
:102BE000FB79DB00DBB219461C2000F0E7F8034656
:102BF00018460837BD4680BD80B584B000AF034697
:102C0000FB800023FB73FB88BB2B02D90123FB73E2
:102C100019E0FB88612B02D90223FB7313E0FB88C8
:102C2000292B02D90323FB730DE0FB88132B02D958
:102C30000423FB7307E0FB88092B02D90523FB73F0
:102C400001E00623FB73FB7B19461A2000F0B6F85F
:102C5000034618461037BD4680BD80B584B000AF2E
:102C60000346FB80FB88B3F57A7F02D94FF47A7371
:102C7000FB80FB88032B01D80423FB80FB884FF4E7
:102C80007A7292FBF3F3DBB2013BFB73FB7B1946D9
:102C9000192000F093F80346FB73FB885B089BB296
:102CA0001846FFF7A9FF034618461037BD4680BDFA
:102CB00080B586B000AFF860B9607A6007F11003A4
:102CC0001A460621432000F057F80346FB75FB7DAA
:102CD000002B1AD13B7C1B021AB27B7C1BB2134324
:102CE0001AB2FB681A80BB7C1B021AB2FB7C1BB2B7
:102CF00013431AB2BB681A803B7D1B021AB27B7D5C
:102D00001BB213431AB27B681A80FB7D1846183732
:102D1000BD4680BD80B586B000AFF860B9607A600E
:102D200007F110031A4606213B2000F025F8034660
:102D3000FB75FB7D002B1AD13B7C1B021AB27B7CFE
:102D40001BB213431AB2FB681A80BB7C1B021AB277
:102D5000FB7C1BB213431AB2BB681A803B7D1B027B
:102D60001AB27B7D1BB213431AB27B681A80FB7DBB
:102D700018461837BD4680BD80B586B004AF0346FF
:102D80003A60FB710B46BB71FB7999B2BB799BB280
:102D900040F6FF72029201933B68009301230A46BA
:102DA000D121054802F07AF9642001F039FC0023B2
:102DB00018460837BD4680BD5005002080B588B054
:102DC00004AF03460A46FB711346BB71BB79FB7324
:102DD000FB799AB240F6FF7302930123019307F146
:102DE0000F0300930123D021054802F05DF8642011
:102DF00001F016FC002318461037BD4680BD00BF09
:102E00005005002080B588B004AF0346FB71002355
:102E1000FB73FB799AB240F6FF730293012301938F
:102E200007F10F0300930123D121054802F036F981
:102E3000642001F0F5FBFB7B18461037BD4680BDD2
:102E40005005002080B58CB000AF78600023BB62D5
:102E5000174BFB627A6807F108031146184600F029
:102E600033FE10E0FB6A1B6807F1080211461846A2
:102E7000FDF7B6F90346002B02D1FB6ABB6206E000
:102E8000FB6A0C33FB62FB6A1B68002BEAD1BB6A4E
:102E9000002B08D0BB6A5B68BA6A12687968104672
:102EA0009847034600E0012318463037BD4680BDF1
:102EB0003800002080B5C6B000AF07F10C031860E1
:102EC00007F1080319603B1D1A600023C7F814318D
:102ED00007F1080207F10C031168186805F0B7FA4A
:102EE0003B1D1B6893F82030002B71D00023C7F8DE
:102EF000143164E0D7F81431002B20D13B1D1A683F
:102F0000D7F814311B02134421331B783F2B16D101
:102F10003A1DD7F814311B022033126813445A1C8F
:102F200007F114031146184605F091FA07F114024F
:102F300007F10C031146186805F07AFA3AE0D7F861
:102F40001431002B20D13B1D1A68D7F814311B0215
:102F5000134421331B783F2B16D03A1DD7F8143178
:102F60001B022033126813445A1C07F1140323492F
:102F7000184605F03DFA07F1140207F10C0311465B
:102F8000186805F055FA15E03A1DD7F814311B0200
:102F90002033126813445A1C07F1140318491846C9
:102FA00005F026FA07F1140207F10C031146186820
:102FB00005F03EFAD7F814310133C7F814313B1D40
:102FC0001B6893F820301A46D7F81431934291DBEE
:102FD00007F10C031868FDF70DF903461A4607F1CF
:102FE0000C031B681344074A1188927819809A7061
:102FF00000BF07F58C77BD4680BD00BFF8A500086F
:10300000FCA5000800A6000880B5C4B000AF3B1DB9
:1030100018603B4619600023C7F80C3127E03A4698
:103020003B1D07F10C0012681968FFF743FF07F119
:103030000C031846FDF7DEF803469AB207F10C03BD
:103040001946104803F074FB3B461B6803F5A15377
:1030500001330121184600F017F80346002B01D177
:10306000002309E0D7F80C310133C7F80C31D7F849
:103070000C31012BD3DD0123184607F58877BD46B7
:1030800080BD00BFE405002080B584B000AF78604B
:1030900039600223FB600A23FB604FF400620021C9
:1030A000114804F0C5FC15E03B68002B06D06423F2
:1030B0004FF400620C490D4803F094FA79680A480D
:1030C00005F0CDF90346002B01D0002308E00120D4
:1030D00001F0A6FAFB685A1EFA60002BE4D1012326
:1030E00018461037BD4680BD58360020E405002044
:1030F00080B582B000AF78607B68002283F8202022
:103100007B6821334FF4A0520021184604F090FC54
:103110007B6803F5A15301334FF4807200211846F8
:1031200004F086FC4FF400620021034804F080FCA8
:1031300000BF0837BD4680BD5836002080B582B03C
:1031400000AF1C4A1C4B03CB106051601B881381DD
:10315000184B042283F820201849194805F077F904
:103160001849194805F073F9184B194A1068186086
:1031700092889A80174B184A10681860174B184AA3
:103180001188927819809A700A48FFF75BFE786080
:103190000848FFF7ADFF7B68002B03D0114805F00E
:1031A0001FF902E0104805F01BF97B681846083744
:1031B000BD4680BD583E002004A600082401002022
:1031C000793E002038010020793F0020794000201E
:1031D00010A600087941002018A6000879520020A6
:1031E0001CA6000820A6000840A6000880B582B0F2
:1031F00000AF234A234B03CB106051601B8813811F
:103200001F4B082283F820201F4A204B1B88138065
:103210001F4A204B1B8813801F49204805F017F9CF
:103220001F4B204A106818601F4A184B1B881380D8
:103230001E4A164B1B8813801D491E4805F007F9CE
:103240001D491E4805F003F91D4B1E4A118892784E
:1032500019809A700A48FFF7F5FD78600848FFF773
:1032600047FF7B68002B03D0174805F0B9F802E050
:10327000164805F0B5F87B6818460837BD4680BD8E
:10328000583E002064A60008793E002070A6000881
:10329000793F002074A60008D40000207940002067
:1032A0007941002078A60008794200207943002067
:1032B000E800002079440020FC000020794500202F
:1032C000795200201CA600087CA6000894A60008DD
:1032D00080B582B000AF194A194B03CB1060516022
:1032E0001B881381154B032283F82020154A164BA7
:1032F0001B8813801549164805F0A9F8154A164B86
:103300001B881380154B164A1188927819809A7081
:103310000A48FFF797FD78600848FFF7E9FE7B68E9
:10332000002B03D00F4805F05BF802E00E4805F0D3
:1033300057F87B6818460837BD4680BD583E0020C8
:10334000B0A60008793E002070A6000810010020F9
:10335000793F002079400020BCA600087952002067
:103360001CA60008C0A60008D4A6000880B586B038
:1033700000AF78607868FCF73DFF0346023B7B6155
:1033800007F1080305220021184604F051FB7B6970
:103390009BB207F108021146184600F033FB224A9F
:1033A000224B03CB106051601B8813811E4B0722F8
:1033B00083F820201E4A1F4B1B8813801E491F487C
:1033C00005F045F81E4A1B4B1B8813801D4A194BFC
:1033D0001B8813801C4A174B1B88138007F10803B6
:1033E00019461A4805F033F819491A4805F02FF81C
:1033F000194B1A4A1188927819809A700A48FFF777
:1034000021FD38610848FFF773FE3B69002B03D0AC
:10341000134804F0E5FF02E0124804F0E1FF3B69C5
:1034200018461837BD4680BD583E0020E8A6000863
:10343000793E002070A6000810010020793F00208E
:103440007940002079410020794200207943002012
:103450007C54002079440020795200201CA60008EA
:10346000F4A6000808A7000890B583B000AF164A7C
:10347000164B144607CB20606160A2601B78237353
:10348000114B012283F82020114A124B1B88138014
:10349000114B124A1188927819809A700A48FFF7E6
:1034A000D1FC78600848FFF723FE7B68002B03D02F
:1034B0000B4804F095FF02E00A4804F091FF7B6896
:1034C00018460C37BD4690BD583E002058A700084E
:1034D000793E002070A60008795200201CA6000842
:1034E00068A7000884A7000880B582B000AF164A1C
:1034F000164B03CB1060516019889B781181937231
:10350000114B012283F82020114A124B1B88138093
:10351000114B124A1188927819809A700A48FFF765
:1035200091FC78600848FFF7E3FD7B68002B03D02F
:103530000B4804F055FF02E00A4804F051FF7B6895
:1035400018460837BD4680BD583E0020A0A7000899
:10355000793E0020BCA60008795200201CA6000875
:10356000ACA70008BCA700082DE9B04F8CB008AF8D
:1035700078607B681B681846FCF7FEFF82468B4626
:103580007B685B681846FCF7F7FF04460D467B68CE
:103590009B681846FCF7F0FF804689467B68DB682D
:1035A0001846FCF7E9FF02460B467968096906915F
:1035B000CDE90423CDE90289CDE9004552465B46B9
:1035C0001349144804F014FF1248FCF713FE034695
:1035D000FB601049104800F0B3FAFA680F490D4833
:1035E00004F006FF0C490B4804F022FF0948FCF7E1
:1035F00001FE03461A46074B134409491A460B4677
:103600001B88138000BF1037BD46BDE8B08F00BFD8
:10361000F8A700087C5400207C53002034A8000840
:103620003CA8000880B582B000AF7860214B1B68D1
:10363000012B0CD0022B1FD0002B37D100F0C8F982
:103640000346002B2BD11B4B01221A6027E0FFF70A
:103650000BFFFFF773FD0346002B22D1FFF7C6FDDA
:103660000346002B1FD1FFF733FE0346002B1CD16E
:10367000104B02221A6019E0012240210E4801F08D
:10368000A7FAFFF731FF7868FFF76EFF0B48FFF7E7
:103690006DFE00224021084801F09AFA06E000BFC2
:1036A00004E000BF02E000BF00E000BF0837BD46F5
:1036B00080BD00BF40050020000002407C54002077
:1036C00080B586B000AF00233B612E4B2E4A1068B8
:1036D00018609188927999809A712A4B002283F818
:1036E00020202A4B2A4A1068186012791A7125483E
:1036F000FFF7A8FB78617B69002B3AD164234FF474
:1037000000622449244802F06DFF2449214804F056
:10371000A6FEF860FB680633FB6011E0FB681978D1
:103720003A1D3B6913440A461A70FB680133FB607B
:103730003B6901333B613A1D3B69134400221A7017
:10374000FB681B782C2BE9D13B1D1946144804F06B
:10375000D3FD3B1D184600F093F90346092B06DD07
:103760003B1D184600F08CF90346632B01D1012361
:103770007B610448FFF7BCFC7B6918461837BD46DF
:1037800080BD00BF583E002054A800087952002098
:103790005CA8000858360020E405002064A8000852
:1037A0006CA8000880B500AF184A194B03CB106015
:1037B0005160164B012283F82020164A164B1B88B5
:1037C0001380164B164A1068186012791A710F4848
:1037D000FFF738FB0346002B0ED101211148FFF7FC
:1037E00053FC0346002B02D10F4804F0F9FD0748B3
:1037F000FFF77EFC002306E00C4804F0F1FD0348CF
:10380000FFF776FC0123184680BD00BF583E00201C
:1038100094A80008793E00209CA800087952002056
:103820004CA80008A0A80008B0A80008BCA8000880
:1038300080B582B000AF384A384B03CB106051607E
:103840001B781372344B012283F82020344A354B05
:103850001B881380344B354A1188927819809A70EE
:103860002D48FFF7EFFA78607B68002B4CD10121DF
:103870002F48FFF709FC0346002B05D101237B608D
:103880002C4804F0ADFD3FE000212B48FFF7FCFB86
:103890000346002B05D100237B60284804F0A0FDDF
:1038A00032E000212648FFF7EFFB0346002B05D14D
:1038B00001237B60234804F093FD25E0002122488A
:1038C000FFF7E2FB0346002B05D101237B601F4875
:1038D00004F086FD18E000211D48FFF7D5FB0346E4
:1038E000002B05D101237B601A4804F079FD0BE021
:1038F00000211748FFF7C8FB0346002B04D1002323
:103900007B60154804F06CFD0348FFF7F1FB7B6812
:1039100018460837BD4680BD583E0020D4A8000890
:10392000793E00209CA8000879520020E0A80008F9
:10393000E4A80008F0A8000808A9000814A90008D5
:103940002CA9000838A9000850A900085CA90008A3
:1039500074A9000880A9000898A9000898B500AFCC
:10396000144A154B03CB106051601B781372114B36
:10397000012283F82020114A114B1B881380114A21
:10398000114B144607CB20606160A2600948FFF725
:1039900059FA0346002B07D00C4804F021FD0548D6
:1039A000FFF7A6FB012303E00248FFF7A1FB00237A
:1039B000184698BD583E0020ACA90008793E00206A
:1039C0009CA8000879520020B8A90008C4A90008E2
:1039D00080B500AFFFF7E6FE0346002B01D00123C0
:1039E0000EE0FFF725FF0346002B01D0022307E07E
:1039F000FFF7B4FF0346002B01D0032300E00023B0
:103A0000184680BD80B485B000AF03463960FB80A6
:103A10000023FB73FB88BB8102E0FB7B0133FB735C
:103A2000BB89164AA2FB0323DB08BB81BB89002BA1
:103A3000F3D1FA88114BA3FB0213D9080B469B0064
:103A40000B445B00D31A9BB2DAB2FB7B591EF973AD
:103A500019463B680B443032D2B21A70FB88074AD1
:103A6000A2FB0323DB08FB80FB88002BE1D100BF16
:103A70001437BD465DF8047B704700BFCDCCCCCC7D
:103A800080B485B000AF78600023FB6011E0FB6874
:103A90005A00FB68DB001344FB607B681B7883F0F3
:103AA0003003DBB21A46FB681344FB607B680133CA
:103AB0007B607B681B78002BE9D1FB6818461437C4
:103AC000BD465DF8047B704780B584B000AF786078
:103AD00039600023FB603868FCF78CFB0346BB6051
:103AE00021E0FB683A6813441B787A2B10D8FB68F6
:103AF0003A6813441B78602B0AD9FB683A68134470
:103B00001A78FB6879680B44203AD2B21A7007E041
:103B1000FB683A681A44FB6879680B4412781A709B
:103B2000FB680133FB60FA68BB689A42D9DBFB682B
:103B30007A68134400221A7000BF1037BD4680BD5A
:103B400080B588B000AF786039603868FCF752FB08
:103B50000346FB600023BB6100237B610023FB6104
:103B600030E0FB693A6813441B78FB7400237B61E7
:103B70000BE0FA7C7B69591C796102F00F0218494D
:103B800041F82320FB7C1B09FB74FB7C002BF0D14C
:103B90007B69013B7B610FE0114A7B6952F823206E
:103BA000BB69591CB96119467B680B440D498A5C95
:103BB0001A707B69013B7B617B69002BECDAFB6946
:103BC0000133FB61FA69FB689A42CADBBB697A6818
:103BD000134400221A7000BF2037BD4680BD00BFCD
:103BE0007C550020A0AA000880B582B000AF7860A4
:103BF000391D4FF6FF730122034802F05AFC7B681F
:103C000018460837BD4680BDA40500202DE9B04305
:103C100084B004AF4FF47A7341F288324449454886
:103C200002F0E0FC42494448FDF7FCFA424B93F8AD
:103C30004E30002B08D101228021404800F0C8FFFF
:103C40003F4804F0CDFB6FE0012280213B4800F0AB
:103C5000BFFF37493848FDF735FB35493648FDF792
:103C600009FB33493448FDF79FFA31493248FDF7E3
:103C700029FB34493048FDF773FC324B1B68324A4C
:103C80001360304B5B68304A53602E4B9B682E4A62
:103C900093602C4BDB682C4AD3602C4804F0A0FBCB
:103CA000254B93F84E30022B01D0294C00E0294CD3
:103CB000244BDB681846FCF75FFC02460B462146A6
:103CC000254804F019FB1C4B93F8413019461A4B58
:103CD00093F842301A46184B93F843301F4804F0CB
:103CE0000BFB184B1B681846FCF746FC80468946C0
:103CF000144B5B681846FCF73FFC04460D46114B1D
:103D00009B681846FCF738FC02460B46CDE90223B7
:103D1000CDE9004542464B46114804F0EDFA002239
:103D20008021064800F054FF00BFBD46BDE8B083C7
:103D300000760020240600207C7500200000024050
:103D4000DCA90008E875002090890020F4A900088B
:103D500010AA000814AA000818AA000834AA00082B
:103D600050AA000880B500AF00F0E8FB00F046F86C
:103D700000F04EF900F0A0F800F0F6F800F01EF99F
:103D800000F0C8F8FDF71CFDFDF784FCFDF734FCDE
:103D9000FDF7E6FC01221249124802F00EFD012255
:103DA0004021114800F014FF06E0104804F018FB11
:103DB0004FF47A7000F034FCFFF782FC0346002BCE
:103DC000F3D10B4804F00CFBFFF720FF0948FDF787
:103DD0001DFD0246084B1A610748FFF723FCF3E775
:103DE000FD750020240600200000024074AA00088F
:103DF0008CAA0008E87500209089002080B594B056
:103E000000AF07F1200330220021184603F010FE16
:103E100007F10C0300221A605A609A60DA601A6196
:103E20000023BB60224B1B6C214A43F08053136478
:103E30001F4B1B6C03F08053BB60BB6800237B608F
:103E40001C4B1B681B4A43F440431360194B1B680F
:103E500003F440437B607B6802233B620123FB62E7
:103E600010233B630023BB6307F12003184601F0D6
:103E700097FE0346002B01D000F0F2F80F23FB6001
:103E800000233B6100237B610023BB610023FB61B6
:103E900007F10C030021184602F0F2F80346002B4C
:103EA00001D000F0DDF800BF5037BD4680BD00BF37
:103EB000003802400070004080B500AF124B134A3A
:103EC0001A60114B124A5A600F4B00229A600E4B37
:103ED0000022DA600C4B4FF480421A610A4B002238
:103EE0005A61094B00229A61074B0022DA61064BA6
:103EF00000221A62044800F09FFE0346002B01D006
:103F000000F0AEF800BF80BD500500200054004016
:103F1000801A060080B500AF114B124A1A60104B90
:103F20004FF4E1325A600E4B00229A600C4B002293
:103F3000DA600B4B00221A61094B0C225A61084BC4
:103F400000229A61064B0022DA61054802F064FA09
:103F50000346002B01D000F083F800BF80BD00BFF6
:103F6000A40500200010014080B500AF114B124A9B
:103F70001A60104B4FF416525A600E4B00229A6092
:103F80000C4B0022DA600B4B00221A61094B0C2209
:103F90005A61084B00229A61064B0022DA610548FB
:103FA00002F03AFA0346002B01D000F059F800BFA6
:103FB00080BD00BF240600200044004080B500AF53
:103FC000114B124A1A60104B4FF4E1325A600E4BFB
:103FD00000229A600C4B0022DA600B4B00221A611F
:103FE000094B0C225A61084B00229A61064B0022B1
:103FF000DA61054802F010FA0346002B01D000F008
:104000002FF800BF80BD00BFE40500200014014070
:1040100080B483B000AF00237B60104B1B6B0F4A52
:1040200043F0010313630D4B1B6B03F001037B6033
:104030007B6800233B60094B1B6B084A43F002037B
:104040001363064B1B6B03F002033B603B6800BF2E
:104050000C37BD465DF8047B704700BF0038024056
:1040600080B500AF72B64FF47A70FDF7F9FAFAE74F
:1040700080B483B000AF00237B60104B5B6C0F4AB1
:1040800043F4804353640D4B5B6C03F480437B60CB
:104090007B6800233B60094B1B6C084A43F080534C
:1040A0001364064B1B6C03F080533B603B6800BFFE
:1040B0000C37BD465DF8047B704700BF00380240F6
:1040C00080B58AB000AF786007F1140300221A604F
:1040D0005A609A60DA601A617B681B68194A9342D9
:1040E0002BD100233B61184B1B6B174A43F0020393
:1040F0001363154B1B6B03F002033B613B69C02349
:104100007B611223BB610123FB6103233B62042318
:104110007B6207F1140319460C4800F0D7FB00231B
:10412000FB60094B1B6C084A43F400131364064BF5
:104130001B6C03F40013FB60FB6800BF2837BD460F
:1041400080BD00BF0054004000380240000402401F
:1041500080B58EB000AF786007F1240300221A60AA
:104160005A609A60DA601A617B681B68584A934209
:1041700035D100233B62574B5B6C564A43F010032A
:104180005364544B5B6C03F010033B623B6A0023A7
:10419000FB61504B1B6B4F4A43F0010313634D4BC4
:1041A0001B6B03F00103FB61FB694FF4C0637B628F
:1041B0000223BB620023FB6203233B6307237B6371
:1041C00007F124031946444800F080FB0022002137
:1041D000252000F022FB252000F03BFB73E07B68EC
:1041E0001B683E4A934234D10023BB61394B1B6CA0
:1041F000384A43F400331364364B1B6C03F400332A
:10420000BB61BB6900237B61324B1B6B314A43F0BE
:10421000010313632F4B1B6B03F001037B617B696D
:104220000C237B620223BB620023FB6203233B63FC
:1042300007237B6307F124031946274800F046FB58
:1042400000220021262000F0E8FA262000F001FBE1
:1042500039E07B681B68224A934234D100233B61DA
:104260001C4B5B6C1B4A43F020035364194B5B6C83
:1042700003F020033B613B690023FB60154B1B6B84
:10428000144A43F001031363124B1B6B03F0010349
:10429000FB60FB684FF4C0537B620223BB620023C8
:1042A000FB6203233B6308237B6307F12403194666
:1042B000094800F00BFB00220021472000F0ADFA76
:1042C000472000F0C6FA00BF3837BD4680BD00BFAA
:1042D000001001400038024000000240004400404D
:1042E0000014014080B400AFFEE780B400AFFEE7E9
:1042F00080B400AFFEE780B400AFFEE780B400AF4B
:10430000FEE780B400AF00BFBD465DF8047B704798
:1043100080B400AF00BFBD465DF8047B704780B439
:1043200000AF00BFBD465DF8047B704780B500AFAD
:1043300000F056F900BF80BD80B500AF024802F022
:1043400091FA00BF80BD00BFA405002080B500AF7A
:10435000024802F087FA00BF80BD00BF240600209B
:1043600080B500AF024802F07DFA00BF80BD00BFFB
:10437000E405002080B586B000AFF860B9607A60CF
:1043800000237B610AE0AFF300800146BB685A1C42
:10439000BA60CAB21A707B6901337B617A697B6843
:1043A0009A42F0DB7B6818461837BD4680BD80B561
:1043B00086B000AFF860B9607A6000237B6109E0E5
:1043C000BB685A1CBA601B781846FFF70DFC7B6966
:1043D00001337B617A697B689A42F1DB7B6818461E
:1043E0001837BD4680BD80B483B000AF78604FF011
:1043F000FF3318460C37BD465DF8047B704780B428
:1044000083B000AF786039603B684FF400525A6067
:10441000002318460C37BD465DF8047B704780B416
:1044200083B000AF7860012318460C37BD465DF8B5
:10443000047B704780B485B000AFF860B9607A60E3
:10444000002318461437BD465DF8047B7047000012
:1044500080B586B000AF7860144A154BD31A7B61E3
:104460007B693B61134B1B68002B02D1114B124A35
:104470001A60104B1A687B6813443A699A4207D253
:1044800003F0ACFA02460C2313604FF0FF3309E04F
:10449000084B1B68FB60074B1A687B681344054A8E
:1044A0001360FB6818461837BD4680BD0000022027
:1044B0000004000044050020B089002080B400AF53
:1044C000084BD3F88830074A43F47003C2F88830A9
:1044D000044B4FF000629A6000BFBD465DF8047B5C
:1044E000704700BF00ED00E0DFF834D0002103E0AA
:1044F0000C4B5B58435004310B480C4B42189A420A
:10450000F6D30B4A02E0002342F8043B094B9A42DF
:10451000F9D3FFF7D3FF03F067FAFFF723FC7047E7
:1045200000000220E0AD0008000000201C03002075
:1045300020030020AC890020FEE7000080B500AF1A
:104540000E4B1B680D4A43F4007313600B4B1B6842
:104550000A4A43F480631360084B1B68074A43F41C
:1045600080731360032000F04DF9002000F008F87C
:10457000FFF77EFD0023184680BD00BF003C0240CF
:1045800080B582B000AF7860124B1A68124B1B786E
:1045900019464FF47A73B3FBF1F3B2FBF3F3184609
:1045A00000F065F90346002B01D001230EE07B6883
:1045B0000F2B0AD8002279684FF0FF3000F02DF958
:1045C000064A7B681360002300E001231846083781
:1045D000BD4680BD4001002048010020440100206C
:1045E00080B400AF064B1B781A46064B1B68134479
:1045F000044A136000BFBD465DF8047B704700BFEE
:1046000048010020A489002080B400AF034B1B6840
:104610001846BD465DF8047B704700BFA4890020A2
:1046200080B584B000AF7860FFF7EEFFB8607B68BC
:10463000FB60FB68B3F1FF3F05D0094B1B781A46BE
:10464000FB681344FB6000BFFFF7DEFF0246BB6858
:10465000D31AFA689A42F7D800BF1037BD4680BD1A
:104660004801002080B485B000AF78607B6803F01B
:104670000703FB600C4BDB68BB60BA684FF6FF03B7
:104680001340BB60FB681A02BB68134343F0BF636F
:1046900043F40033BB60044ABB68D36000BF1437E7
:1046A000BD465DF8047B704700ED00E080B400AFCC
:1046B000044BDB681B0A03F007031846BD465DF890
:1046C000047B704700ED00E080B483B000AF034688
:1046D000FB7197F90730002B0BDBFB7903F01F020E
:1046E000074997F907305B09012000FA02F241F807
:1046F000232000BF0C37BD465DF8047B704700BF28
:1047000000E100E080B483B000AF03463960FB7184
:1047100097F90730002B0ADB3B68DAB20C4997F9AE
:1047200007301201D2B20B4483F800230AE03B6841
:10473000DAB20849FB7903F00F03043B1201D2B24D
:104740000B441A7600BF0C37BD465DF8047B7047FA
:1047500000E100E000ED00E080B489B000AFF86057
:10476000B9607A60FB6803F00703FB61FB69C3F182
:104770000703042B28BF0423BB61FB690433062B0A
:1047800002D9FB69033B00E000237B614FF0FF325D
:10479000BB6902FA03F3DA43BB681A407B699A40AB
:1047A0004FF0FF317B6901FA03F3D9437B680B407B
:1047B000134318462437BD465DF8047B704700005C
:1047C00080B582B000AF78607B68013BB3F1807F39
:1047D00001D301230FE00A4A7B68013B53600F219C
:1047E0004FF0FF30FFF78EFF054B00229A60044B1D
:1047F00007221A60002318460837BD4680BD00BF57
:1048000010E000E080B582B000AF78607868FFF714
:1048100029FF00BF0837BD4680BD80B586B000AF18
:104820000346B9607A60FB7300237B61FFF73EFFAC
:1048300078617A68B9687869FFF78EFF024697F960
:104840000F3011461846FFF75DFF00BF1837BD4611
:1048500080BD80B582B000AF0346FB7197F9073089
:104860001846FFF731FF00BF0837BD4680BD80B551
:1048700082B000AF78607868FFF7A2FF0346184661
:104880000837BD4680BD80B483B000AF78607B68D8
:1048900093F83530DBB2022B04D07B6880225A6556
:1048A00001230CE07B68052283F835207B681B68B8
:1048B0001A687B681B6822F001021A600023184600
:1048C0000C37BD465DF8047B7047000080B489B0AA
:1048D00000AF7860396000237B6100233B610023D7
:1048E000BB610023FB6159E10122FB6902FA03F37A
:1048F0007B613B681B687A6913403B613A697B695D
:104900009A4240F048813B685B68012B0BD03B68C2
:104910005B68022B07D03B685B68112B03D03B68B8
:104920005B68122B30D17B689B68BB61FB695B00C5
:10493000032202FA03F3DB43BA691340BB613B680D
:10494000DA68FB695B0002FA03F3BA691343BB61DF
:104950007B68BA699A607B685B68BB610122FB690E
:1049600002FA03F3DB43BA691340BB613B685B683F
:104970001B0903F00102FB6902FA03F3BA6913434E
:10498000BB617B68BA695A607B68DB68BB61FB69A5
:104990005B00032202FA03F3DB43BA691340BB61F5
:1049A0003B689A68FB695B0002FA03F3BA69134338
:1049B000BB617B68BA69DA603B685B68022B03D035
:1049C0003B685B68122B23D1FB69DA087B680832ED
:1049D00053F82230BB61FB6903F007039B000F22F1
:1049E00002FA03F3DB43BA691340BB613B681A69FF
:1049F000FB6903F007039B0002FA03F3BA69134350
:104A0000BB61FB69DA087B680832B96943F8221098
:104A10007B681B68BB61FB695B00032202FA03F33E
:104A2000DB43BA691340BB613B685B6803F0030278
:104A3000FB695B0002FA03F3BA691343BB617B684D
:104A4000BA691A603B685B6803F08053002B00F082
:104A5000A2800023FB60564B5B6C554A43F48043B5
:104A60005364534B5B6C03F48043FB60FB68514A17
:104A7000FB699B08023352F82330BB61FB6903F0EA
:104A800003039B000F2202FA03F3DB43BA691340CE
:104A9000BB617B68484A934219D07B68474A93427E
:104AA00013D07B68464A93420DD07B68454A9342B7
:104AB00007D07B68444A934201D1042308E00723CE
:104AC00006E0032304E0022302E0012300E00023C8
:104AD000FA6902F0030292009340BA691343BB6182
:104AE0003449FB699B080233BA6941F82320374BEC
:104AF0001B68BB613B69DB43BA691340BB613B6820
:104B00005B6803F48033002B03D0BA693B6913431D
:104B1000BB612E4ABB6913602C4B5B68BB613B6970
:104B2000DB43BA691340BB613B685B6803F4003345
:104B3000002B03D0BA693B691343BB61234ABB69AD
:104B40005360224B9B68BB613B69DB43BA691340EE
:104B5000BB613B685B6803F48013002B03D0BA6928
:104B60003B691343BB61194ABB699360174BDB6810
:104B7000BB613B69DB43BA691340BB613B685B685F
:104B800003F40013002B03D0BA693B691343BB61E4
:104B90000E4ABB69D360FB690133FB61FB690F2BD4
:104BA0007FF6A2AE00BF2437BD465DF8047B704798
:104BB000003802400038014000000240000402407A
:104BC00000080240000C024000100240003C01407E
:104BD00080B483B000AF78600B467B8013467B7057
:104BE0007B78002B03D07A887B689A6103E07B880E
:104BF0001A047B689A6100BF0C37BD465DF8047BE0
:104C0000704780B483B000AF78600B467B807B68D0
:104C10005A697B881A407B889A4204D17B881A049F
:104C20007B689A6102E07A887B689A6100BF0C37E2
:104C3000BD465DF8047B704780B584B000AF7860F6
:104C40007B68002B01D101231FE17B6893F83D3085
:104C5000DBB2002B06D17B68002283F83C20786809
:104C6000FFF72EFA7B68242283F83D207B681B68BF
:104C70001A687B681B6822F001021A607B681B6857
:104C80001A687B681B6842F400421A607B681B68E4
:104C90001A687B681B6822F400421A6001F094FBDA
:104CA000F8607B685B687B4A934207D8FB687A4A66
:104CB000934294BF01230023DBB206E0FB68774AEE
:104CC000934294BF01230023DBB2002B01D00123C8
:104CD000DBE0FB68724AA2FB03239B0CBB607B6892
:104CE0001B685B6823F03F017B681B68BA680A4356
:104CF0005A607B681B681B6A23F03F017B685B6816
:104D0000644A934202D8BB68013309E0BB684FF4A0
:104D1000967202FB03F3634AA2FB03239B09013350
:104D20007A6812680B4313627B681B68DB6923F4A3
:104D30004F4222F0FF027B685B6856498B420DD8D8
:104D4000FB68591E7B685B685B00B1FBF3F30133C2
:104D5000C3F30B03042B38BF04234FE07B689B682D
:104D6000002B11D1FB68581E7B6859680B465B000D
:104D70000B44B0FBF3F30133C3F30B03002B0CBF65
:104D800001230023DBB212E0FB68581E7B685968E0
:104D90000B469B000B4499000B44B0FBF3F301332B
:104DA000C3F30B03002B0CBF01230023DBB2002B4A
:104DB00001D0012322E07B689B68002B0ED1FB68A9
:104DC000581E7B6859680B465B000B44B0FBF3F33D
:104DD0000133C3F30B0343F400430FE0FB68581E99
:104DE0007B6859680B469B000B4499000B44B0FB51
:104DF000F3F30133C3F30B0343F4404379680968C9
:104E00001343CB617B681B681B6823F0C0017B6880
:104E1000DA697B681B6A1A437B681B680A431A605D
:104E20007B681B689B6823F4034323F0FF037A68C5
:104E300011697A68D26811437A6812680B439360EB
:104E40007B681B68DB6823F0FF017B685A697B681D
:104E50009B691A437B681B680A43DA607B681B689E
:104E60001A687B681B6842F001021A607B680022A6
:104E70001A647B68202283F83D207B6800221A6335
:104E80007B68002283F83E20002318461037BD4679
:104E900080BD00BFA08601007F841E00FF083D008A
:104EA00083DE1B43D34D621080B588B002AFF8603B
:104EB000084611461A4603467B810B463B81134642
:104EC000FB80FFF7A1FB7861FB6893F83D30DBB214
:104ED000202B40F0D9807B690093192301226D4972
:104EE000F86800F07FFC0346002B01D00223CCE0E1
:104EF000FB6893F83C30012B01D10223C5E0FB682D
:104F0000012283F83C20FB681B681B6803F0010347
:104F1000012B07D0FB681B681A68FB681B6842F00E
:104F200001021A60FB681B681A68FB681B6822F4A0
:104F300000621A60FB68212283F83D20FB68402252
:104F400083F83E20FB6800221A64FB683A6A5A62C2
:104F5000FB68BA8C5A85FB685B8D9AB2FB681A8530
:104F6000FB684D4ADA62F8883A8979897B6901934E
:104F7000BB6A00930346F86800F0B6FA0346002BBC
:104F800052D0012381E07A69B96AF86800F000FD27
:104F90000346002B0DD0FB681B6C042B07D1FB686C
:104FA0001B681A68FB681B6842F400721A600123D0
:104FB0006BE0FB685B6A1A78FB681B681A61FB6828
:104FC0005B6A5A1CFB685A62FB681B8D013B9AB2F4
:104FD000FB681A85FB685B8D9BB2013B9AB2FB684C
:104FE0005A85FB681B685B6903F00403042B1BD123
:104FF000FB681B8D002B17D0FB685B6A1A78FB6877
:105000001B681A61FB685B6A5A1CFB685A62FB6882
:105010001B8D013B9AB2FB681A85FB685B8D9BB2C6
:10502000013B9AB2FB685A85FB681B8D002BAAD105
:105030007A69B96AF86800F0ECFC0346002B0DD0E1
:10504000FB681B6C042B07D1FB681B681A68FB68A4
:105050001B6842F400721A60012316E0FB681B68AB
:105060001A68FB681B6842F400721A60FB68202211
:1050700083F83D20FB68002283F83E20FB68002275
:1050800083F83C20002300E0022318461837BD4671
:1050900080BD00BF020010000000FFFF80B58CB093
:1050A00002AFF860084611461A4603467B810B465C
:1050B0003B811346FB80FFF7A7FA7862FB6893F801
:1050C0003D30DBB2202B40F008827B6A009319232D
:1050D00001227B49F86800F085FB0346002B01D0D4
:1050E0000223FBE1FB6893F83C30012B01D1022342
:1050F000F4E1FB68012283F83C20FB681B681B6815
:1051000003F00103012B07D0FB681B681A68FB68DA
:105110001B6842F001021A60FB681B681A68FB6892
:105120001B6822F400621A60FB68222283F83D208B
:10513000FB68402283F83E20FB6800221A64FB686B
:105140003A6B5A62FB68BA8E5A85FB685B8D9AB2DD
:10515000FB681A85FB685B4ADA62F8883A897989C4
:105160007B6A0193BB6B00930346F86800F052FA28
:105170000346002B01D00123B0E1FB681B8D002BFF
:1051800013D100233B62FB681B685B693B62FB68D1
:105190001B689B693B623B6AFB681B681A68FB687B
:1051A0001B6842F400721A6084E1FB681B8D012BBE
:1051B0001BD1FB681B681A68FB681B6822F48062BD
:1051C0001A600023FB61FB681B685B69FB61FB687D
:1051D0001B689B69FB61FB69FB681B681A68FB68BD
:1051E0001B6842F400721A6064E1FB681B8D022B9D
:1051F0001BD1FB681B681A68FB681B6822F480627D
:105200001A60FB681B681A68FB681B6842F400623E
:105210001A600023BB61FB681B685B69BB61FB68AC
:105220001B689B69BB61BB6944E100237B61FB6830
:105230001B685B697B61FB681B689B697B617B69A1
:1052400038E1FB681B8D032B00F2F180FB681B8D9E
:10525000012B23D17A6AB96BF86800F01BFC034676
:10526000002B01D0012339E1FB681B681A69FB6838
:105270005B6AD2B21A70FB685B6A5A1CFB685A629E
:10528000FB681B8D013B9AB2FB681A85FB685B8D3E
:105290009BB2013B9AB2FB685A850BE1FB681B8D00
:1052A000022B4ED17B6A0093BB6B00220649F86843
:1052B00000F098FA0346002B08D001230EE100BF4E
:1052C000020010000000FFFF04000100FB681B68E3
:1052D0001A68FB681B6842F400721A60FB681B685E
:1052E0001A69FB685B6AD2B21A70FB685B6A5A1C67
:1052F000FB685A62FB681B8D013B9AB2FB681A85FA
:10530000FB685B8D9BB2013B9AB2FB685A85FB68D8
:105310001B681A69FB685B6AD2B21A70FB685B6A29
:105320005A1CFB685A62FB681B8D013B9AB2FB68F2
:105330001A85FB685B8D9BB2013B9AB2FB685A856C
:10534000B8E07B6A0093BB6B00226649F86800F006
:1053500049FA0346002B01D00123BFE0FB681B681C
:105360001A68FB681B6822F480621A60FB681B687D
:105370001A69FB685B6AD2B21A70FB685B6A5A1CD6
:10538000FB685A62FB681B8D013B9AB2FB681A8569
:10539000FB685B8D9BB2013B9AB2FB685A857B6AC6
:1053A0000093BB6B00224F49F86800F01BFA0346DC
:1053B000002B01D0012391E0FB681B681A68FB6891
:1053C0001B6842F400721A60FB681B681A69FB686C
:1053D0005B6AD2B21A70FB685B6A5A1CFB685A623D
:1053E000FB681B8D013B9AB2FB681A85FB685B8DDD
:1053F0009BB2013B9AB2FB685A85FB681B681A692D
:10540000FB685B6AD2B21A70FB685B6A5A1CFB6865
:105410005A62FB681B8D013B9AB2FB681A85FB68D8
:105420005B8D9BB2013B9AB2FB685A8542E07A6A77
:10543000B96BF86800F02EFB0346002B01D0012366
:105440004CE0FB681B681A69FB685B6AD2B21A7091
:10545000FB685B6A5A1CFB685A62FB681B8D013B48
:105460009AB2FB681A85FB685B8D9BB2013B9AB2CE
:10547000FB685A85FB681B685B6903F00403042B17
:1054800018D1FB681B681A69FB685B6AD2B21A7094
:10549000FB685B6A5A1CFB685A62FB681B8D013B08
:1054A0009AB2FB681A85FB685B8D9BB2013B9AB28E
:1054B000FB685A85FB681B8D002B7FF4C2AEFB682E
:1054C000202283F83D20FB68002283F83E20FB6801
:1054D000002283F83C20002300E0022318462837EE
:1054E000BD4680BD0400010080B588B002AFF86001
:1054F000084611461A4603467B810B463B811346FC
:10550000FB80FB681B681A68FB681B6842F48072AA
:105510001A607B6A00933B6A00224FF00111F86821
:1055200000F060F90346002B0DD0FB681B681B6878
:1055300003F48073B3F5807F03D1FB684FF40072EE
:105540001A6403235FE07B89DBB21A46FB681B68A1
:1055500002F0FE021A617B6A3A6A2D49F86800F08F
:1055600098F90346002B01D001234CE000237B6116
:10557000FB681B685B697B61FB681B689B697B61DF
:105580007B697A6A396AF86800F002FA0346002BF0
:105590000DD0FB681B6C042B07D1FB681B681A68D5
:1055A000FB681B6842F400721A6001232BE0FB8841
:1055B000012B05D13B89DAB2FB681B681A6121E037
:1055C0003B891B0A9BB2DAB2FB681B681A617A6AD4
:1055D000396AF86800F0DCF90346002B0DD0FB684F
:1055E0001B6C042B07D1FB681B681A68FB681B68DF
:1055F00042F400721A60012305E03B89DAB2FB68CD
:105600001B681A61002318461837BD4680BD00BFCD
:105610000200010080B588B002AFF860084611466C
:105620001A4603467B810B463B811346FB80FB6891
:105630001B681A68FB681B6842F480621A60FB688A
:105640001B681A68FB681B6842F480721A607B6AE8
:1056500000933B6A00224FF00111F86800F0C2F895
:105660000346002B0DD0FB681B681B6803F4807396
:10567000B3F5807F03D1FB684FF400721A640323F3
:10568000AAE07B89DBB21A46FB681B6802F0FE02C7
:105690001A617B6A3A6A5249F86800F0FAF80346E0
:1056A000002B01D0012397E000237B61FB681B687E
:1056B0005B697B61FB681B689B697B617B697A6ABC
:1056C000396AF86800F064F90346002B0DD0FB68D6
:1056D0001B6C042B07D1FB681B681A68FB681B68EE
:1056E00042F400721A60012376E0FB88012B05D199
:1056F0003B89DAB2FB681B681A6121E03B891B0A0F
:105700009BB2DAB2FB681B681A617A6A396AF86878
:1057100000F03EF90346002B0DD0FB681B6C042BF8
:1057200007D1FB681B681A68FB681B6842F40072AB
:105730001A60012350E03B89DAB2FB681B681A61EA
:105740007A6A396AF86800F023F90346002B0DD015
:10575000FB681B6C042B07D1FB681B681A68FB688D
:105760001B6842F400721A60012335E0FB681B6875
:105770001A68FB681B6842F480721A607B6A0093A7
:105780003B6A00224FF00111F86800F02BF8034645
:10579000002B0DD0FB681B681B6803F48073B3F506
:1057A000807F03D1FB684FF400721A64032313E077
:1057B0007B89DBB243F00103DAB2FB681B681A6134
:1057C0007B6A3A6A0649F86800F063F80346002BE2
:1057D00001D0012300E0002318461837BD4680BDE4
:1057E0000200010080B584B000AFF860B9603B6092
:1057F0001346FB7125E03B68B3F1FF3F21D0FEF774
:1058000003FF0246BB69D31A3A689A4202D33B6847
:10581000002B16D1FB6800221A63FB68202283F854
:105820003D20FB68002283F83E20FB681B6C43F0A0
:105830002002FB681A64FB68002283F83C200123E5
:1058400023E0BB681B0CDBB2012B0DD1FB681B688E
:105850005B69DA43BB6813409BB2002B0CBF01238A
:105860000023DBB21A460CE0FB681B689B69DA4335
:10587000BB6813409BB2002B0CBF01230023DBB29B
:105880001A46FB799A42B6D0002318461037BD4617
:1058900080BD80B584B000AFF860B9607A603B60CD
:1058A00051E0FB681B685B6903F48063B3F5806FAC
:1058B00023D1FB681B681A68FB681B6842F40072FE
:1058C0001A60FB681B686FF480625A61FB680022F3
:1058D0001A63FB68202283F83D20FB68002283F8CE
:1058E0003E20FB681B6C43F00402FB681A64FB68F3
:1058F000002283F83C20012346E07B68B3F1FF3FA0
:1059000021D0FEF781FE02463B68D31A7A689A429C
:1059100002D37B68002B16D1FB6800221A63FB6858
:10592000202283F83D20FB68002283F83E20FB689C
:105930001B6C43F02002FB681A64FB68002283F8AA
:105940003C20012320E0BB681B0CDBB2012B0CD1F7
:10595000FB681B685B69DA43BB6813409BB2002B92
:1059600014BF01230023DBB20BE0FB681B689B69BB
:10597000DA43BB6813409BB2002B14BF0123002302
:10598000DBB2002B8DD1002318461037BD4680BDF9
:1059900080B584B000AFF860B9607A602DE0F86837
:1059A00000F0CEF80346002B01D001232DE0BB68A8
:1059B000B3F1FF3F21D0FEF727FE02467B68D31AE2
:1059C000BA689A4202D3BB68002B16D1FB6800224A
:1059D0001A63FB68202283F83D20FB68002283F8CD
:1059E0003E20FB681B6C43F02002FB681A64FB68D6
:1059F000002283F83C20012307E0FB681B685B69F9
:105A000003F08003802BCAD1002318461037BD460F
:105A100080BD80B584B000AFF860B9607A602DE0D9
:105A2000F86800F08DF80346002B01D001232DE02B
:105A3000BB68B3F1FF3F21D0FEF7E6FD02467B686D
:105A4000D31ABA689A4202D3BB68002B16D1FB68FE
:105A500000221A63FB68202283F83D20FB680022A5
:105A600083F83E20FB681B6C43F02002FB681A643D
:105A7000FB68002283F83C20012307E0FB681B68D9
:105A80005B6903F00403042BCAD1002318461037C6
:105A9000BD4680BD80B584B000AFF860B9607A6063
:105AA00042E0FB681B685B6903F01003102B19D1FF
:105AB000FB681B686FF010025A61FB6800221A63D2
:105AC000FB68202283F83D20FB68002283F83E20FB
:105AD000FB681A6CFB681A64FB68002283F83C20A0
